:100000000C945B060C9483060C9483060C94830674
:100010000C9483060C9483060C9483060C9483063C
:100020000C9483060C9483060C9483060C9483062C
:100030000C9483060C9483060C9483060C9483061C
:100040000C946E140C9483060C9483060C94830613
:100050000C9483060C9483060C9483060C948306FC
:100060000C94B8140C9483065F0003030505040583
:10007000061614FDFC0EFC0EFE026D05BA080B20E0
:100080000600602C01210FC4253423391C2C226565
:10009000C92122012209A5644621E14500231B8BC9
:1000A000616429114BC412D961729849C412D96193
:1000B000729849C412B14408242149A65B19878467
:1000C0006B924829520A5582B643E81033464AA13A
:1000D0004AA8129195E39020002529EEE17B359303
:1000E0008A26415948280B456511A9287D2487C6D1
:1000F000C6225134240B8A64C1982CA6148C4EE37A
:1001000030002624D0258C4B078AE420991C2493A8
:10011000832672581D3AABD984135270561D52A7CC
:10012000B4DA21741B012707A2642E711828110567
:10013000A23327128D442399DE66B299500029100C
:1001400005A2332194CD64337D1A89466A002A10B2
:10015000E7E045354A9A44442349649434022B1518
:100160004A215C2987C8217288F07030CA217288C0
:100170001C22042C0BE4602B23394446D9002D07A4
:1001800065E034F1102E0A84202C23394424002FFA
:100190000FC6213CA918540C2A0615838A00301377
:1001A000C9255C379C8C6492997F9BC84493E10C71
:1001B00000310BC7295C271C15F79F0E3215C92586
:1001C0005C47134D66B6896C3C1D4FA762D5C3A131
:1001D000003317C9255C47134D66B6896C2C9C8388
:1001E000E41399DB44342B013416C9255C1F174FE7
:1001F0001923B3D028368A4D829383743C2D351849
:10020000C9255C73889CE29038240EB1C5E6E38969
:10021000CC6D229A95003616C9255C575A91D9247F
:10022000E3C988B2E66D229B8C8433003711C9255F
:100230005CF1509E8AE562B97875BC11003815C929
:10024000255C379449A4D4E2456434858E556A4DC3
:1002500046033917C9255C37144D669299B7C9848E
:1002600034194F6436C96854033A0D2425342339B0
:1002700044C4924344023B0F846533233944C492FF
:100280004364940D003C114A215C0F111339D321B2
:1002900074081D4287083D0BC9A45CF140473C1C13
:1002A000083E124A215C2187D02174081D42267223
:1002B0009643003F12C921545712DD6C13D9587769
:1002C0002431952C044027CF21847B1ECBE4A090C1
:1002D000AC241129916422924C449189246A228988
:1002E000D244249A10E5A0D8587C08024120CE1DA3
:1002F000741F07CB8173201D1499834272486C1EB2
:100300001B47A7076178181FC927D402421ECC21BA
:10031000747198CD48C3D170341CCD6687E0D27417
:10032000329D4C27D3C970729001431DCC21745962
:100330000AB18C25E33A840EA183E6A039680E89C0
:10034000CC23E3184D5A03441FCE218471980E69C3
:10035000E3D178349FCC27F3C97C329FCC27E3D1FB
:100360007834241D8600451FCB216C71A00C2753C7
:10037000C92C1499852223E171249C0567A1C838F2
:1003800032950C0F07461ECB216C71A00C2753C968
:100390002C1499852223E171249C0567C139640ED0
:1003A000995B014721CD217C598A914863D158320C
:1003B0008744E690C81C36874D0FE1D174349D9177
:1003C000A8A50800481ECE218451AC8C47E3D17803
:1003D000341E8D4787D278341E8D47E3D178349E02
:1003E000140B490AC5254C5119ED7F294A13CA1D22
:1003F000645B9EEF936C429A9026C2916848044BCE
:100400001ECE2184512B4D8543E94C3C924FE41084
:100410003BE43E218FA833E29036A5D40C4C10CAA1
:100420002164519EEFAF91696428991D0C4D2DD127
:10043000219C612E9169555A641899856691596875
:1004400016998546A1596C129AC526A1598C360B6E
:10045000CE66C1D968189CD462054E21CE21844154
:10046000AD5067D42035584CA10543A4608C120CC4
:1004700016A3C428313C1B8BCA21004F1DCE2184FA
:100480006926D1C6A3F1640EB143EC103BC40EB192
:10049000439647E319896C04501ECC21747110CE29
:1004A0004843CA9032A40C2933D2213807CD417376
:1004B000D01C3487D40151284E22836926D1C6A38B
:1004C000F1640EB143EC103BC40EB1D026A3916889
:1004D000269951CA76A81C3A8983EAB01100521FA6
:1004E000CD218471A00D49D3D174341D0D6787E8E7
:1004F0006C381BCE68C3D970369C1827005316CAB7
:1005000021644709AD0C25D308D97A355BCBD5D307
:10051000245402541CCB216C7130ADCD6433D92CE2
:100520003887CC2173C81C3287CC2173C8BC0655D0
:100530001ECE218451AC8C47F3D83C368FCD63F36B
:10054000D83C368FCD63F3D83C38941B015622CF6C
:100550001D7461AC9067F320353C0D4FE3B33864F4
:1005600016074DE2B0491C3887CEC171781C005780
:1005700030D41D9C61315568C4D9701AA4D1C233DE
:100580005A78460B5322943864129AC42193D0248B
:100590000EA1D161C3396C380786E3D070180058BA
:1005A0001FCF218C63AA11A734F9480EB1C3E850BC
:1005B0003AAC0EB3434464E174481B538A06591F96
:1005C000CD217C61A35065D3204D3A0B53E2903A84
:1005D000680E9BC3E6B0396C0E9B436E005A19CC73
:1005E000216CF1102E4FC294289D0E9943E8AC1156
:1005F00072645C3E1C025B0A04A63361D2FF1301E5
:100600005C12C8214C21968BE562B9582E968BE579
:1006100062015D0A04A23341D2FF93015E0E08A17C
:100620004D27961269222D42A2005F0749604BF1C7
:1006300040600885A43E215B1461122A215C739AF4
:100640004D8463DA646D329B8C9806621FCC1D6406
:100650004107CD4173D01C34074D88B4D174329D0D
:100660004C27D3C974421B496A00630F2921545790
:100670001A19CB5B2333190900641DCC216C4F0779
:10068000CD4173D01C34A48C6694E9643A994EA68B
:1006900093E96846A41065122A215C471C4D86C662
:1006A000C3413E8E0C652500660EC8213C4793EC85
:1006B0003AB44DF7B106671EEB215B0F924346C675
:1006C000D14C2813CA4643A31C74081E22D2895851
:1006D0003294DD00681ECC216C4107CD4173D01CE3
:1006E00034074D6A24D270341C0D47C3D170349C3A
:1006F000940A690CC52134335A0792F64B016A0FEC
:10070000471633B91D8DB83F5A2C2212006B1DCCF1
:10071000216C4107CD4173D01C34078D4A33E12849
:100720003C115F27C4116D46A9186C0AC5213441DC
:10073000DAFFA5006D183321A441A9D84825D2704D
:1007400069B8345C1A2E0D97862BA5066E152C21E0
:100750006C41A99148C3D170341C0D47C3D170526C
:100760002A6F0F2B2164579C4DA6BE4E66C31A00FC
:10077000701CAC1D633122D246D3C974329D4C2704
:10078000D3096D3421CE4173D01C5207711CAC21AA
:10079000634712CD28D3C974329D4C27D3D18C48DE
:1007A0009983E6A039680E29720F28214C41115116
:1007B0002423C974C71A0073122921544509C92476
:1007C000C388F16A2D4A2225007411A72144178E8F
:1007D0000A67A6E19E22A310050075152C216C5115
:1007E000220D47C3D170341C0D47C3115B850076C1
:1007F000142A1D4C519A0C43C3D828388A92E972A6
:10080000881000771B301D7C51294D66C3D06C18B1
:100810001B91822352944426D18572885008781205
:100820002B216461619351A4F579554293512806B7
:10083000791BAB2163519B4C43D3D82C388B4EC2D0
:1008400093F81C32074565D1497C0E7A0E29215454
:1008500071A0D588DC8AC403017B0E05A233271260
:10086000EDA4281BED26147C07C2315CF1037D0F3B
:1008700005A23321948DB60945A23DA9017E0B6ADC
:100880002465B572888C460000000004FFFF00005C
:100890005F0002020304030504050C00FE07FE08C6
:1008A000FF0139028503AC2005006A07210739439F
:1008B00067A80022079B56275901230B3542AF1A20
:1008C000AA4C69A80A240D4D3E37AF4AE59D54B5A0
:1008D000230025093D4247CEDC3905260C3D422F39
:1008E000A79872956454012705195767280ACB3ECB
:1008F00037C514EB9803290BCB3E27C71CAB9822B6
:10090000002A0A3D42B7AA765ECD082B0A2D46374B
:10091000A3386446112C071B3E4F8D042D060D4E47
:1009200067082E06924267042F0C3D421FE58C7229
:100930008D7246003009BC424F45CFA4003108BB40
:10094000422FC9AE01320A3D426FE58C727B0833FB
:100950000C3D42676894B3863A2D00340C3D423F0B
:10096000CB54A6A1334A00350C3D42E74623C38C45
:10097000745A00360C3D4257E68C46CA3A2D003771
:100980000D3D4267689433CA19651401380B3D4226
:100990006F659D56D66901390C3D426F659D46468F
:1009A000394A003A07AA4267C4113B09333ECF4691
:1009B0006A24003C07AB4637D5053D081D4A6768E9
:1009C00038043E08AB46275725003F0A3D426FE5F5
:1009D00036CA7404400C3D426F6535525223C3053C
:1009E000410A3D426F653D46B603420C3D4267C435
:1009F0002AA659C5A100430C3D426F658D32CA2815
:100A0000A705440D3D4267C42AA698628A43014562
:100A10000C3D42E746198D94514643460D3D42E751
:100A200046198D9451461901470C3D426F658D3230
:100A30008A3B2D0048093D4227DB63643B4908BBE4
:100A40004267C5AE014A0C3D4277679451466594B2
:100A5000004B0B3D4227CB54EA14AB1C4C0E3D42DD
:100A600027A38C32CA28A38C86004D093D4227AFAC
:100A700095B43B4E0A3D4227EBA992DC3A4F093D23
:100A8000426F65EFB400500D3D4267A4AC87CA28A1
:100A9000A38C00510A3D426F6557925105520B3DA0
:100AA0004267A4AC872AAB1C530B3D426F650D37E0
:100AB000D46901540E3D4267C88C32CA28A38C22E7
:100AC0000055083D4227FB4E0B560A3D4227BB53BB
:100AD00099720457093D42277B25D505580A3D42A6
:100AE00027EB5457B50E590C3D4227EB54679451F0
:100AF00046115A0A3D42676894BBD1105B08CB3E51
:100B000067C43E075C0D3D4227C38C32CC30A30C3A
:100B1000035D08CB3E67F639025E071D5637A73ADC
:100B20005F060D3A670860069B562717610A2D423B
:100B30006FC334741A01620C3D4227A38C46CAF677
:100B40005000630A2D426F658D725A00640B3D425E
:100B50001F659486B6D308650A2D426FE5A1325C05
:100B600000660B3D4257567967945106670B3D3A34
:100B70006F653B8D8CD202680B3D4227A38C46CA21
:100B8000EE006908BB422F23D91A6A0ACC3A3F63A8
:100B9000DD9649016B0C3D4227A38CB24CB3CA01D0
:100BA0006C07BB4247F61A6D0A2D4247B5545249AD
:100BB000156E082D422799DA0E6F092D426F653B9D
:100BC0002D00700C3D3A67A46C0F95514600710BD7
:100BD0003D3A6F683B8D8C320A720B2D4227991A71
:100BE00065941100730A2D426F68B8E15000740CCF
:100BF0003D4237A338644619652875082D42273BC6
:100C0000950A76092D4227DBA98E0077092D422708
:100C10005B49750178092D4227A7BAAA03790A3DD5
:100C20003A27DBA96E23007A082D4267E8F6107B8D
:100C300009CB3E37C52AC73A7C06493FE7017D0A02
:100C4000CB3E27C73AC52A027E091D4A2FAA241384
:100C50000000000004FFFF00000000000024002747
:100C6000002A0000000000250028002B00000000E2
:100C700000230026002900040404040404040402E0
:100C80000202020202030303030303010204081029
:100C900020408001020408102001020408102000F6
:100CA000000008000201000003040700000000002B
:100CB00000000000D71511241FBECFEFD8E0DEBF23
:100CC000CDBF12E0A0E0B1E0E0EBF5E302C005909B
:100CD0000D92A439B107D9F728E0A4E9B2E001C028
:100CE0001D92A132B207E1F716E0CBE5D6E004C0D1
:100CF0002197FE010E94C21ACA35D107C9F70E9486
:100D00009A160C94D61A0C940000662329F06A30C7
:100D100019F0862F90E008958FEF9FEF0895AF921E
:100D2000BF92CF92DF92EF92FF920F93CF93DF9318
:100D3000EC01DA017901942F9770E1E0F0E09F0176
:100D4000092E01C0220F0A94EAF7522F6E018AE899
:100D5000C80ED11CF601808140E0823018F4422F89
:100D6000813049F15D01F8EFAF22E8ADF9AD28819E
:100D70003981D90150968C918A9D90018B9D300DBF
:100D80001124620F731FDF01A60FB71F01111AC0D4
:100D9000EA0EFB1E8C91842B85278D93AE15BF0523
:100DA000C9F7DF91CF910F91FF90EF90DF90CF9037
:100DB000BF90AF90089550E0D5CF440F550FE11488
:100DC000F10479F33C91342B35273C939F5F977066
:100DD000E1E0EE1AF1089111F0CF2CAD3DADA20F7C
:100DE000B31FF6018081823028F4813009F051E090
:100DF00041E0E5CF51E0E3CF80E0089590E080E06E
:100E00000895CF93DF93CBE8D7E08FAFEAADFBAD8A
:100E10000190F081E02D8FE897E00995EAADFBADF8
:100E20000280F381E02D8FE897E0DF91CF91099464
:100E30009B01DC011896ED91FC9141E067E109947A
:100E4000833081F028F4813099F08230A9F0089540
:100E50008730A9F08830C9F08430B1F480918000E7
:100E60008F7D03C0809180008F77809380000895EC
:100E700084B58F7784BD089584B58F7DFBCF809135
:100E8000B0008F778093B00008958091B0008F7D7F
:100E9000F9CFCF93DF93282F30E0F901E156F34FDC
:100EA0008491F901E557F34FD491F901E958F34FD3
:100EB000C491CC23A1F081110E942007EC2FF0E017
:100EC000EE0FFF1FE359F34FA591B491EC91ED2381
:100ED00081E090E009F480E0DF91CF91089580E017
:100EE00090E0FACF1F93CF93DF93282F30E0F901E2
:100EF000E156F34F8491F901E557F34FD491F9018D
:100F0000E958F34FC491CC23A9F0162F81110E9408
:100F10002007EC2FF0E0EE0FFF1FED59F34FA591E6
:100F2000B4918FB7F894EC91111108C0D095DE23DD
:100F3000DC938FBFDF91CF911F910895DE2BF8CF07
:100F4000CF93DF9390E0FC01E557F34F249189584C
:100F5000934FFC0184918823D1F090E0880F991F72
:100F6000FC01E75AF34FA591B491FC01ED59F34F01
:100F7000C591D491623071F49FB7F8943C91822F5F
:100F8000809583238C93E8812E2B28839FBFDF914C
:100F9000CF9108958FB7F894EC912E2B2C938FBF9F
:100FA000F6CF3FB7F89480917B0390917C03A0919A
:100FB0007D03B0917E0326B5A89B05C02F3F19F095
:100FC0000196A11DB11D3FBFBA2FA92F982F8827C9
:100FD000BC01CD01620F711D811D911D42E0660FA4
:100FE000771F881F991F4A95D1F708958F929F9276
:100FF000AF92BF92CF92DF92EF92FF926B017C0192
:101000000E94D1074B015C01C114D104E104F10439
:10101000B9F00E94D107681979098A099B09683ECD
:1010200073408105910580F321E0C21AD108E108DF
:10103000F10888EE880E83E0981EA11CB11CE4CF55
:10104000FF90EF90DF90CF90BF90AF909F908F90E8
:10105000089520912703260F3327331F21323105AE
:10106000ECF420914D03FC0190E080E0243069F025
:1010700082E00895A09127032191AC014B5F5C4F62
:10108000A40FB52FB11D2C930196861798F380916C
:101090002703680F6093270380E0089581E0089597
:1010A00010924D0381E080934F0310924E0361E054
:1010B00082E10E94720761E083E10E947207E9EB1E
:1010C000F0E080818E7F808380818D7F808388E4C3
:1010D0008093B80085E48093BC000895CF93DF939C
:1010E00091E0909304038823B9F0C091B800D091A7
:1010F000BA008091BC008A7B8093BC0060E082E1F2
:101100000E94720760E083E10E9472070E9450080B
:10111000D093BA00C093B800DF91CF91089508959D
:1011200008950895E091FC028091FB02E81730F4E5
:10113000F0E0E552FD4F808190E008958FEF9FEF42
:1011400008959091FC028091FB022FEF3FEF9817DA
:1011500048F4E92FF0E0E552FD4F208130E09F5F39
:101160009093FC02C90108958091FB029091FC02CA
:10117000891B990B0895CF92DF92EF92FF920F9304
:101180001F93CF93DF937C01CB018A012091DA0278
:10119000222389F0EB016B01C40ED51ECC15DD05B1
:1011A00069F06991D701ED91FC910190F081E02DFA
:1011B000C7010995F3CF642F0E942908C801DF9168
:1011C000CF911F910F91FF90EF90DF90CF900895F6
:1011D000CF93DF931F92CDB7DEB769832091DA02F8
:1011E0002223F9F02091FD02203258F021E030E076
:1011F000FC013383228390E080E00F90DF91CF9158
:1012000008958091FE02E82FF0E0E654FD4F9981A9
:1012100090838F5F8093FE028093FD0281E090E0D7
:10122000ECCF61E0CE0101960E942908F7CFDC01E6
:101230001A96ED91FC9130E020E00994DC011496BF
:10124000ED91FC9130E020E040E060E10994DC01A8
:101250001696ED91FC9130E020E040E069E10994C0
:10126000DC011696ED91FC9130E020E040E068E171
:1012700009949A01DC011696ED91FC91462F67E1E5
:101280000994EF92FF920F931F93CF93DF931F92D6
:10129000CDB7DEB77C018B01D8016C91673129F1A4
:1012A00050F46531A0F40F90DF91CF911F910F9111
:1012B000FF90EF9008956A3118F16E3FA1F7F801A1
:1012C0004181498369E2C7010E9417090BC0F801F7
:1012D00041814983D7011696ED91FC9130E020E0E1
:1012E000C70109950E5F1F4FD7CFF8018181898310
:1012F000AE014F5F5F4F61E0C7010E943909F2CF35
:101300000F5F1F4FD7011696ED91FC9130E020E062
:1013100040E0C7010995C0CF462FDC011696ED913C
:10132000FC9130E020E066E10994462FDC0116963E
:10133000ED91FC9130E020E065E10994EF92FF929D
:101340000F931F93CF93DF93EC01042F79016D303E
:1013500009F446C050F46B30C9F1693009F49FC0FC
:101360006A3009F465C080E046C06E3009F452C0AE
:101370006F3099F70E943009F7011381110F110F97
:10138000110F6C89160F60E4CE010E949509612F40
:1013900062956F706061CE010E949509612F6F7038
:1013A000CE010E948C09F7016481606BCE010E941E
:1013B0008C09F701408151816281660F660F660FCB
:1013C000CE010E9439090150A1F72EC06BE971E0EE
:1013D000442311F066E971E0CE010E9441090AC080
:1013E000411110C06FE871E00E944109E881F98164
:1013F00082898C8B81E0DF91CF911F910F91FF90BB
:10140000EF90089568E871E00E944109E881F98150
:101410008389EFCF0E94300961E8CE010E949509CF
:10142000602FCE010E948C09CE010E942709E2CFD5
:10143000EA85FB8530E020E040E068E2CE010995D6
:10144000EE81FF8130E020E040E064E1CE010995CB
:1014500041E06BE4CE010E941709E881F9814481E3
:1014600069E2CE010E94170940E06BE4CE010E94C0
:101470001709E881F981448169E2CE010E941709C8
:1014800041E06BE4CE010E941709E881F9814581B2
:1014900069E2CE010E94170960EA71E09DCF85EDF7
:1014A00091E0998388831C8AA5CFDC011896ED9181
:1014B000FC9130E020E040E069E10994DC011896FD
:1014C000ED91FC9130E020E040E068E10994CF9399
:1014D000DF931F92CDB7DEB76983BE016F5F7F4F89
:1014E0000E9418070F90DF91CF910895EF92FF921D
:1014F0001F93CF93DF93EC01162F7A010E945E0AAF
:1015000060E4CE010E94670AE885F9859701412FC2
:1015100067E1CE010995CE01DF91CF911F91FF9038
:10152000EF900C94550AEF92FF921F93CF93DF93A5
:10153000EC01142F7901663181F138F4643109F43A
:101540004BC0653179F080E022C06831C9F150F1BB
:101550006931C9F78091B902882391F1CE010E94C7
:10156000550A2EC08091B902882319F0CE010E943D
:10157000550ACE010E945E0A60E0CE010E94670A11
:10158000612FCE010E94670A81E08093B902DF914A
:10159000CF911F91FF90EF900895642F0E94670AEA
:1015A00081E0F5CF8091B902882319F0CE010E9425
:1015B000550AA701193138F4612FCE010E94760A2D
:1015C0001092B902EDCF68E1CE010E94760A18515F
:1015D00088E1E80EF11CEDCF8E898F3F11F488E78A
:1015E0008E8BE885F9859701412F64E1CE01DF916B
:1015F000CF911F91FF90EF9009940F93FC01E05C55
:10160000FF4F0190F081E02D4E1B5F0BDC01D49663
:10161000ED91FC9109950F910895CF93DF93FC0113
:10162000A081B18182AD90E09C0143E0220F331F85
:101630004A95E1F737AF26AF50962C91509748E086
:10164000249F9001112435AF24AF23AD30E0B901C0
:1016500053E0660F771F5A95E1F7EF01C05CDF4F4B
:101660007983688351964C915197E901C80FD91F2E
:1016700050E04C175D0718F4CA01821B930BEF0171
:10168000CE5BDF4F79836883229623E0880F991F12
:101690002A95E1F7860F971F99838883229654969F
:1016A0008D919C91559799838883E85BFF4F56965F
:1016B0008D919C9191838083DF91CF9108950F93B9
:1016C0001F93FC01E25BFF4F0190F081E02DDC01F4
:1016D000A05BBF4F0D90BC91A02D4A175B0740F453
:1016E000E017F10748F00417150730F080E019C043
:1016F000E017F107C0F3FACFFC01E65BFF4F408132
:101700005181845B9F4FFC0180819181681779072B
:1017100058F481E04217530720F081E0261737077D
:1017200028F71F910F91089542175307B0F3DECFAA
:101730002F923F924F925F926F927F928F929F92E1
:10174000AF92BF92CF92DF92EF92FF920F931F93CF
:10175000CF93DF93CDB7DEB72A970FB6F894DEBFED
:101760000FBECDBF9A878987865B9F4F9A838983F7
:10177000FC0111821082E985FA85EA5BFF4F408007
:10178000518029853A85245B3F4F3C832B83F901A7
:1017900051824082E985FA85EE5BFF4F20803180DF
:1017A00029853A85225B3F4F3E832D83F9013182A3
:1017B0002082E985FA85EC5BFF4F60807180298586
:1017C0003A85205B3F4F38872F83F9017182608211
:1017D000E985FA85E85AFF4FE080F180E985FA85CE
:1017E000EC5AFF4FA080B180E985FA85EA5AFF4F95
:1017F000C080D180E985FA85EE5AFF4F80809180C4
:1018000087019501A601B40189859A850E945F0B25
:1018100029853A852C573F4F3A87298781111BC06C
:10182000F90110822A960FB6F894DEBF0FBECDBF25
:10183000DF91CF911F910F91FF90EF90DF90CF90AC
:10184000BF90AF909F908F907F906F905F904F90E0
:101850003F902F90089581E0E985FA858083811477
:10186000910421F0E981FA8191828082A414B50467
:1018700020F4EB81FC81B182A0822C143D0420F481
:10188000ED81FE81D182C082E614F70458F6EF8123
:10189000F885F182E082C6CF0F93CF93DF93E02FDC
:1018A000DC01AC57BF4FFC91FF2309F460C0211548
:1018B000310509F45CC02230310538F0023009F0FE
:1018C0004AC06F5F7F4F621B730B0E2F0170E0FDEC
:1018D00052C0FC01E25BFF4F0190F081E02D4E17FA
:1018E0005F0708F444C0FC01E05BFF4F0190F0810A
:1018F000E02D4E175F07D8F5FC01E45BFF4F019028
:10190000F081E02DDC01A65BBF4F0D90BC91A02DB6
:10191000260F371F2617370738F56E177F0718F57C
:101920009F0121503109A217B30708F56A177B07F9
:1019300008F4BD012E173F0708F4F901E61BF70B69
:10194000EC01AEA9BFA914960D90BC91A02D9F01EA
:10195000FD0109950CC0033009F0B7CF4F5F5F4F11
:10196000421B530BB2CFBD016E177F07E0F2DF9130
:10197000CF910F910895FC01E65BFF4F0190F0813C
:10198000E02D6E177F0798F3FC01E45BFF4F019099
:10199000F081E02D6E177F0750F7FC01E05BFF4FF1
:1019A0000190F081E02DDC01A25BBF4F0D90BC9156
:1019B000A02D240F351F24173507A8F44E175F07F5
:1019C00088F49F0121503109A217B30780F64A1706
:1019D0005B0708F4AD012E173F0708F4F901E41B7B
:1019E000F50BAECFAD014E175F0708F6EDCFAF9206
:1019F000BF92CF92DF92EF92FF920F931F93CF93FC
:101A0000DF936C01EB015A017B01E20EF31E9C0196
:101A1000240F351F8701AB01BC018FE897E00E94BE
:101A20005F0B811114C0DF91CF911F910F91FF9037
:101A3000EF90DF90CF90BF90AF90089500E09501B8
:101A4000AE01B6018FE897E00E944C0C2196EC168F
:101A5000FD06A1F7E8CF213069F038F0223079F0A7
:101A6000840F911D47FD9A950895860F911D67FD7E
:101A70009A950895841B910947FD93950895861BB7
:101A8000910967FD93950895213069F038F022306F
:101A900079F0861B910967FD93950895840F911D38
:101AA00047FD9A950895860F911D67FD9A950895B3
:101AB000841B910947FD939508953F924F925F9241
:101AC0006F927F928F929F92AF92BF92CF92DF924E
:101AD000EF92FF920F931F93CF93DF937C01162F0A
:101AE000442EEC01C25ADF4F5E806F806C018AE8A1
:101AF000C80ED11C78847518312E711608F4372C55
:101B00008C809D800E85202F462D652D8A819B819E
:101B10000E942B0D5C01202F462D652DC4010E94D3
:101B2000440DAC01442079F08C85F6018083232D8F
:101B300030E0B501C7010E944C0C171548F0171989
:101B40006394512CD7CF8B858111F7CF8D85EDCF45
:101B5000150D1E836F82DF91CF911F910F91FF9022
:101B6000EF90DF90CF90BF90AF909F908F907F903D
:101B70006F905F904F903F900895DC011A964C91C2
:101B80001A97ED91FC911197249130E0042E02C038
:101B9000359527950A94E2F7842F860F883068F0F0
:101BA00031961196FC93EE93E49198E0941B01C05A
:101BB000EE0F9A95EAF72E2B88501A968C938FEF9A
:101BC0009FEF01C0880F6A95EAF7809582230895F8
:101BD000FC01E60FF11D849190E0982F8827319643
:101BE000E4918E0F911D0895CF93DF932091E90723
:101BF0003091EA072817390709F490C0EC01909357
:101C0000EA078093E907FC0184918093FC073196F1
:101C1000E491E093FD07FE013296E491E093FE0724
:101C2000FE013396E491E093FF07FE013496E491C0
:101C3000E0930008FE013596E491E0930108FE016F
:101C40003696E491E0930208FE013796E491E09322
:101C50000308FE013896E491E0930408FE013996EA
:101C6000E491E0930508FE013A96E491E0930608BA
:101C7000FE013B96E491E0930708FE013C96E49157
:101C8000E0930808FE013D96E491E0930908FE0107
:101C90003E96E491E0930A08FE013F96E491E093BA
:101CA0000B08FE017096E491E0930C0861E1CE010F
:101CB0000E94E80D90930E0880930D0863E1CE0119
:101CC0000E94E80D9093100880930F0865E1CE0103
:101CD0000E94E80D90931208809311088091E90703
:101CE0009091EA07892BD1F080910908809315081B
:101CF00040910A084093160890911408992371F0B6
:101D0000913079F490910B08891714F49093150889
:101D100080910C08841714F480931608DF91CF91FA
:101D200008953091060820910808082E000C990BA0
:101D3000622F022E000C770B630F711D37FD7A9511
:101D4000861797071CF4320F30931508241734F7C1
:101D500020931608E3CFAF92BF92CF92DF92EF921B
:101D6000FF920F931F93CF93DF9300D000D01F9269
:101D7000CDB7DEB78C01DC01DA96AC90DA97DB9652
:101D8000EC90DB97ED91FC91B188FE2CD12CC12C0D
:101D9000D801ED91FC9111978089D8962D913C91B5
:101DA0001C82FD828B83B8E08B9FC00111248C9D27
:101DB000A0018D9D500D9C9D500D1124240F351FA9
:101DC0003A832983D8011496ED91FC919E012F5FEF
:101DD0003F4F41E06FE0C8010995F3948F2D8E19B4
:101DE0008A1528F4BFEFCB1ADB0AFB1488F20F9098
:101DF0000F900F900F900F90DF91CF911F910F9147
:101E0000FF90EF90DF90CF90BF90AF9008958FE854
:101E100097E00E94AB0E8FE897E00C941E09CF92DA
:101E2000DF92EF92FF920F931F93CF93DF93EC011A
:101E3000962F683109F44BC0B901993130F49431CF
:101E4000C9F0973189F080E006C0993109F461C08A
:101E50009032C9F781E0DF91CF911F910F91FF90F0
:101E6000EF90DF90CF90089550E08FE793E00E94CD
:101E7000BB08F0CF8C859D85AE85BF85892B8A2BCD
:101E80008B2B71F4E881F981A585B0E020EA36E872
:101E900041E050E00E94861A6C877D878E879F877D
:101EA0001092FC021092FB021092FE021092FD02B0
:101EB0000E9450088FE898E09093260380932503B2
:101EC00080E998E090932A0380932903C3CF2C855F
:101ED0003D854E855F8560E074E284EF90E00E946E
:101EE000911A205131094109510956954795379565
:101EF00027952093B8008E8990E09595879591E07D
:101F00009093DA028093B8021092FE021092FD02C2
:101F1000A1CFD091FD02D13208F093C0C091B80298
:101F20000E94D1076B017C0180914D03811164C037
:101F300082E080934D0381E080934F038FEF809385
:101F40004C0310927103D0937003AAEBB2E0E0E56A
:101F5000F3E080E0D8137CC010927203809172038A
:101F6000CC0FC82BC093720380914E03813009F0CF
:101F700073C010924E030E94D1076B017C018091C7
:101F800072038093BB008091000390910103A091A4
:101F90000203B0910303892B8A2B8B2B99F00E94AB
:101FA000D1070091000310910103209102033091A9
:101FB00003036C197D098E099F0906171707280767
:101FC0003907D8F18091BC0083FDD9CF85EC80938F
:101FD000BC000E94D1076B017C0180914D038230CF
:101FE000E9F180914C038F3F61F180914C03803285
:101FF00041F180914C0325C0809100039091010331
:10200000A0910203B0910303892B8A2B8B2B09F437
:102010008BCF0E94D1070091000310910103209102
:102020000203309103036C197D098E099F0906177D
:1020300017072807390708F077CF8091FF020E9421
:102040006E081092FE021092FD021092DA0202CF88
:102050009D9191938F5F7ECF85EEB9CF80910003E4
:1020600090910103A0910203B0910303892B8A2B65
:102070008B2B09F4B2CF0E94D1070091000310917D
:10208000010320910203309103036C197D098E092D
:102090009F09061717072807390708F09ECFCDCFED
:1020A0000F931F93CF93DF938C01C62F642FCC32F5
:1020B000E8F4CA3208F041C0C83271F1C93209F4FB
:1020C00042C080E0C034D0F1CF73F801EC0FF11DB5
:1020D000868D8F3F91F1C031E0F00E94490721E0E9
:1020E000892B09F420E0F801218F27C0CD3289F136
:1020F00040F384EB8C0F823020F7CF73C00FD12FC9
:10210000D11D8E8D411133C061E00E94A00760E0B7
:102110008E8D0E94720711C0025E1F4FD0E0F80141
:1021200081918F018F3F31F061E0D03108F062E0A2
:102130000E94A007DF5FD63191F781E0DF91CF9158
:102140001F910F91089570E090E080E00E94F607E3
:10215000F4CF85E090E0433010F082E090E0880F0B
:10216000991F880F991F05970197F1F7E6CF62E055
:102170000E94A007E2CF8091870161E0833019F0CF
:10218000823061F460E088E20E94720761E089E2D7
:102190000E94720761E08AE20C947207813031F488
:1021A00060E088E20E94720760E0F1CF81110AC00E
:1021B00060E088E20E94720760E089E20E94720794
:1021C00060E0E9CF089560E08EE10E94720761E06F
:1021D0008FE10E94720761E080E20E94720760E076
:1021E00081E20E94720760E082E20E94720760E072
:1021F00083E20E94720760E084E20E94720768EE48
:1022000073E080E090E00C94F60761E08EE10E94BC
:10221000720761E08FE10E94720761E080E20E9434
:10222000720761E081E20E94720761E082E20E942F
:10223000720761E083E20E94720760E084E20E941C
:10224000720768EE73E080E090E00C94F607CF929E
:10225000DF92EF92FF920F931F93CF93DF936C0166
:10226000EB017B01E40EF51E10E000E0CE15DF056A
:1022700061F06991D601ED91FC910190F081E02D22
:10228000C6010995080F191FF1CFC801DF91CF9141
:102290001F910F91FF90EF90DF90CF9008952F92B4
:1022A0003F924F925F926F927F928F929F92AF92E6
:1022B000BF92CF92DF92EF92FF920F931F93CF9333
:1022C000DF93CDB7DEB728970FB6F894DEBF0FBE09
:1022D000CDBF7C016C0124E0C20ED11CFC01E05793
:1022E000FF4F0190F081E02DC60109958C018E3FD2
:1022F0009F4F08F061C0370184E9680E711CF3013B
:102300000190F081E02DFD83EC835701F2E9AF0EDF
:10231000B11CF50180809180970120593F4F3B838C
:102320002A83F9018081813009F470C008F45FC00C
:10233000823009F476C0833009F482C0F701EC5989
:10234000FF4F9182808232962C813D8131832083A0
:1023500038978081918147969D838C830F3F11052B
:1023600011F008F020C1B6960136110530F40134A1
:10237000110558F0F701EE57FF4F808191812C81B4
:102380003D81280F391F3D832C838C819D810196CF
:10239000FC01249121115FC090E080E0EA81FB8183
:1023A0002081213009F4C1C108F4B7C1223009F4F9
:1023B000BEC1233009F4C3C181E090E028960FB676
:1023C000F894DEBF0FBECDBFDF91CF911F910F916B
:1023D000FF90EF90DF90CF90BF90AF909F908F9045
:1023E0007F906F905F904F903F902F900895F701EE
:1023F000E05AFF4F0190F081E02DC60109952C8134
:102400003D81280F391F3D832C8398CFF701E05A77
:10241000FF4F0190F081E02DC6010995881A990AB5
:102420008DCFF701E05AFF4F0190F081E02DC601FA
:102430000995EC81FD81E81BF90BFD83EC837ECFD0
:10244000F701E05AFF4F0190F081E02DC601099598
:10245000880E991E73CFEC81FD81249120171106FF
:1024600009F09AC0CF010296009709F495CFF701C1
:10247000EE59FF4FF887EF8391838083128673961E
:1024800060818F8198850E94BD0DEF81F8858087DE
:10249000F701EA58FF4F60818F8198850E94BD0D3A
:1024A000582EEF81F8858187970122573F4F3D8352
:1024B0002C83F9019081EF81F885948781E0911157
:1024C00080E0EF81F8858587F701E958FF4F80802C
:1024D000682D8F8198850E94BD0D382EF701E85830
:1024E000FF4F2080622D8F8198850E94BD0D982E10
:1024F000F701E758FF4F1081612F8F8198850E9467
:10250000BD0D9FEF910F01E010E0980101C0220F77
:102510009A95EAF7821B8E83EF81F8854084141424
:102520000CF0C4C08A94C80101C0880F8A94EAF7ED
:10253000381AF685F983950C2A94C80101C0880FD2
:102540002A94EAF7282E29182F2F422D632DEF8188
:10255000F885828193810E942B0D4C01EF81F885D3
:10256000938382832981422D632D848195810E94EA
:10257000440DEF81F88595838483F981F13009F466
:102580009AC008F44EC0F23009F4A4C0F33009F444
:10259000B5C0BC0194014FC0FC0184912C813D81E8
:1025A000280F311DF0CEF701EA57FF4F808191814E
:1025B000EC81FD81E80FF91FFD83EC834F0160E0A2
:1025C000C4010E94E80D2C813D81280F391F3D83F5
:1025D0002C8362E0C4010E94E80D34E0830E911C5C
:1025E0008017910760F3EC81FD81849190E0982F32
:1025F00088273196E4918E2B009709F4CDCE0817E9
:10260000190721F48C819D8103962ECFEC81FD81E9
:102610003296E4912C813D812E0F311D3D832C8318
:10262000E2CF9401240D311D47FC3A95BC01650DA4
:10263000711D57FC7A958B01AC01B401C6010E9453
:102640005F0B882399F1EF81F88516821782470185
:10265000F3E78F0E911C24E7E20EF11CF401608178
:102660008F8198850E94BD0D082FF70160818F81B1
:1026700098850E94BD0D182F40E0602FC6010E9472
:102680005D0D41E0612FC6010E945D0D61E08F810B
:1026900098850E94BD0D8111EFCFEF81F88587816C
:1026A0008515E4F28485EC81FD818083FE818F2F86
:1026B000FF0F990B73CE0519110957FC139594015F
:1026C0002F5F3F4FBC01640D711D47FC7A95800E52
:1026D000911EB1CFA8014419510947FC53959401AB
:1026E0002F5F3F4F0519110957FC1395BC016F5F10
:1026F0007F4F800F911F840E951E9DCF9401250D55
:10270000311D57FC3A950419110947FC1395BC017A
:102710006F5F7F4F800F911F8ECFF5012081318138
:10272000820F931F9183808347CEF301F7CFF5018A
:1027300020813181281B390B318320833DCEF30169
:10274000F7CF089590E080E008958F929F92AF9226
:10275000BF920F931F93CF93DF93CDB7DEB7A197AF
:102760000FB6F894DEBF0FBECDBF19A2423008F4F9
:102770004AE08E010F5D1F4F842E912CB12CA12CAD
:10278000A50194010E94911AE62FB901CA01EA300D
:1027900044F5E05DD801EE938D01232B242B252BEE
:1027A00079F790E080E0109769F0FD01019000203A
:1027B000E9F73197AF014A1B5B0BBD018BE897E04E
:1027C0000E942711A1960FB6F894DEBF0FBECDBFB1
:1027D000DF91CF911F910F91BF90AF909F908F90FD
:1027E0000895E95CD7CFFC0101900020E9F731970B
:1027F000AF01481B590BBC018BE897E00C942711E3
:1028000085ED8093BC008091000390910103A0911D
:102810000203B09103030796A11DB11D23E0B695F5
:10282000A795979587952A95D1F72091BC0024FD0F
:1028300003C010924D03089540910003509101038D
:102840006091020370910303452B462B472B69F3DC
:102850000097A105B10541F02AE22A95F1F700C0E1
:102860000197A109B109E1CF8091FF020C946E0894
:10287000FC01A081B18150962C9182AD38E0839FFC
:10288000C0011124289FA001299F500D112470E040
:1028900060E080AD91AD0C94CF1A0F931F93CF934E
:1028A0008C01C62F8FE897E00E94381480E998E0E9
:1028B0000E94F40D10921E0810921D086C2F70E0FB
:1028C000665F7F4F7093200860931F08C8010E94C5
:1028D000F313CF911F910F910C94070F1F920F923A
:1028E0000FB60F9211242F933F938F939F93AF9323
:1028F000BF938091770390917803A0917903B09171
:102900007A033091760323E0230F2D3758F5019693
:10291000A11DB11D209376038093770390937803D4
:10292000A0937903B0937A0380917B0390917C0309
:10293000A0917D03B0917E030196A11DB11D8093EE
:102940007B0390937C03A0937D03B0937E03BF91A0
:10295000AF919F918F913F912F910F900FBE0F904C
:102960001F90189526E8230F0296A11DB11DD2CF06
:102970001F920F920FB60F9211242F933F934F93F4
:102980005F936F937F938F939F93AF93BF93EF93D7
:10299000FF938091B900887F803609F44AC0F0F532
:1029A000883209F4A7C018F5803109F49BC0B8F447
:1029B000882309F4F9C0883009F494C0FF91EF919D
:1029C000BF91AF919F918F917F916F915F914F9147
:1029D0003F912F910F900FBE0F901F901895883147
:1029E00009F488C0803251F780934C0314C08034BE
:1029F00009F49DC040F48033B9F38833F9F680932D
:102A00004C0385ECB0C0803509F485C0883509F4E5
:102A100096C0883499F60E940014D0CF883909F402
:102A20008CC038F5883729F050F4883611F080379B
:102A300029F683E080934D0310924B0357C08838EA
:102A400009F47BC0803919F0803809F0B7CF809144
:102A50004B03803208F071C0E0914B0381E08E0F90
:102A600080934B038091BB00F0E0E55DFC4F8083D9
:102A70003DC0803B39F0E0F4803A09F479C0883AEF
:102A800009F09CCF84E080934D03109228031092AC
:102A90002703E0912503F0912603099580912703F0
:102AA00081110FC081E0809327031092050309C0B4
:102AB000803C09F4A6CF883C09F4A3CF883B09F0F9
:102AC0007DCFE091280381E08E0F80932803F0E012
:102AD000EB5FFC4F80818093BB0090912803809135
:102AE000270329C0809172038093BB0085EC8093FB
:102AF000BC0064CF9091710380917003981758F5D2
:102B0000E091710381E08E0F80937103F0E0E05B50
:102B1000FC4F8081E9CFE091710381E08E0F8093BB
:102B200071038091BB00F0E0E05BFC4F80839091EB
:102B30007103809170039817C8F285E8D8CFE091AF
:102B4000710381E08E0F809371038091BB00F0E0F0
:102B5000E05BFC4F808380914F0381115CCF81E06B
:102B600080934E0384EA8093BC0010924D0326CFDD
:102B700085EC8093BC0010924D0380914B03803212
:102B800030F4E0914B03F0E0E55DFC4F1082609182
:102B90004B0370E0E0912903F0912A038BE293E06C
:102BA000099510924B030ACF10924C0334CFCF9368
:102BB000109282031092810388EE93E0A0E0B0E0CF
:102BC0008093830390938403A0938503B09386033B
:102BD00081E392E09093800380937F0310928E07AD
:102BE00010928D0785E896E090931C0880931B084F
:102BF00010921E0810921D081092200810921F08B3
:102C00001092A70783E492E090938C0780938B0740
:102C10001092900710928F071092A40710929B07B2
:102C200010929C0710929D0710929E078FEF809341
:102C3000A5078093A907EDEAF7E083EC97E0CFEFD3
:102C4000C1938E179F07E1F78EE999E0909394075F
:102C50008093930783E99AE0909396078093950772
:102C60008FE09FE0909398078093970780E590E12D
:102C700090939A078093990730E020E040E069E064
:102C80008FE897E00E949E091092EA071092E907E8
:102C90008FE896E09093C4078093C3078BE893E096
:102CA0009093C8078093C70788E08093C907109264
:102CB000CA071092F807109218081092140881E0C1
:102CC0008093190880931A088BE492E09093C607CA
:102CD0008093C5078FE897E00E940D0B1092E207E2
:102CE0001092E1071092E6071092E5078FEF9FEF31
:102CF0009093E4078093E3079093E8078093E707B6
:102D0000E091C507F091C6070280F381E02D8FE8BE
:102D100097E009958EEF96E09093EC078093EB0790
:102D20001092FB07C093B807C093B907C093BA07C6
:102D3000CF910895789484B5826084BD84B5816014
:102D400084BD85B5826085BD85B5816085BD809176
:102D50006E00816080936E001092810080918100EE
:102D600082608093810080918100816080938100E6
:102D7000809180008160809380008091B1008460A8
:102D80008093B1008091B00081608093B000809109
:102D90007A00846080937A0080917A0082608093C8
:102DA0007A0080917A00816080937A0080917A0025
:102DB000806880937A001092C100E0919307F091AF
:102DC000940730E020E040E06AE08FE897E0099562
:102DD00080911A08882321F08FE897E00E94381428
:102DE00080E00E9401078FE897E00E94AB0EC0913F
:102DF000CA078091C907C80FE0918F07F09190072B
:102E00008189C81708F4C9C18FE897E00E941E099C
:102E100080E00E940107E0919307F091940730E071
:102E200020E040E06BE08FE897E0099561E08EE1FB
:102E30000E94A00761E08FE10E94A00761E080E2AC
:102E40000E94A00761E081E20E94A00761E082E2A7
:102E50000E94A00761E083E20E94A00761E084E293
:102E60000E94A00761E088E20E94A00761E089E279
:102E70000E94A00761E08AE20E94A00762E087E169
:102E80000E94A00762E088E10E94A00762E086E15C
:102E90000E94A00761E088E20E94720761E089E277
:102EA0000E94720761E08AE20E9472070E94051187
:102EB000FAE02F2E312CA6E4CA2EA1E0DA2EB8ECCF
:102EC0008B2E912C44244A94C3E05C2E612C712CEF
:102ED0000E94BB108FE897E00E94381488E690E0CB
:102EE0000E94F40D30921E0820921D0884E190E0AB
:102EF0009093200880931F0881E592E00E94F313CD
:102F000030921E0820921D08E8E2F0E0F0932008BD
:102F1000E0931F0887E592E00E94F3138091750308
:102F2000811145C184E190E010921E0810921D08A5
:102F30009093200880931F088CE592E00E94F31381
:102F40000E94070F87E10E944907892B69F481E0FD
:102F500090917503911180E08093750368EC70E0A7
:102F600080E090E00E94F60788E10E944907892BE3
:102F700069F481E090917503911180E0809375036D
:102F800068EC70E080E090E00E94F60786E10E9425
:102F90004907892B09F059C28091750381117BC2C1
:102FA00078ECF72EE0E4EE2E80918701882309F477
:102FB000EDC1C6E0D1E08A819B818134910584F521
:102FC000C597CCF0288139818091020190E02817C3
:102FD00039078CF08896821793076CF09B828A825F
:102FE0009982888280918701833028F48F5F809353
:102FF00087010E94BB108FE897E00E9438146A8115
:103000007B8122E030E042E050E0888199810E949B
:10301000F70C8A819B8101969B838A830E94070F0C
:103020002496CC16DD0639F68091860181508930D0
:1030300008F09DC18FE897E00E9438140E94070FA6
:10304000C6E4D1E08E01F801238130E0428150E0F6
:10305000618170E0808190E00E94F70C0C5F1F4F4F
:1030600086E891E08017910771F70E94070F8FE8BB
:1030700097E00E9438146091030170E08091040190
:1030800023E030E043E050E090E00E94F70C0E9423
:10309000070F2091010180910401820F80930401A8
:1030A000B0900001909103019B0D9093030181501A
:1030B0008E3718F021952093010191117BC0B194B6
:1030C000B0920001A0900301B12CF50133969091CC
:1030D0000401492F50E0E633F10574F080910201BC
:1030E000981750F090E08896841795072CF08091FF
:1030F0000001819580930001DA011396288130E068
:10310000A217B3070CF4BBC18A81820F932F911DC4
:10311000841795070CF4B3C1898190E0E817F9078B
:103120000CF4ADC16B81680F792F711D6A157B0599
:103130000CF4A5C1F882F9824091000141954093B9
:1031400000014091730350917403FA01EE0FFF1FC9
:10315000EE0FFF1FEA5FFE4F31832083938382834C
:103160004F5F5F4F5093740340937303E0910501E9
:10317000EA3008F07EC1E150E93008F0C4C0F0E068
:10318000EC53F74E0C94C21A3C1AFF1819192B195C
:103190003D194B1961192D1A331A80911A08882389
:1031A00021F08FE897E00E9438148C2F1ACE88E225
:1031B00090E0BACE9F3308F485CF8091870181508B
:1031C00080938701823041F40E94BB10E092040199
:1031D00090E39093030173CF813041F40E94BB10C0
:1031E000E0920401E0E3E093030169CF81116ACF2B
:1031F0000E94BB10F0920401F092030163CF61E0E2
:103200008EE10E94720761E08FE10E94720760E028
:1032100080E20E94720761E081E20E94720761E031
:1032200082E20E94720760E083E20E94720761E01E
:1032300061C061E08EE10E94720761E08FE10E944F
:10324000720761E080E20E94720761E081E20E9401
:10325000720760E0E5CF60E08EE10E94720761E0F6
:103260008FE10E94720761E080E20E94720760E0D5
:1032700081E20E94720760E01FC061E08EE10E945F
:10328000720760E08FE10E94720761E080E20E94B5
:10329000720761E0EDCF61E08EE10E94720760E0AD
:1032A0008FE10E94720761E080E20E94720761E094
:1032B00081E20E94720761E082E20E94720761E08F
:1032C000B3CF61E08EE10E94720761E08FE10E945E
:1032D000720761E080E20E94720760E081E20E9472
:1032E000720760E082E20E94720760E083E20E945F
:1032F000720760E084E20E94720768EE73E080E08B
:1033000090E00E94F607809105018F5F8093050190
:10331000809186018F5F8093860181E480937C0099
:1033200080917A00806480937A0080917A0086FD93
:10333000FCCFA0917800B091790028E530E00E94A0
:10334000C81AA30192010E94671AE9018FE897E069
:103350000E94381423E030E048E250E066E370E079
:10336000CE010E94F70C0E94070FC09302018091CA
:103370008701811119CE6EE18EE592E00E944D1415
:1033800060ED77E080E090E00E94F6078FE897E03C
:103390000E94381480E998E00E94F40D10921E08F3
:1033A00010921D08EEE1F0E0F0932008E0931F0872
:1033B000609186016150770B6F3F760709F065C019
:1033C0006DE28BE897E00E944F114AE061E070E007
:1033D00080E090E00E94A5130E94070F68EB7BE05D
:1033E00080E090E00E94F6078FE897E00E94381492
:1033F000EDEEF1E0A6E4B1E08DE292E020812C93C5
:10340000218111962C931197349614968E179F074D
:10341000A9F7E6E0F1E0918280829382828234967D
:10342000CE16DF06C1F70E94070F0E94051183E048
:103430008093870181E0809305018093860180E479
:103440008093040180E38093030180E090E0892B66
:1034500009F43ECD0E9400003BCD61E08EE10E9468
:10346000720761E01DCF61E08EE10E94720761E0AA
:1034700009CFF1E0F09305010E94E31044CF2496B8
:103480000C171D0709F03ACE48CF072E000C880B09
:10349000990B4AE09FCF65E088E692E00E944D14C8
:1034A00060ED77E080E090E00E94F6076EE18BE748
:1034B00092E00E944D1460ED77E080E090E00E9481
:1034C000F60768E280E992E00E944D14FFCF052ED6
:1034D00097FB1EF400940E947E1A57FD07D00E94AD
:1034E000911A07FC03D04EF40C947E1A5095409527
:1034F000309521953F4F4F4F5F4F089590958095A0
:10350000709561957F4F8F4F9F4F08950E94B31A1A
:10351000A59F900DB49F900DA49F800D911D112427
:103520000895A1E21A2EAA1BBB1BFD010DC0AA1F04
:10353000BB1FEE1FFF1FA217B307E407F50720F01C
:10354000A21BB30BE40BF50B661F771F881F991F97
:103550001A9469F760957095809590959B01AC01E0
:10356000BD01CF010895A29FB001B39FC001A39FE9
:10357000700D811D1124911DB29F700D811D1124AC
:10358000911D0895EE0FFF1F0590F491E02D099411
:103590000E94B31AB7FF0895821B930B0895DC01B4
:1035A00001C06D9341505040E0F70895F894FFCF6B
:1035B000FF013B304001C800C800C800C800C80077
:1035C000C800C800C800C800C800C800C800C800BB
:1035D000C800C800C800C800C800C800C800C800AB
:1035E000C800C800C800C800C800C800C800C8009B
:1035F000C800C800C800020210031402100326020B
:103600001003380210034A0210035C0210036E021A
:1036100010031407100326071003380710034A0786
:1036200010035C071003260C1003380C10034A0C1F
:1036300010033811100301031815A015C019FF1845
:1036400015A115C819FF1815AE19FF1815AF19FFE8
:103650001815AE15D5168015A8163F15D3160015EA
:1036600040158D16141520160015A115C815DA166B
:1036700012158116CF15D916F115DB1640152E152A
:10368000A415A619FF0001140A6464323200127AEC
:10369000000004289610080000800040000202107C
:1036A000031402100326021003380210034A02100A
:1036B000035C0210036E02100314071003260710A8
:1036C00003380710034A0710035C071003260C1089
:1036D00003380C10034A0C100338111003000000CB
:1036E00000E808BB08A2139108B408A108920800DA
:1036F0000000004F112711A213A1130D0B980BFD11
:103700000A53746172740045786974003E00476121
:103710006D65204F766572005468616E6B20796F1D
:103720007520666F7220796F757200696E746572AC
:1037300065737420696E206F75722067616D650016
:043740004242000001
:00000001FF
