:100000000C9462000C948A000C948A000C948A0070
:100010000C948A000C948A000C948A000C948A0038
:100020000C948A000C948A000C948A000C948A0028
:100030000C948A000C948A000C948A000C948A0018
:100040000C945A0D0C948A000C948A000C948A002B
:100050000C948A000C948A000C948A000C948A00F8
:100060000C94A40D0C948A000000000023002600CC
:10007000290000000000240027002A0000000000E2
:10008000250028002B0004040404040404040202D4
:100090000202020203030303030301020408102007
:1000A0004080010204081020010204081020000012
:1000B0000008000201000003040700000000000027
:1000C0000000C30E11241FBECFEFD8E0DEBFCDBFAE
:1000D00012E0A0E0B1E0E6E2F3E202C005900D928A
:1000E000A431B107D9F727E0A4E1B2E001C01D9225
:1000F000AE39B207E1F710E0C2E6D0E004C02197C4
:10010000FE010E948411C136D107C9F70E94860FF3
:100110000C9491110C940000662329F06A3019F0B8
:10012000862F90E008958FEF9FEF0895AF92BF92D2
:10013000CF92DF92EF92FF920F93CF93DF93EC0178
:10014000DA017901942F9770E1E0F0E09F01092E28
:1001500001C0220F0A94EAF7522F6E018AE8C80EF6
:10016000D11CF601808140E0823018F4422F8130AA
:1001700049F15D01F8EFAF22E8ADF9AD2881398191
:10018000D90150968C918A9D90018B9D300D112440
:10019000620F731FDF01A60FB71F01111AC0EA0E0D
:1001A000FB1E8C91842B85278D93AE15BF05C9F757
:1001B000DF91CF910F91FF90EF90DF90CF90BF90A4
:1001C000AF90089550E0D5CF440F550FE114F104DE
:1001D00079F33C91342B35273C939F5F9770E1E096
:1001E000EE1AF1089111F0CF2CAD3DADA20FB31F67
:1001F000F6018081823028F4813009F051E041E03D
:10020000E5CF51E0E3CF80E0089590E080E00895ED
:10021000CF93DF93C8E0D7E08FAFEAADFBAD01909D
:10022000F081E02D8CE097E00995EAADFBAD02800E
:10023000F381E02D8CE097E0DF91CF9109949B0151
:10024000DC011896ED91FC9141E067E1099483305F
:1002500081F028F4813099F08230A9F00895873038
:10026000A9F08830C9F08430B1F4809180008F7D8E
:1002700003C0809180008F7780938000089584B5BB
:100280008F7784BD089584B58F7DFBCF8091B000BA
:100290008F778093B00008958091B0008F7DF9CF63
:1002A0001F93CF93DF93282F30E0F901E255FF4FE2
:1002B0008491F901E656FF4FD491F901EA57FF4FB7
:1002C000C491CC23A9F0162F81110E942701EC2F95
:1002D000F0E0EE0FFF1FE458FF4FA591B4918FB7E8
:1002E000F894EC91111108C0D095DE23DC938FBFF8
:1002F000DF91CF911F910895DE2BF8CFCF93DF933D
:1003000090E0FC01E656FF4F24918A579F4FFC0175
:1003100084918823D1F090E0880F991FFC01EE585A
:10032000FF4FA591B491FC01E458FF4FC591D491C2
:10033000623071F49FB7F8943C91822F80958323AB
:100340008C93E8812E2B28839FBFDF91CF91089556
:100350008FB7F894EC912E2B2C938FBFF6CF3FB72D
:10036000F8948091F8029091F902A091FA02B0916C
:10037000FB0226B5A89B05C02F3F19F00196A11DD1
:10038000B11D3FBFBA2FA92F982F8827BC01CD01DF
:10039000620F711D811D911D42E0660F771F881F3E
:1003A000991F4A95D1F708958F929F92AF92BF926D
:1003B000CF92DF92EF92FF926B017C010E94AF011E
:1003C0004B015C01C114D104E104F104B9F00E94B5
:1003D000AF01681979098A099B09683E7340810554
:1003E000910580F321E0C21AD108E108F10888EEF6
:1003F000880E83E0981EA11CB11CE4CFFF90EF9003
:10040000DF90CF90BF90AF909F908F9008952091F4
:10041000A702260F3327331F21323105ECF4209138
:10042000CD02FC0190E080E0243069F082E0089584
:10043000A091A7022191AC014B575D4FA40FB52F9E
:10044000B11D2C930196861798F38091A702680F2F
:100450006093A70280E0089581E008951092CD0294
:1004600081E08093CF021092CE0261E082E10E948F
:10047000500161E083E10E945001E9EBF0E08081EE
:100480008E7F808380818D7F808388E48093B80015
:1004900085E48093BC000895CF93DF9391E090931F
:1004A00084028823B9F0C091B800D091BA0080913D
:1004B000BC008A7B8093BC0060E082E10E94500116
:1004C00060E083E10E9450010E942E02D093BA00A6
:1004D000C093B800DF91CF910895089508950895CD
:1004E000E0917C0280917B02E81730F4F0E0E55A5D
:1004F000FD4F808190E008958FEF9FEF08959091D8
:100500007C0280917B022FEF3FEF981748F4E92F90
:10051000F0E0E55AFD4F208130E09F5F90937C0230
:10052000C901089580917B0290917C02891B990BEF
:100530000895CF92DF92EF92FF920F931F93CF9384
:10054000DF937C01CB018A0120915A02222389F09A
:10055000EB016B01C40ED51ECC15DD0569F0699168
:10056000D701ED91FC910190F081E02DC701099533
:10057000F3CF642F0E940702C801DF91CF911F9132
:100580000F91FF90EF90DF90CF900895CF93DF937E
:100590001F92CDB7DEB7698320915A022223F9F06A
:1005A00020917D02203258F021E030E0FC013383BD
:1005B000228390E080E00F90DF91CF9108958091A9
:1005C0007E02E82FF0E0E65CFD4F998190838F5F1B
:1005D00080937E0280937D0281E090E0ECCF61E029
:1005E000CE0101960E940702F7CFDC011A96ED9129
:1005F000FC9130E020E00994DC011496ED91FC912F
:1006000030E020E040E060E10994DC011696ED91D5
:10061000FC9130E020E040E069E10994DC011696AD
:10062000ED91FC9130E020E040E068E109949A010E
:10063000DC011696ED91FC91462F67E10994EF924B
:10064000FF920F931F93CF93DF931F92CDB7DEB727
:100650007C018B01D8016C91673129F150F465312F
:10066000A0F40F90DF91CF911F910F91FF90EF9029
:1006700008956A3118F16E3FA1F7F801418149836D
:1006800069E2C7010E94F5020BC0F801418149836C
:10069000D7011696ED91FC9130E020E0C701099555
:1006A0000E5F1F4FD7CFF80181818983AE014F5F65
:1006B0005F4F61E0C7010E941703F2CF0F5F1F4F2A
:1006C000D7011696ED91FC9130E020E040E0C701A3
:1006D0000995C0CF462FDC011696ED91FC9130E0D4
:1006E00020E066E10994462FDC011696ED91FC911D
:1006F00030E020E065E10994EF92FF920F931F93A1
:10070000CF93DF93EC01042F79016D3009F446C0DB
:1007100050F46B30C9F1693009F49FC06A3009F4B4
:1007200065C080E046C06E3009F452C06F3099F762
:100730000E940E03F7011381110F110F110F6C8925
:10074000160F60E4CE010E947303612F62956F70F3
:100750006061CE010E947303612F6F70CE010E9411
:100760006A03F7016481606BCE010E946A03F7019E
:10077000408151816281660F660F660FCE010E9433
:1007800017030150A1F72EC06DE971E0442311F069
:1007900068E971E0CE010E941F030AC0411110C038
:1007A00061E971E00E941F03E881F98182898C8BE5
:1007B00081E0DF91CF911F910F91FF90EF9008950D
:1007C0006AE871E00E941F03E881F9818389EFCF15
:1007D0000E940E0361E8CE010E947303602FCE01D8
:1007E0000E946A03CE010E940503E2CFEA85FB85E1
:1007F00030E020E040E068E2CE010995EE81FF8123
:1008000030E020E040E064E1CE01099541E06BE496
:10081000CE010E94F502E881F981448169E2CE01AE
:100820000E94F50240E06BE4CE010E94F502E881EF
:10083000F981448169E2CE010E94F50241E06BE456
:10084000CE010E94F502E881F981458169E2CE017D
:100850000E94F50262EA71E09DCF87ED91E09983F5
:1008600088831C8AA5CFDC011896ED91FC9130E0BD
:1008700020E040E069E10994DC011896ED91FC91DB
:1008800030E020E040E068E10994CF93DF931F92CD
:10089000CDB7DEB76983BE016F5F7F4F0E941F0136
:1008A0000F90DF91CF910895EF92FF921F93CF9316
:1008B000DF93EC01162F7A010E943C0460E4CE0124
:1008C0000E944504E885F9859701412F67E1CE0133
:1008D0000995CE01DF91CF911F91FF90EF900C947D
:1008E0003304EF92FF921F93CF93DF93EC01142F09
:1008F0007901663181F138F4643109F44BC0653116
:1009000079F080E022C06831C9F150F16931C9F74E
:1009100080913902882391F1CE010E9433042EC0C8
:1009200080913902882319F0CE010E943304CE0150
:100930000E943C0460E0CE010E944504612FCE017C
:100940000E94450481E080933902DF91CF911F918D
:10095000FF90EF900895642F0E94450481E0F5CF49
:1009600080913902882319F0CE010E943304A70137
:10097000193138F4612FCE010E94540410923902CB
:10098000EDCF68E1CE010E945404185188E1E80ED1
:10099000F11CEDCF8E898F3F11F488E78E8BE885AF
:1009A000F9859701412F64E1CE01DF91CF911F912D
:1009B000FF90EF9009940F93FC01E05CFF4F0190D2
:1009C000F081E02D4E1B5F0BDC01D496ED91FC9184
:1009D00009950F910895CF93DF93FC01A081B18118
:1009E00082AD90E09C0143E0220F331F4A95E1F76E
:1009F00037AF26AF50962C91509748E0249F900136
:100A0000112435AF24AF23AD30E0B90153E0660FB8
:100A1000771F5A95E1F7EF01C05CDF4F7983688358
:100A200051964C915197E901C80FD91F50E04C17CE
:100A30005D0718F4CA01821B930BEF01CE5BDF4FF9
:100A400079836883229623E0880F991F2A95E1F71E
:100A5000860F971F99838883229654968D919C9137
:100A6000559799838883E85BFF4F56968D919C91AB
:100A700091838083DF91CF9108950F931F93FC01A1
:100A8000E25BFF4F0190F081E02DDC01A05BBF4FE6
:100A90000D90BC91A02D4A175B0740F4E017F107B9
:100AA00048F00417150730F080E019C0E017F1078F
:100AB000C0F3FACFFC01E65BFF4F40815181845BBC
:100AC0009F4FFC01808191816817790758F481E07C
:100AD0004217530720F081E02617370728F71F91A8
:100AE0000F91089542175307B0F3DECF2F923F9234
:100AF0004F925F926F927F928F929F92AF92BF922E
:100B0000CF92DF92EF92FF920F931F93CF93DF93D9
:100B1000CDB7DEB72A970FB6F894DEBF0FBECDBFB4
:100B20009A878987865B9F4F9A838983FC0111820C
:100B30001082E985FA85EA5BFF4F40805180298564
:100B40003A85245B3F4F3C832B83F90151824082DD
:100B5000E985FA85EE5BFF4F2080318029853A8553
:100B6000225B3F4F3E832D83F90131822082E9854C
:100B7000FA85EC5BFF4F6080718029853A85205BA8
:100B80003F4F38872F83F90171826082E985FA85AA
:100B9000E85AFF4FE080F180E985FA85EC5AFF4F73
:100BA000A080B180E985FA85EA5AFF4FC080D180E4
:100BB000E985FA85EE5AFF4F808091808701950183
:100BC000A601B40189859A850E943D0529853A854B
:100BD0002C573F4F3A87298781111BC0F90110829A
:100BE0002A960FB6F894DEBF0FBECDBFDF91CF912E
:100BF0001F910F91FF90EF90DF90CF90BF90AF903B
:100C00009F908F907F906F905F904F903F902F902C
:100C1000089581E0E985FA8580838114910421F0AB
:100C2000E981FA8191828082A414B50420F4EB81D9
:100C3000FC81B182A0822C143D0420F4ED81FE8160
:100C4000D182C082E614F70458F6EF81F885F1826C
:100C5000E082C6CF0F93CF93DF93E02FDC01AC5738
:100C6000BF4FFC91FF2309F460C02115310509F441
:100C70005CC02230310538F0023009F04AC06F5FA5
:100C80007F4F621B730B0E2F0170E0FD52C0FC0101
:100C9000E25BFF4F0190F081E02D4E175F0708F4F3
:100CA00044C0FC01E05BFF4F0190F081E02D4E1746
:100CB0005F07D8F5FC01E45BFF4F0190F081E02D68
:100CC000DC01A65BBF4F0D90BC91A02D260F371FF6
:100CD0002617370738F56E177F0718F59F01215043
:100CE0003109A217B30708F56A177B0708F4BD019D
:100CF0002E173F0708F4F901E61BF70BEC01AEA92C
:100D0000BFA914960D90BC91A02D9F01FD010995DE
:100D10000CC0033009F0B7CF4F5F5F4F421B530B3E
:100D2000B2CFBD016E177F07E0F2DF91CF910F9137
:100D30000895FC01E65BFF4F0190F081E02D6E17F6
:100D40007F0798F3FC01E45BFF4F0190F081E02DF9
:100D50006E177F0750F7FC01E05BFF4F0190F081B9
:100D6000E02DDC01A25BBF4F0D90BC91A02D240FA4
:100D7000351F24173507A8F44E175F0788F49F0125
:100D800021503109A217B30780F64A175B0708F410
:100D9000AD012E173F0708F4F901E41BF50BAECFA8
:100DA000AD014E175F0708F6EDCFAF92BF92CF921D
:100DB000DF92EF92FF920F931F93CF93DF936C011B
:100DC000EB015A017B01E20EF31E9C01240F351F3B
:100DD0008701AB01BC018CE097E00E943D058111C9
:100DE00014C0DF91CF911F910F91FF90EF90DF9092
:100DF000CF90BF90AF90089500E09501AE01B6018D
:100E00008CE097E00E942A062196EC16FD06A1F7D9
:100E1000E8CF2F923F924F925F926F927F928F9284
:100E20009F92AF92BF92CF92DF92EF92FF920F9379
:100E3000CF93DF9300D000D000D0CDB7DEB74C0108
:100E40003B015E834D8379015B018FEFA81AB80ADD
:100E50002901461A570ACA01880D991D9A83898368
:100E600001E09501A201BC018CE097E00E942A06F6
:100E700064019FEFC91AD90A1701281839088D8112
:100E80009E81860D971D9C838B839601A101BC01D9
:100E90008CE097E00E942A068D819E81881999092D
:100EA0004C019501A201BC018CE097E00E942A064A
:100EB0008D819E81861997099E838D839601A1015C
:100EC000BC018CE097E00E942A069501A701698188
:100ED0007A818CE097E00E942A069601A7016B8137
:100EE0007C818CE097E00E942A069501A701B4015D
:100EF0008CE097E00E942A069601A7016D817E8111
:100F00008CE097E00E942A0626960FB6F894DEBF82
:100F10000FBECDBFDF91CF910F91FF90EF90DF908B
:100F2000CF90BF90AF909F908F907F906F905F9089
:100F30004F903F902F900895213069F038F0223083
:100F400079F0840F911D47FD9A950895860F911DA4
:100F500067FD9A950895841B910947FD939508951F
:100F6000861B910967FD93950895213069F038F04B
:100F7000223079F0861B910967FD93950895840FBF
:100F8000911D47FD9A950895860F911D67FD9A95CD
:100F90000895841B910947FD939508953F924F92C0
:100FA0005F926F927F928F929F92AF92BF92CF92F9
:100FB000DF92EF92FF920F931F93CF93DF937C0109
:100FC000162F442EEC01C25ADF4F5E806F806C01F9
:100FD0008AE8C80ED11C78847518312E711608F471
:100FE000372C8C809D800E85202F462D652D8A8183
:100FF0009B810E949C075C01202F462D652DC4011A
:101000000E94B507AC01442079F08C85F6018083FD
:10101000232D30E0B501C7010E942A06171548F0BC
:1010200017196394512CD7CF8B858111F7CF8D85FC
:10103000EDCF150D1E836F82DF91CF911F910F9120
:10104000FF90EF90DF90CF90BF90AF909F908F90E8
:101050007F906F905F904F903F900895DC011A96BB
:101060004C911A97ED91FC911197249130E0042E48
:1010700002C0359527950A94E2F7842F860F8830B1
:1010800068F031961196FC93EE93E49198E0941BEE
:1010900001C0EE0F9A95EAF72E2B88501A968C9382
:1010A0008FEF9FEF01C0880F6A95EAF78095822342
:1010B0000895FC01E60FF11D849190E0982F882798
:1010C0003196E4918E0F911D0895AF92BF92CF9209
:1010D000DF92EF92FF920F931F93CF93DF9300D095
:1010E00000D01F92CDB7DEB78C01DC01DA96AC9050
:1010F000DA97DB96EC90DB97ED91FC91B188FE2CB2
:10110000D12CC12CD801ED91FC9111978089D896F2
:101110002D913C911C82FD828B83B8E08B9FC00196
:1011200011248C9DA0018D9D500D9C9D500D11246E
:10113000240F351F3A832983D8011496ED91FC9131
:101140009E012F5F3F4F41E06FE0C8010995F39486
:101150008F2D8E198A1528F4BFEFCB1ADB0AFB14EA
:1011600088F20F900F900F900F900F90DF91CF911A
:101170001F910F91FF90EF90DF90CF90BF90AF90B5
:101180000895CF92DF92EF92FF920F931F93CF9328
:10119000DF93EC01962F683109F44BC0B901993106
:1011A00030F49431C9F0973189F080E006C099316C
:1011B00009F461C09032C9F781E0DF91CF911F91AE
:1011C0000F91FF90EF90DF90CF90089550E08CEF5B
:1011D00092E00E949902F0CF8C859D85AE85BF85F7
:1011E000892B8A2B8B2B71F4E881F981A585B0E0DE
:1011F00020EA36E841E050E00E9441116C877D878B
:101200008E879F8710927C0210927B0210927E0242
:1012100010927D020E942E028DE692E09093A6022B
:101220008093A5028EE692E09093AA028093A90291
:10123000C3CF2C853D854E855F8560E074E284EFE9
:1012400090E00E944C1120513109410951095695F5
:101250004795379527952093B8008E8990E095950E
:10126000879591E090935A028093380210927E0203
:1012700010927D02A1CFD0917D02D13208F093C0AF
:10128000C09138020E94AF016B017C018091CD02B8
:10129000811164C082E08093CD0281E08093CF020F
:1012A0008FEF8093CC021092F102D093F002AAE368
:1012B000B2E0E0EDF2E080E0D8137CC01092F202E0
:1012C0008091F202CC0FC82BC093F2028091CE0223
:1012D000813009F073C01092CE020E94AF016B0101
:1012E0007C018091F2028093BB00809180029091FA
:1012F0008102A0918202B0918302892B8A2B8B2BD1
:1013000099F00E94AF01009180021091810220911A
:101310008202309183026C197D098E099F0906179C
:10132000170728073907D8F18091BC0083FDD9CF72
:1013300085EC8093BC000E94AF016B017C01809121
:10134000CD028230E9F18091CC028F3F61F1809132
:10135000CC02803241F18091CC0225C08091800284
:1013600090918102A0918202B0918302892B8A2BF5
:101370008B2B09F48BCF0E94AF010091800210915A
:10138000810220918202309183026C197D098E09BD
:101390009F09061717072807390708F077CF8091AC
:1013A0007F020E944C0210927E0210927D021092E7
:1013B0005A0202CF9D9191938F5F7ECF85EEB9CF78
:1013C0008091800290918102A0918202B09183026B
:1013D000892B8A2B8B2B09F4B2CF0E94AF0100918D
:1013E00080021091810220918202309183026C1957
:1013F0007D098E099F09061717072807390708F086
:101400009ECFCDCF0F931F93CF93DF93EC01862F09
:10141000642F8C3208F03AC08A3208F060C08832FB
:1014200009F44BC0893209F460C0803408F475C0F7
:10143000982F9F73FE01E90FF11D868D8F3F09F4F0
:101440004EC0903108F436C0282F30E0F901E25543
:10145000FF4F8491F901E656FF4F0491F901EA57D5
:10146000FF4F1491112379F081110E942701E12F80
:10147000F0E0EE0FFF1FE859FF4FA591B491EC91FA
:101480000E2381E009F480E0898F29C08D3299F123
:1014900008F4CBCF94EB980F923008F0C6CF8F733F
:1014A000C80FD11D8E8D411134C061E00E947E01B4
:1014B00060E08E8D0E94500112C08E01025E1F4FAF
:1014C000D0E0F80181918F018F3F31F061E0D031A0
:1014D00008F062E00E947E01DF5FD63191F781E083
:1014E000DF91CF911F910F91089570E090E080E01F
:1014F0000E94D401F4CF85E090E0433010F082E008
:1015000090E0880F991F880F991F05970197F1F7B1
:10151000E6CF62E00E947E01E2CF80E0E1CFCF9291
:10152000DF92EF92FF920F931F93CF93DF936C01A3
:10153000EB017B01E40EF51E10E000E0CE15DF05A7
:1015400061F06991D601ED91FC910190F081E02D5F
:10155000C6010995080F191FF1CFC801DF91CF917E
:101560001F910F91FF90EF90DF90CF9008952F92F1
:101570003F924F925F926F927F928F929F92AF9223
:10158000BF92CF92DF92EF92FF920F931F93CF9370
:10159000DF93CDB7DEB728970FB6F894DEBF0FBE46
:1015A000CDBF7C016C0124E0C20ED11CFC01E057D0
:1015B000FF4F0190F081E02DC60109958C018E3F0F
:1015C0009F4F08F061C0370184E9680E711CF30178
:1015D0000190F081E02DFD83EC835701F2E9AF0E1D
:1015E000B11CF50180809180970120593F4F3B83CA
:1015F0002A83F9018081813009F470C008F45FC04A
:10160000823009F476C0833009F482C0F701EC59C6
:10161000FF4F9182808232962C813D8131832083DD
:1016200038978081918147969D838C830F3F110568
:1016300011F008F020C1B6960136110530F40134DE
:10164000110558F0F701EE57FF4F808191812C81F1
:101650003D81280F391F3D832C838C819D8101960C
:10166000FC01249121115FC090E080E0EA81FB81C0
:101670002081213009F4C1C108F4B7C1223009F436
:10168000BEC1233009F4C3C181E090E028960FB6B3
:10169000F894DEBF0FBECDBFDF91CF911F910F91A8
:1016A000FF90EF90DF90CF90BF90AF909F908F9082
:1016B0007F906F905F904F903F902F900895F7012B
:1016C000E05AFF4F0190F081E02DC60109952C8171
:1016D0003D81280F391F3D832C8398CFF701E05AB5
:1016E000FF4F0190F081E02DC6010995881A990AF3
:1016F0008DCFF701E05AFF4F0190F081E02DC60138
:101700000995EC81FD81E81BF90BFD83EC837ECF0D
:10171000F701E05AFF4F0190F081E02DC6010995D5
:10172000880E991E73CFEC81FD812491201711063C
:1017300009F09AC0CF010296009709F495CFF701FE
:10174000EE59FF4FF887EF8391838083128673965B
:1017500060818F8198850E942E08EF81F8858087AF
:10176000F701EA58FF4F60818F8198850E942E080B
:10177000582EEF81F8858187970122573F4F3D838F
:101780002C83F9019081EF81F885948781E0911194
:1017900080E0EF81F8858587F701E958FF4F808069
:1017A000682D8F8198850E942E08382EF701E85801
:1017B000FF4F2080622D8F8198850E942E08982EE1
:1017C000F701E758FF4F1081612F8F8198850E94A4
:1017D0002E089FEF910F01E010E0980101C0220F49
:1017E0009A95EAF7821B8E83EF81F8854084141462
:1017F0000CF0C4C08A94C80101C0880F8A94EAF72B
:10180000381AF685F983950C2A94C80101C0880F0F
:101810002A94EAF7282E29182F2F422D632DEF81C5
:10182000F885828193810E949C074C01EF81F885A5
:10183000938382832981422D632D848195810E9427
:10184000B507EF81F88595838483F981F13009F438
:101850009AC008F44EC0F23009F4A4C0F33009F481
:10186000B5C0BC0194014FC0FC0184912C813D8125
:10187000280F311DF0CEF701EA57FF4F808191818B
:10188000EC81FD81E80FF91FFD83EC834F0160E0DF
:10189000C4010E9459082C813D81280F391F3D83C6
:1018A0002C8362E0C4010E94590834E0830E911C2D
:1018B0008017910760F3EC81FD81849190E0982F6F
:1018C00088273196E4918E2B009709F4CDCE081726
:1018D000190721F48C819D8103962ECFEC81FD8127
:1018E0003296E4912C813D812E0F311D3D832C8356
:1018F000E2CF9401240D311D47FC3A95BC01650DE2
:10190000711D57FC7A958B01AC01B401C6010E9490
:101910003D05882399F1EF81F885168217824701EA
:10192000F3E78F0E911C24E7E20EF11CF4016081B5
:101930008F8198850E942E08082FF70160818F8182
:1019400098850E942E08182F40E0602FC6010E9443
:10195000CE0741E0612FC6010E94CE0761E08F8172
:1019600098850E942E088111EFCFEF81F88587813D
:101970008515E4F28485EC81FD818083FE818F2FC3
:10198000FF0F990B73CE0519110957FC139594019C
:101990002F5F3F4FBC01640D711D47FC7A95800E8F
:1019A000911EB1CFA8014419510947FC53959401E8
:1019B0002F5F3F4F0519110957FC1395BC016F5F4D
:1019C0007F4F800F911F840E951E9DCF9401250D92
:1019D000311D57FC3A950419110947FC1395BC01B8
:1019E0006F5F7F4F800F911F8ECFF5012081318176
:1019F000820F931F9183808347CEF301F7CFF501C8
:101A000020813181281B390B318320833DCEF301A6
:101A1000F7CF089590E080E0089585ED8093BC00B5
:101A20008091800290918102A0918202B091830204
:101A30000796A11DB11D23E0B695A79597958795AB
:101A40002A95D1F72091BC0024FD03C01092CD024D
:101A500008954091800250918102609182027091BC
:101A60008302452B462B472B69F30097A105B1054F
:101A700041F02AE22A95F1F700C00197A109B109C6
:101A8000E1CF80917F020C944C02FC01A081B181D6
:101A900050962C9182AD38E0839FC0011124289F7D
:101AA000A001299F500D112470E060E080AD91AD40
:101AB0000C948A111F920F920FB60F9211242F933C
:101AC0003F938F939F93AF93BF938091F402909134
:101AD000F502A091F602B091F7023091F30223E0F3
:101AE000230F2D3758F50196A11DB11D2093F30248
:101AF0008093F4029093F502A093F602B093F7025C
:101B00008091F8029091F902A091FA02B091FB0243
:101B10000196A11DB11D8093F8029093F902A09344
:101B2000FA02B093FB02BF91AF919F918F913F91C9
:101B30002F910F900FBE0F901F90189526E8230F3E
:101B40000296A11DB11DD2CF1F920F920FB60F9218
:101B500011242F933F934F935F936F937F938F93B2
:101B60009F93AF93BF93EF93FF938091B900887FCA
:101B7000803609F44AC0F0F5883209F4A7C018F598
:101B8000803109F49BC0B8F4882309F4F9C0883087
:101B900009F494C0FF91EF91BF91AF919F918F9104
:101BA0007F916F915F914F913F912F910F900FBE59
:101BB0000F901F901895883109F488C0803251F732
:101BC0008093CC0214C0803409F49DC040F480336B
:101BD000B9F38833F9F68093CC0285ECB0C0803538
:101BE00009F485C0883509F496C0883499F60E94B6
:101BF0000D0DD0CF883909F48CC038F5883729F01D
:101C000050F4883611F0803729F683E08093CD02B6
:101C10001092CB0257C0883809F47BC0803919F084
:101C2000803809F0B7CF8091CB02803208F071C0C4
:101C3000E091CB0281E08E0F8093CB028091BB00BC
:101C4000F0E0E555FD4F80833DC0803B39F0E0F486
:101C5000803A09F479C0883A09F09CCF84E08093F7
:101C6000CD021092A8021092A702E091A502F09175
:101C7000A60209958091A70281110FC081E080938F
:101C8000A7021092850209C0803C09F4A6CF883CC7
:101C900009F4A3CF883B09F07DCFE091A80281E051
:101CA0008E0F8093A802F0E0EB57FD4F8081809368
:101CB000BB009091A8028091A70229C08091F202F6
:101CC0008093BB0085EC8093BC0064CF9091F102BF
:101CD0008091F002981758F5E091F10281E08E0FA3
:101CE0008093F102F0E0E053FD4F8081E9CFE09175
:101CF000F10281E08E0F8093F1028091BB00F0E051
:101D0000E053FD4F80839091F1028091F00298178B
:101D1000C8F285E8D8CFE091F10281E08E0F809380
:101D2000F1028091BB00F0E0E053FD4F8083809191
:101D3000CF0281115CCF81E08093CE0284EA809350
:101D4000BC001092CD0226CF85EC8093BC0010928F
:101D5000CD028091CB02803230F4E091CB02F0E0F2
:101D6000E555FD4F10826091CB0270E0E091A90231
:101D7000F091AA028BEA92E009951092CB020ACF69
:101D80001092CC0234CFCF931092FF021092FE0239
:101D900088EE93E0A0E0B0E080930003909301030D
:101DA000A0930203B093030383EF91E09093FD02AD
:101DB0008093FC0210920B0710920A078CE890E0C7
:101DC000909399078093980710929B0710929A0717
:101DD00010929D0710929C071092240785E092E0D4
:101DE000909309078093080710920D0710920C0733
:101DF00010922107109218071092190710921A07D3
:101E000010921B078FEF8093220780932607EAE248
:101E1000F7E080E497E0CFEFC1938E179F07E1F7DB
:101E20008CE793E0909311078093100781E794E08B
:101E3000909313078093120781EC98E09093150715
:101E40008093140782E09AE0909317078093160717
:101E500030E020E040E069E08CE097E00E947C0305
:101E6000109267071092660786E990E09093410709
:101E70008093400788E093E0909345078093440760
:101E800088E08093460710924707109275071092DA
:101E900095071092910781E08093960780939707AA
:101EA0008DE092E090934307809342078CE097E0A7
:101EB0000E94EB0410925F0710925E071092630776
:101EC000109262078FEF9FEF9093610780936007F6
:101ED0009093650780936407E0914207F091430770
:101EE0000280F381E02D8CE097E0099585E091E098
:101EF000909369078093680710927807C09335071D
:101F0000C0933607C0933707CF910895789484B56E
:101F1000826084BD84B5816084BD85B5826085BDE5
:101F200085B5816085BD80916E00816080936E0073
:101F30001092810080918100826080938100809165
:101F40008100816080938100809180008160809316
:101F500080008091B10084608093B1008091B000D6
:101F600081608093B00080917A00846080937A00D1
:101F700080917A00826080937A0080917A008160FB
:101F800080937A0080917A00806880937A00109222
:101F9000C100E0911007F091110730E020E040E02F
:101FA0006AE08CE097E0099580919707882321F0FB
:101FB0008CE097E00E94450D80E00E9408018CE0D3
:101FC00097E00E946508C091470780914607C80FB7
:101FD000E0910C07F0910D078189C81708F428C11A
:101FE0008CE097E00E94FC0280E00E940801E091F2
:101FF0001007F091110730E020E040E06BE08CE04A
:1020000097E0099561E082E00E947E0161E083E053
:102010000E947E0161E084E00E947E0161E085E033
:102020000E947E0161E086E00E947E0161E087E01F
:102030000E947E0161E088E00E947E0161E08BE009
:102040000E947E0161E08CE00E947E0161E08DE0F3
:102050000E947E0188248A9483E0982EA12CB12CC2
:102060009AE8692E91E0792E20E0C22E20E0D22E4F
:102070008CE097E00E94450DE0900601F09007018A
:10208000C0910401D091050187010E5F1F4F9E0191
:102090002E5F3F4FA70141505109BE0161507109A8
:1020A0008CE097E00E943D05882381F09701AE0106
:1020B00061E070E090E080E00E9409079701AE01C6
:1020C00070E060E081E090E00E9409078CE097E01A
:1020D0000E9465088CE097E00E94FC02609102017A
:1020E000709103018091040190910501860F971F63
:1020F00090930501809304014091000150910101EA
:102100002091060130910701240F351F30930701FC
:1021100020930601FC013197EE37F10538F07195F7
:10212000619571097093030160930201B9016150D7
:1021300071096E33710538F05195419551095093ED
:1021400001014093000125333105BCF020910801C5
:10215000309109018217930784F0265F3F4F2817BB
:1021600039075CF080910001909101019195819572
:102170009109909301018093000180E480937C0099
:1021800080917A00806480937A0080917A0086FD45
:10219000FCCFA0917800B091790026E730E00E9452
:1021A0007D11A50194010E94221119018CE097E094
:1021B0000E94450D23E030E04AE050E066E370E025
:1021C000C1010E94D5068CE097E00E9465088CE072
:1021D00097E00E94FC0230920901209208018CE0F5
:1021E00097E00E94450DCAE0D1E02E813F814C81ED
:1021F0005D816A817B81888199810E94D5062896BC
:102200006C167D0691F78CE097E00E9465088CE0E3
:1022100097E00E94FC0264E170E080E090E00E94A0
:10222000D401C114D10409F423CF0E94000020CFAF
:1022300080919707882321F08CE097E00E94450D5C
:102240008C2FBBCE052E97FB1EF400940E943911F3
:1022500057FD07D00E944C1107FC03D04EF40C949C
:10226000391150954095309521953F4F4F4F5F4F15
:10227000089590958095709561957F4F8F4F9F4FF2
:1022800008950E946E11A59F900DB49F900DA49F7C
:10229000800D911D11240895A1E21A2EAA1BBB1BCB
:1022A000FD010DC0AA1FBB1FEE1FFF1FA217B30722
:1022B000E407F50720F0A21BB30BE40BF50B661F38
:1022C000771F881F991F1A9469F7609570958095FC
:1022D00090959B01AC01BD01CF010895A29FB00173
:1022E000B39FC001A39F700D811D1124911DB29F4A
:1022F000700D811D1124911D08950E946E11B7FF6C
:102300000895821B930B0895EE0FFF1F0590F49123
:10231000E02D0994DC0101C06D9341505040E0F77D
:062320000895F894FFCFC0
:10232600FFFF0100400030003B00020002001000E9
:102336000300140002001000030026000200100033
:10234600030038000200100003004A0002001000DB
:1023560003005C000200100003006E000200100083
:1023660003001400070010000300260007001000F9
:10237600030038000700100003004A0007001000A1
:1023860003005C0007001000030026000C0010008C
:10239600030038000C00100003004A000C00100077
:1023A600030038001100100003001815A015C0190D
:1023B600FF1815A115C819FF1815AE19FF1815AF86
:1023C60019FF1815AE15D5168015A8163F15D31684
:1023D600001540158D16141520160015A115C815E3
:1023E600DA1612158116CF15D916F115DB1640151A
:1023F6002E15A415A619FF0001140A6464323200D2
:10240600127A0000042896100800008000400000A0
:10241600000000C60299020A0D6F0292027F027046
:102426000200000000B70A8F0A0A0D090DEB0476B8
:0424360005DB0400BE
:00000001FF
