:100000000C945B060C9483060C9483060C94830674
:100010000C9483060C9483060C9483060C9483063C
:100020000C9483060C9483060C9483060C9483062C
:100030000C9483060C9483060C9483060C9483061C
:100040000C948D150C9483060C9483060C948306F3
:100050000C9483060C9483060C9483060C948306FC
:100060000C94D7150C9483065F0002020304030569
:1000700004050C00FE07FE08FF0139028503AC20D1
:1000800005006A072107394367A80022079B562706
:100090005901230B3542AF1AAA4C69A80A240D4D09
:1000A0003E37AF4AE59D54B5230025093D4247CE72
:1000B000DC3905260C3D422FA79872956454012720
:1000C00005195767280ACB3E37C514EB9803290B4F
:1000D000CB3E27C71CAB9822002A0A3D42B7AA761E
:1000E0005ECD082B0A2D4637A3386446112C071B1A
:1000F0003E4F8D042D060D4E67082E069242670472
:100100002F0C3D421FE58C728D7246003009BC42B7
:100110004F45CFA4003108BB422FC9AE01320A3D82
:10012000426FE58C727B08330C3D42676894B3865E
:100130003A2D00340C3D423FCB54A6A1334A003542
:100140000C3D42E74623C38C745A00360C3D42579F
:10015000E68C46CA3A2D00370D3D4267689433CA93
:1001600019651401380B3D426F659D56D6690139FA
:100170000C3D426F659D4646394A003A07AA4267E0
:10018000C4113B09333ECF466A24003C07AB4637D7
:10019000D5053D081D4A676838043E08AB46275719
:1001A00025003F0A3D426FE536CA7404400C3D42CB
:1001B0006F6535525223C305410A3D426F653D4686
:1001C000B603420C3D4267C42AA659C5A100430CA0
:1001D0003D426F658D32CA28A705440D3D4267C474
:1001E0002AA698628A4301450C3D42E746198D9440
:1001F000514643460D3D42E746198D94514619013B
:10020000470C3D426F658D328A3B2D0048093D42C7
:1002100027DB63643B4908BB4267C5AE014A0C3D1E
:100220004277679451466594004B0B3D4227CB546F
:10023000EA14AB1C4C0E3D4227A38C32CA28A38C77
:1002400086004D093D4227AF95B43B4E0A3D4227FB
:10025000EBA992DC3A4F093D426F65EFB400500DB7
:100260003D4267A4AC87CA28A38C00510A3D426F67
:100270006557925105520B3D4267A4AC872AAB1CCF
:10028000530B3D426F650D37D46901540E3D4267F3
:10029000C88C32CA28A38C220055083D4227FB4E49
:1002A0000B560A3D4227BB5399720457093D42271A
:1002B0007B25D505580A3D4227EB5457B50E590CFE
:1002C0003D4227EB5467945146115A0A3D426768F4
:1002D00094BBD1105B08CB3E67C43E075C0D3D422A
:1002E00027C38C32CC30A30C035D08CB3E67F639B4
:1002F000025E071D5637A73A5F060D3A670860068B
:100300009B562717610A2D426FC334741A01620C81
:100310003D4227A38C46CAF65000630A2D426F6502
:100320008D725A00640B3D421F659486B6D30865F2
:100330000A2D426FE5A1325C00660B3D42575679AB
:1003400067945106670B3D3A6F653B8D8CD202680E
:100350000B3D4227A38C46CAEE006908BB422F23FF
:10036000D91A6A0ACC3A3F63DD9649016B0C3D42CB
:1003700027A38CB24CB3CA016C07BB4247F61A6D77
:100380000A2D4247B5545249156E082D422799DA75
:100390000E6F092D426F653B2D00700C3D3A67A42E
:1003A0006C0F95514600710B3D3A6F683B8D8C3256
:1003B0000A720B2D4227991A65941100730A2D4277
:1003C0006F68B8E15000740C3D4237A33864461999
:1003D000652875082D42273B950A76092D4227DBB3
:1003E000A98E0077092D42275B49750178092D42B6
:1003F00027A7BAAA03790A3D3A27DBA96E23007A18
:10040000082D4267E8F6107B09CB3E37C52AC73A6C
:100410007C06493FE7017D0ACB3E27C73AC52A0241
:100420007E091D4A2FAA24130000000004FFFF00CC
:10043000005F00030305050405061614FDFC0EFC11
:100440000EFE026D05BA080B200600602C01210F7C
:10045000C4253423391C2C2265C92122012209A577
:10046000644621E14500231B8B616429114BC412B2
:10047000D961729849C412D961729849C412B144C1
:1004800008242149A65B1987846B924829520A5592
:1004900082B643E81033464AA14AA8129195E390E8
:1004A00020002529EEE17B35938A26415948280B07
:1004B000456511A9287D2487C6C6225134240B8A9C
:1004C00064C1982CA6148C4EE330002624D0258CD1
:1004D0004B078AE420991C2493832672581D3AAB5B
:1004E000D984135270561D52A7B4DA21741B012708
:1004F00007A2642E7118281105A23327128D4423F8
:1005000099DE66B2995000291005A2332194CD647A
:10051000337D1A89466A002A10E7E045354A9A4435
:10052000442349649434022B154A215C2987C8214D
:100530007288F07030CA2172881C22042C0BE4608F
:100540002B23394446D9002D0765E034F1102E0ADB
:1005500084202C23394424002F0FC6213CA9185491
:100560000C2A0615838A003013C9255C379C8C64DD
:1005700092997F9BC84493E10C00310BC7295C27FB
:100580001C15F79F0E3215C9255C47134D66B689B9
:100590006C3C1D4FA762D5C3A1003317C9255C472A
:1005A000134D66B6896C2C9C83E41399DB44342B81
:1005B000013416C9255C1F174F1923B3D028368A7A
:1005C0004D829383743C2D3518C9255C73889CE259
:1005D0009038240EB1C5E6E389CC6D229A95003699
:1005E00016C9255C575A91D924E3C988B2E66D2211
:1005F0009B8C8433003711C9255CF1509E8AE562DB
:10060000B97875BC11003815C9255C379449A4D454
:10061000E2456434858E556A4D46033917C9255C19
:1006200037144D669299B7C98434194F6436C96836
:1006300054033A0D242534233944C4924344023BE5
:100640000F846533233944C4924364940D003C11F4
:100650004A215C0F111339D32174081D4287083DCC
:100660000BC9A45CF140473C1C083E124A215C21A6
:1006700087D02174081D4226729643003F12C9217B
:10068000545712DD6C13D958772431952C04402728
:10069000CF21847B1ECBE4A090AC2411299164224D
:1006A000924C449189246A2289D244249A10E5A06C
:1006B000D8587C08024120CE1D741F07CB817320BF
:1006C0001D1499834272486C1E1B47A70761781856
:1006D0001FC927D402421ECC21747198CD48C3D1C2
:1006E00070341CCD6687E0D274329D4C27D3C9701C
:1006F000729001431DCC2174590AB18C25E33A84D0
:100700000EA183E6A039680E89CC23E3184D5A0365
:10071000441FCE218471980E69E3D178349FCC2791
:10072000F3C97C329FCC27E3D17834241D86004561
:100730001FCB216C71A00C2753C92C14998522233F
:10074000E171249C0567A1C83832950C0F07461E3D
:10075000CB216C71A00C2753C92C1499852223E15D
:1007600071249C0567C139640E995B014721CD2135
:100770007C598A914863D158328744E690C81C3628
:10078000874D0FE1D174349D91A8A50800481ECE75
:10079000218451AC8C47E3D178341E8D4787D278C1
:1007A000341E8D47E3D178349E140B490AC5254C7D
:1007B0005119ED7F294A13CA1D645B9EEF936C4269
:1007C0009A9026C2916848044B1ECE2184512B4D2D
:1007D0008543E94C3C924FE4103BE43E218FA83323
:1007E000E29036A5D40C4C10CA2164519EEFAF9113
:1007F000696428991D0C4D2DD1219C612E9169555C
:100800005A641899856691596816998546A1596C5C
:10081000129AC526A1598C360BCE66C1D968189C90
:10082000D462054E21CE218441AD5067D420355885
:100830004CA10543A4608C120C16A3C428313C1BA8
:100840008BCA21004F1DCE21846926D1C6A3F16435
:100850000EB143EC103BC40EB1439647E319896CCB
:1008600004501ECC21747110CE4843CA9032A40C9F
:100870002933D2213807CD4173D01C3487D401519C
:10088000284E22836926D1C6A3F1640EB143EC1031
:100890003BC40EB1D026A39168269951CA76A81CF4
:1008A0003A8983EAB01100521FCD218471A00D490D
:1008B000D3D174341D0D6787E86C381BCE68C3D95B
:1008C00070369C1827005316CA21644709AD0C25C1
:1008D000D308D97A355BCBD5D3245402541CCB2111
:1008E0006C7130ADCD6433D92C3887CC2173C81CE2
:1008F0003287CC2173C8BC06551ECE218451AC8CE6
:1009000047F3D83C368FCD63F3D83C368FCD63F3B5
:10091000D83C38941B015622CF1D7461AC9067F30C
:1009200020353C0D4FE3B3386416074DE2B0491C47
:100930003887CEC171781C005730D41D9C61315569
:1009400068C4D9701AA4D1C2335A78460B53229482
:100950003864129AC42193D0240EA1D161C3396C9A
:10096000380786E3D0701800581FCF218C63AA1176
:10097000A734F9480EB1C3E8503AAC0EB34344640F
:10098000E174481B538A06591FCD217C61A3506531
:10099000D3204D3A0B53E2903A680E9BC3E6B03930
:1009A0006C0E9B436E005A19CC216CF1102E4FC275
:1009B00094289D0E9943E8AC1172645C3E1C025B66
:1009C0000A04A63361D2FF13015C12C8214C2196A0
:1009D0008BE562B9582E968BE562015D0A04A2335D
:1009E00041D2FF93015E0E08A14D27961269222D78
:1009F00042A2005F0749604BF140600885A43E2198
:100A00005B1461122A215C739A4D8463DA646D323F
:100A10009B8C9806621FCC1D644107CD4173D01C8E
:100A200034074D88B4D174329D4C27D3C974421B0E
:100A3000496A00630F292154571A19CB5B233319D4
:100A40000900641DCC216C4F07CD4173D01C34A428
:100A50008C6694E9643A994EA693E96846A41065B9
:100A6000122A215C471C4D86C6C3413E8E0C65256B
:100A700000660EC8213C4793EC3AB44DF7B10667C7
:100A80001EEB215B0F924346C6D14C2813CA464346
:100A9000A31C74081E22D289583294DD00681ECC33
:100AA000216C4107CD4173D01C34074D6A24D270AC
:100AB000341C0D47C3D170349C940A690CC5213491
:100AC000335A0792F64B016A0F471633B91D8DB89A
:100AD0003F5A2C2212006B1DCC216C4107CD417373
:100AE000D01C34078D4A33E1283C115F27C4116DB7
:100AF00046A9186C0AC5213441DAFFA5006D1833E8
:100B000021A441A9D84825D27069B8345C1A2E0DA9
:100B100097862BA5066E152C216C41A99148C3D14F
:100B200070341C0D47C3D170522A6F0F2B216457AC
:100B30009C4DA6BE4E66C31A00701CAC1D633122CC
:100B4000D246D3C974329D4C27D3096D3421CE418E
:100B500073D01C5207711CAC21634712CD28D3C936
:100B600074329D4C27D3D18C489983E6A039680E06
:100B700029720F28214C4111512423C974C71A002E
:100B800073122921544509C924C388F16A2D4A22C8
:100B900025007411A72144178E0A67A6E19E22A39F
:100BA00010050075152C216C51220D47C3D17034EE
:100BB0001C0D47C3115B850076142A1D4C519A0CFD
:100BC00043C3D828388A92E972881000771B301DF9
:100BD0007C51294D66C3D06C181B918223529444DA
:100BE00026D1857288500878122B21646161935157
:100BF000A4F579554293512806791BAB2163519B8B
:100C00004C43D3D82C388B4EC293F81C3207456521
:100C1000D1497C0E7A0E29215471A0D588DC8AC472
:100C200003017B0E05A2332712EDA4281BED261429
:100C30007C07C2315CF1037D0F05A23321948DB690
:100C40000945A23DA9017E0B6A2465B572888C46D0
:100C50000000000004FFFF00000000000024002747
:100C6000002A0000000000250028002B00000000E2
:100C700000230026002900040404040404040402E0
:100C80000202020202030303030303010204081029
:100C900020408001020408102001020408102000F6
:100CA000000008000201000003040700000000002B
:100CB00000000000F61611241FBECFEFD8E0DEBF03
:100CC000CDBF13E0A0E0B1E0ECE1F4E302C0059099
:100CD0000D92AE31B107D9F728E0AEE1B3E001C023
:100CE0001D92AA3AB207E1F716E0CBE5D6E004C0C0
:100CF0002197FE010E94FF19CA35D107C9F70E944A
:100D0000B9170C940C1A0C940000662329F06A3071
:100D100019F0862F90E008958FEF9FEF0895AF921E
:100D2000BF92CF92DF92EF92FF920F93CF93DF9318
:100D3000EC01DA017901942F9770E1E0F0E09F0176
:100D4000092E01C0220F0A94EAF7522F6E018AE899
:100D5000C80ED11CF601808140E0823018F4422F89
:100D6000813049F15D01F8EFAF22E8ADF9AD28819E
:100D70003981D90150968C918A9D90018B9D300DBF
:100D80001124620F731FDF01A60FB71F01111AC0D4
:100D9000EA0EFB1E8C91842B85278D93AE15BF0523
:100DA000C9F7DF91CF910F91FF90EF90DF90CF9037
:100DB000BF90AF90089550E0D5CF440F550FE11488
:100DC000F10479F33C91342B35273C939F5F977066
:100DD000E1E0EE1AF1089111F0CF2CAD3DADA20F7C
:100DE000B31FF6018081823028F4813009F051E090
:100DF00041E0E5CF51E0E3CF80E0089590E080E06E
:100E00000895CF93DF93C4E1D8E08FAFEAADFBAD97
:100E10000190F081E02D88E198E00995EAADFBAD05
:100E20000280F381E02D88E198E0DF91CF91099471
:100E30009B01DC011896ED91FC9141E067E109947A
:100E4000833081F028F4813099F08230A9F0089540
:100E50008730A9F08830C9F08430B1F480918000E7
:100E60008F7D03C0809180008F77809380000895EC
:100E700084B58F7784BD089584B58F7DFBCF809135
:100E8000B0008F778093B00008958091B0008F7D7F
:100E9000F9CFCF93DF93282F30E0F901E156F34FDC
:100EA0008491F901E557F34FD491F901E958F34FD3
:100EB000C491CC23A1F081110E942007EC2FF0E017
:100EC000EE0FFF1FE359F34FA591B491EC91ED2381
:100ED00081E090E009F480E0DF91CF91089580E017
:100EE00090E0FACF1F93CF93DF93282F30E0F901E2
:100EF000E156F34F8491F901E557F34FD491F9018D
:100F0000E958F34FC491CC23A9F0162F81110E9408
:100F10002007EC2FF0E0EE0FFF1FED59F34FA591E6
:100F2000B4918FB7F894EC91111108C0D095DE23DD
:100F3000DC938FBFDF91CF911F910895DE2BF8CF07
:100F4000CF93DF9390E0FC01E557F34F249189584C
:100F5000934FFC0184918823D1F090E0880F991F72
:100F6000FC01E75AF34FA591B491FC01ED59F34F01
:100F7000C591D491623071F49FB7F8943C91822F5F
:100F8000809583238C93E8812E2B28839FBFDF914C
:100F9000CF9108958FB7F894EC912E2B2C938FBF9F
:100FA000F6CF3FB7F8948091040490910504A09186
:100FB0000604B091070426B5A89B05C02F3F19F081
:100FC0000196A11DB11D3FBFBA2FA92F982F8827C9
:100FD000BC01CD01620F711D811D911D42E0660FA4
:100FE000771F881F991F4A95D1F708958F929F9276
:100FF000AF92BF92CF92DF92EF92FF926B017C0192
:101000000E94D1074B015C01C114D104E104F10439
:10101000B9F00E94D107681979098A099B09683ECD
:1010200073408105910580F321E0C21AD108E108DF
:10103000F10888EE880E83E0981EA11CB11CE4CF55
:10104000FF90EF90DF90CF90BF90AF909F908F90E8
:1010500008952091B103260F3327331F2132310524
:10106000ECF42091D703FC0190E080E0243069F09B
:1010700082E00895A091B1032191AC0141575C4FEA
:10108000A40FB52FB11D2C930196861798F380916C
:10109000B103680F6093B10380E0089581E0089583
:1010A0001092D70381E08093D9031092D80361E0B6
:1010B00082E10E94720761E083E10E947207E9EB1E
:1010C000F0E080818E7F808380818D7F808388E4C3
:1010D0008093B80085E48093BC000895CF93DF939C
:1010E00091E090938E038823B9F0C091B800D0911D
:1010F000BA008091BC008A7B8093BC0060E082E1F2
:101100000E94720760E083E10E9472070E9450080B
:10111000D093BA00C093B800DF91CF91089508959D
:1011200008950895E091860380918503E81730F4CF
:10113000F0E0EB59FC4F808190E008958FEF9FEF36
:10114000089590918603809185032FEF3FEF9817C4
:1011500048F4E92FF0E0EB59FC4F208130E09F5F2D
:1011600090938603C9010895809185039091860329
:10117000891B990B0895CF92DF92EF92FF920F9304
:101180001F93CF93DF937C01CB018A0120916403ED
:10119000222389F0EB016B01C40ED51ECC15DD05B1
:1011A00069F06991D701ED91FC910190F081E02DFA
:1011B000C7010995F3CF642F0E942908C801DF9168
:1011C000CF911F910F91FF90EF90DF90CF900895F6
:1011D000CF93DF931F92CDB7DEB76983209164036D
:1011E0002223F9F020918703203258F021E030E0EB
:1011F000FC013383228390E080E00F90DF91CF9158
:10120000089580918803E82FF0E0EC5BFC4F998112
:1012100090838F5F809388038093870381E090E0C1
:10122000ECCF61E0CE0101960E942908F7CFDC01E6
:101230001A96ED91FC9130E020E00994DC011496BF
:10124000ED91FC9130E020E040E060E10994DC01A8
:101250001696ED91FC9130E020E040E069E10994C0
:10126000DC011696ED91FC9130E020E040E068E171
:1012700009949A01DC011696ED91FC91462F67E1E5
:101280000994EF92FF920F931F93CF93DF931F92D6
:10129000CDB7DEB77C018B01D8016C91673129F1A4
:1012A00050F46531A0F40F90DF91CF911F910F9111
:1012B000FF90EF9008956A3118F16E3FA1F7F801A1
:1012C0004181498369E2C7010E9417090BC0F801F7
:1012D00041814983D7011696ED91FC9130E020E0E1
:1012E000C70109950E5F1F4FD7CFF8018181898310
:1012F000AE014F5F5F4F61E0C7010E943909F2CF35
:101300000F5F1F4FD7011696ED91FC9130E020E062
:1013100040E0C7010995C0CF462FDC011696ED913C
:10132000FC9130E020E066E10994462FDC0116963E
:10133000ED91FC9130E020E065E10994EF92FF929D
:101340000F931F93CF93DF93EC01042F79016D303E
:1013500009F446C050F46B30C9F1693009F49FC0FC
:101360006A3009F465C080E046C06E3009F452C0AE
:101370006F3099F70E943009F7011381110F110F97
:10138000110F6C89160F60E4CE010E949509612F40
:1013900062956F706061CE010E949509612F6F7038
:1013A000CE010E948C09F7016481606BCE010E941E
:1013B0008C09F701408151816281660F660F660FCB
:1013C000CE010E9439090150A1F72EC06AE572E0F2
:1013D000442311F065E572E0CE010E9441090AC084
:1013E000411110C06EE472E00E944109E881F98168
:1013F00082898C8B81E0DF91CF911F910F91FF90BB
:10140000EF90089567E472E00E944109E881F98154
:101410008389EFCF0E94300961E8CE010E949509CF
:10142000602FCE010E948C09CE010E942709E2CFD5
:10143000EA85FB8530E020E040E068E2CE010995D6
:10144000EE81FF8130E020E040E064E1CE010995CB
:1014500041E06BE4CE010E941709E881F9814481E3
:1014600069E2CE010E94170940E06BE4CE010E94C0
:101470001709E881F981448169E2CE010E941709C8
:1014800041E06BE4CE010E941709E881F9814581B2
:1014900069E2CE010E9417096FE572E09DCF84E9F1
:1014A00092E0998388831C8AA5CFDC011896ED9180
:1014B000FC9130E020E040E069E10994DC011896FD
:1014C000ED91FC9130E020E040E068E10994CF9399
:1014D000DF931F92CDB7DEB76983BE016F5F7F4F89
:1014E0000E9418070F90DF91CF910895EF92FF921D
:1014F0001F93CF93DF93EC01162F7A010E945E0AAF
:1015000060E4CE010E94670AE885F9859701412FC2
:1015100067E1CE010995CE01DF91CF911F91FF9038
:10152000EF900C94550AEF92FF921F93CF93DF93A5
:10153000EC01142F7901663181F138F4643109F43A
:101540004BC0653179F080E022C06831C9F150F1BB
:101550006931C9F780914303882391F1CE010E943C
:10156000550A2EC080914303882319F0CE010E94B2
:10157000550ACE010E945E0A60E0CE010E94670A11
:10158000612FCE010E94670A81E080934303DF91BF
:10159000CF911F91FF90EF900895642F0E94670AEA
:1015A00081E0F5CF80914303882319F0CE010E949A
:1015B000550AA701193138F4612FCE010E94760A2D
:1015C00010924303EDCF68E1CE010E94760A1851D4
:1015D00088E1E80EF11CEDCF8E898F3F11F488E78A
:1015E0008E8BE885F9859701412F64E1CE01DF916B
:1015F000CF911F91FF90EF9009940F93FC01E05C55
:10160000FF4F0190F081E02D4E1B5F0BDC01D49663
:10161000ED91FC9109950F910895CF93DF93FC0113
:10162000A081B18182AD90E09C0143E0220F331F85
:101630004A95E1F737AF26AF50962C91509748E086
:10164000249F9001112435AF24AF23AD30E0B901C0
:1016500053E0660F771F5A95E1F7EF01C05CDF4F4B
:101660007983688351964C915197E901C80FD91F2E
:1016700050E04C175D0718F4CA01821B930BEF0171
:10168000CE5BDF4F79836883229623E0880F991F12
:101690002A95E1F7860F971F99838883229654969F
:1016A0008D919C91559799838883E85BFF4F56965F
:1016B0008D919C9191838083DF91CF9108950F93B9
:1016C0001F93FC01E25BFF4F0190F081E02DDC01F4
:1016D000A05BBF4F0D90BC91A02D4A175B0740F453
:1016E000E017F10748F00417150730F080E019C043
:1016F000E017F107C0F3FACFFC01E65BFF4F408132
:101700005181845B9F4FFC0180819181681779072B
:1017100058F481E04217530720F081E0261737077D
:1017200028F71F910F91089542175307B0F3DECFAA
:101730002F923F924F925F926F927F928F929F92E1
:10174000AF92BF92CF92DF92EF92FF920F931F93CF
:10175000CF93DF93CDB7DEB72A970FB6F894DEBFED
:101760000FBECDBF9A878987865B9F4F9A838983F7
:10177000FC0111821082E985FA85EA5BFF4F408007
:10178000518029853A85245B3F4F3C832B83F901A7
:1017900051824082E985FA85EE5BFF4F20803180DF
:1017A00029853A85225B3F4F3E832D83F9013182A3
:1017B0002082E985FA85EC5BFF4F60807180298586
:1017C0003A85205B3F4F38872F83F9017182608211
:1017D000E985FA85E85AFF4FE080F180E985FA85CE
:1017E000EC5AFF4FA080B180E985FA85EA5AFF4F95
:1017F000C080D180E985FA85EE5AFF4F80809180C4
:1018000087019501A601B40189859A850E945F0B25
:1018100029853A852C573F4F3A87298781111BC06C
:10182000F90110822A960FB6F894DEBF0FBECDBF25
:10183000DF91CF911F910F91FF90EF90DF90CF90AC
:10184000BF90AF909F908F907F906F905F904F90E0
:101850003F902F90089581E0E985FA858083811477
:10186000910421F0E981FA8191828082A414B50467
:1018700020F4EB81FC81B182A0822C143D0420F481
:10188000ED81FE81D182C082E614F70458F6EF8123
:10189000F885F182E082C6CF0F93CF93DF93E02FDC
:1018A000DC01AC57BF4FFC91FF2309F460C0211548
:1018B000310509F45CC02230310538F0023009F0FE
:1018C0004AC06F5F7F4F621B730B0E2F0170E0FDEC
:1018D00052C0FC01E25BFF4F0190F081E02D4E17FA
:1018E0005F0708F444C0FC01E05BFF4F0190F0810A
:1018F000E02D4E175F07D8F5FC01E45BFF4F019028
:10190000F081E02DDC01A65BBF4F0D90BC91A02DB6
:10191000260F371F2617370738F56E177F0718F57C
:101920009F0121503109A217B30708F56A177B07F9
:1019300008F4BD012E173F0708F4F901E61BF70B69
:10194000EC01AEA9BFA914960D90BC91A02D9F01EA
:10195000FD0109950CC0033009F0B7CF4F5F5F4F11
:10196000421B530BB2CFBD016E177F07E0F2DF9130
:10197000CF910F910895FC01E65BFF4F0190F0813C
:10198000E02D6E177F0798F3FC01E45BFF4F019099
:10199000F081E02D6E177F0750F7FC01E05BFF4FF1
:1019A0000190F081E02DDC01A25BBF4F0D90BC9156
:1019B000A02D240F351F24173507A8F44E175F07F5
:1019C00088F49F0121503109A217B30780F64A1706
:1019D0005B0708F4AD012E173F0708F4F901E41B7B
:1019E000F50BAECFAD014E175F0708F6EDCFAF9206
:1019F000BF92CF92DF92EF92FF920F931F93CF93FC
:101A0000DF936C01EB015A017B01E20EF31E9C0196
:101A1000240F351F8701AB01BC0188E198E00E94CB
:101A20005F0B811114C0DF91CF911F910F91FF9037
:101A3000EF90DF90CF90BF90AF90089500E09501B8
:101A4000AE01B60188E198E00E944C0C2196EC169C
:101A5000FD06A1F7E8CF213069F038F0223079F0A7
:101A6000840F911D47FD9A950895860F911D67FD7E
:101A70009A950895841B910947FD93950895861BB7
:101A8000910967FD93950895213069F038F022306F
:101A900079F0861B910967FD93950895840F911D38
:101AA00047FD9A950895860F911D67FD9A950895B3
:101AB000841B910947FD939508953F924F925F9241
:101AC0006F927F928F929F92AF92BF92CF92DF924E
:101AD000EF92FF920F931F93CF93DF937C01162F0A
:101AE000442EEC01C25ADF4F5E806F806C018AE8A1
:101AF000C80ED11C78847518312E711608F4372C55
:101B00008C809D800E85202F462D652D8A819B819E
:101B10000E942B0D5C01202F462D652DC4010E94D3
:101B2000440DAC01442079F08C85F6018083232D8F
:101B300030E0B501C7010E944C0C171548F0171989
:101B40006394512CD7CF8B858111F7CF8D85EDCF45
:101B5000150D1E836F82DF91CF911F910F91FF9022
:101B6000EF90DF90CF90BF90AF909F908F907F903D
:101B70006F905F904F903F900895DC011A964C91C2
:101B80001A97ED91FC911197249130E0042E02C038
:101B9000359527950A94E2F7842F860F883068F0F0
:101BA00031961196FC93EE93E49198E0941B01C05A
:101BB000EE0F9A95EAF72E2B88501A968C938FEF9A
:101BC0009FEF01C0880F6A95EAF7809582230895F8
:101BD000FC01E60FF11D849190E0982F8827319643
:101BE000E4918E0F911D0895CF93DF932091720899
:101BF000309173082817390709F490C0EC019093CD
:101C0000730880937208FC01849180938508319653
:101C1000E491E0938608FE013296E491E093870810
:101C2000FE013396E491E0938808FE013496E49136
:101C3000E0938908FE013596E491E0938A08FE015D
:101C40003696E491E0938B08FE013796E491E09399
:101C50008C08FE013896E491E0938D08FE013996D8
:101C6000E491E0938E08FE013A96E491E0938F08A8
:101C7000FE013B96E491E0939008FE013C96E491CE
:101C8000E0939108FE013D96E491E0939208FE01F5
:101C90003E96E491E0939308FE013F96E491E09331
:101CA0009408FE017096E491E093950861E1CE01FD
:101CB0000E94E80D909397088093960863E1CE0107
:101CC0000E94E80D909399088093980865E1CE01F1
:101CD0000E94E80D90939B0880939A088091720867
:101CE00090917308892BD1F08091920880939E087F
:101CF0004091930840939F0890919D08992371F01B
:101D0000913079F490919408891714F490939E0877
:101D100080919508841714F480939F08DF91CF91E8
:101D2000089530918F0820919108082E000C990B8E
:101D3000622F022E000C770B630F711D37FD7A9511
:101D4000861797071CF4320F30939E08241734F738
:101D500020939F08E3CFAF92BF92CF92DF92EF9292
:101D6000FF920F931F93CF93DF9300D000D01F9269
:101D7000CDB7DEB78C01DC01DA96AC90DA97DB9652
:101D8000EC90DB97ED91FC91B188FE2CD12CC12C0D
:101D9000D801ED91FC9111978089D8962D913C91B5
:101DA0001C82FD828B83B8E08B9FC00111248C9D27
:101DB000A0018D9D500D9C9D500D1124240F351FA9
:101DC0003A832983D8011496ED91FC919E012F5FEF
:101DD0003F4F41E06FE0C8010995F3948F2D8E19B4
:101DE0008A1528F4BFEFCB1ADB0AFB1488F20F9098
:101DF0000F900F900F900F90DF91CF911F910F9147
:101E0000FF90EF90DF90CF90BF90AF90089588E162
:101E100098E00E94AB0E88E198E00C941E09CF92E6
:101E2000DF92EF92FF920F931F93CF93DF93EC011A
:101E3000962F683109F44BC0B901993130F49431CF
:101E4000C9F0973189F080E006C0993109F461C08A
:101E50009032C9F781E0DF91CF911F910F91FF90F0
:101E6000EF90DF90CF90089550E088E094E00E94DA
:101E7000BB08F0CF8C859D85AE85BF85892B8A2BCD
:101E80008B2B71F4E881F981A585B0E020EA36E872
:101E900041E050E00E94C3196C877D878E879F8741
:101EA0001092860310928503109288031092870384
:101EB0000E9450088FE898E09093B0038093AF039E
:101EC00080E998E09093B4038093B303C3CF2C854B
:101ED0003D854E855F8560E074E284EF90E00E946E
:101EE000CE19205131094109510956954795379529
:101EF00027952093B8008E8990E09595879591E07D
:101F00009093640380934203109288031092870396
:101F1000A1CFD0918703D13208F093C0C091420382
:101F20000E94D1076B017C018091D703811164C0AD
:101F300082E08093D70381E08093D9038FEF809371
:101F4000D6031092FB03D093FA03A4E4B3E0EAEDC6
:101F5000F3E080E0D8137CC01092FC038091FC0376
:101F6000CC0FC82BC093FC038091D803813009F0BB
:101F700073C01092D8030E94D1076B017C0180913D
:101F8000FC038093BB0080918A0390918B03A09106
:101F90008C03B0918D03892B8A2B8B2B99F00E9497
:101FA000D10700918A0310918B0320918C0330910B
:101FB0008D036C197D098E099F09061717072807DD
:101FC0003907D8F18091BC0083FDD9CF85EC80938F
:101FD000BC000E94D1076B017C018091D703823045
:101FE000E9F18091D6038F3F61F18091D603803271
:101FF00041F18091D60325C080918A0390918B0393
:10200000A0918C03B0918D03892B8A2B8B2B09F423
:102010008BCF0E94D10700918A0310918B032091EE
:102020008C0330918D036C197D098E099F09061769
:1020300017072807390708F077CF809189030E9496
:102040006E0810928803109287031092640302CFE7
:102050009D9191938F5F7ECF85EEB9CF80918A035A
:1020600090918B03A0918C03B0918D03892B8A2BC7
:102070008B2B09F4B2CF0E94D10700918A031091F3
:102080008B0320918C0330918D036C197D098E098F
:102090009F09061717072807390708F09ECFCDCFED
:1020A0000F931F93CF93DF938C01C62F642FCC32F5
:1020B000E8F4CA3208F041C0C83271F1C93209F4FB
:1020C00042C080E0C034D0F1CF73F801EC0FF11DB5
:1020D000868D8F3F91F1C031E0F00E94490721E0E9
:1020E000892B09F420E0F801218F27C0CD3289F136
:1020F00040F384EB8C0F823020F7CF73C00FD12FC9
:10210000D11D8E8D411133C061E00E94A00760E0B7
:102110008E8D0E94720711C0025E1F4FD0E0F80141
:1021200081918F018F3F31F061E0D03108F062E0A2
:102130000E94A007DF5FD63191F781E0DF91CF9158
:102140001F910F91089570E090E080E00E94F607E3
:10215000F4CF85E090E0433010F082E090E0880F0B
:10216000991F880F991F05970197F1F7E6CF62E055
:102170000E94A007E2CF60E082E00E94720761E067
:1021800083E00E94720761E084E00E94720760E0D1
:1021900085E00E94720760E086E00E94720760E0BE
:1021A00087E00E94720760E088E00E94720768EE94
:1021B00073E080E090E00C94F607CF92DF92EF920C
:1021C000FF920F931F93CF93DF936C01EB017B0181
:1021D000E40EF51E10E000E0CE15DF0561F0699118
:1021E000D601ED91FC910190F081E02DC601099599
:1021F000080F191FF1CFC801DF91CF911F910F91E7
:10220000FF90EF90DF90CF9008952F923F924F92E2
:102210005F926F927F928F929F92AF92BF92CF9276
:10222000DF92EF92FF920F931F93CF93DF93CDB77F
:10223000DEB728970FB6F894DEBF0FBECDBF7C0186
:102240006C0124E0C20ED11CFC01E057FF4F01904D
:10225000F081E02DC60109958C018E3F9F4F08F05B
:1022600061C0370184E9680E711CF3010190F081AF
:10227000E02DFD83EC835701F2E9AF0EB11CF501AF
:1022800080809180970120593F4F3B832A83F90139
:102290008081813009F470C008F45FC0823009F495
:1022A00076C0833009F482C0F701EC59FF4F918268
:1022B000808232962C813D813183208338978081C2
:1022C000918147969D838C830F3F110511F008F093
:1022D00020C1B6960136110530F40134110558F0CD
:1022E000F701EE57FF4F808191812C813D81280FAE
:1022F000391F3D832C838C819D810196FC012491A3
:1023000021115FC090E080E0EA81FB8120812130D3
:1023100009F4C1C108F4B7C1223009F4BEC12330A9
:1023200009F4C3C181E090E028960FB6F894DEBFAF
:102330000FBECDBFDF91CF911F910F91FF90EF9016
:10234000DF90CF90BF90AF909F908F907F906F90D5
:102350005F904F903F902F900895F701E05AFF4F04
:102360000190F081E02DC60109952C813D81280F57
:10237000391F3D832C8398CFF701E05AFF4F01901E
:10238000F081E02DC6010995881A990A8DCFF701D1
:10239000E05AFF4F0190F081E02DC6010995EC81D4
:1023A000FD81E81BF90BFD83EC837ECFF701E05A3A
:1023B000FF4F0190F081E02DC6010995880E991E0E
:1023C00073CFEC81FD8124912017110609F09AC08A
:1023D000CF010296009709F495CFF701EE59FF4F10
:1023E000F887EF83918380831286739660818F8153
:1023F00098850E94BD0DEF81F8858087F701EA5826
:10240000FF4F60818F8198850E94BD0D582EEF810E
:10241000F8858187970122573F4F3D832C83F9012F
:102420009081EF81F885948781E0911180E0EF81C0
:10243000F8858587F701E958FF4F8080682D8F81E7
:1024400098850E94BD0D382EF701E858FF4F208077
:10245000622D8F8198850E94BD0D982EF701E75857
:10246000FF4F1081612F8F8198850E94BD0D9FEFD6
:10247000910F01E010E0980101C0220F9A95EAF750
:10248000821B8E83EF81F885408414140CF0C4C045
:102490008A94C80101C0880F8A94EAF7381AF68531
:1024A000F983950C2A94C80101C0880F2A94EAF791
:1024B000282E29182F2F422D632DEF81F885828138
:1024C00093810E942B0D4C01EF81F88593838283C9
:1024D0002981422D632D848195810E94440DEF81D5
:1024E000F88595838483F981F13009F49AC008F462
:1024F0004EC0F23009F4A4C0F33009F4B5C0BC01F9
:1025000094014FC0FC0184912C813D81280F311D25
:10251000F0CEF701EA57FF4F80819181EC81FD8178
:10252000E80FF91FFD83EC834F0160E0C4010E94B6
:10253000E80D2C813D81280F391F3D832C8362E0FB
:10254000C4010E94E80D34E0830E911C80179107AE
:1025500060F3EC81FD81849190E0982F882731967B
:10256000E4918E2B009709F4CDCE0817190721F4BA
:102570008C819D8103962ECFEC81FD813296E49172
:102580002C813D812E0F311D3D832C83E2CF9401A0
:10259000240D311D47FC3A95BC01650D711D57FC9A
:1025A0007A958B01AC01B401C6010E945F0B8823B0
:1025B00099F1EF81F885168217824701F3E78F0EB4
:1025C000911C24E7E20EF11CF40160818F81988553
:1025D0000E94BD0D082FF70160818F8198850E94B0
:1025E000BD0D182F40E0602FC6010E945D0D41E037
:1025F000612FC6010E945D0D61E08F8198850E9468
:10260000BD0D8111EFCFEF81F88587818515E4F24B
:102610008485EC81FD818083FE818F2FFF0F990BD4
:1026200073CE0519110957FC139594012F5F3F4F85
:10263000BC01640D711D47FC7A95800E911EB1CFCF
:10264000A8014419510947FC539594012F5F3F4F4E
:102650000519110957FC1395BC016F5F7F4F800F5F
:10266000911F840E951E9DCF9401250D311D57FCA1
:102670003A950419110947FC1395BC016F5F7F4F10
:10268000800F911F8ECFF50120813181820F931F22
:102690009183808347CEF301F7CFF501208131810B
:1026A000281B390B318320833DCEF301F7CF0895EA
:1026B00090E080E00895FC0101900020E9F7319757
:1026C000AF01481B590BBC0184E198E00C94DD106C
:1026D00085ED8093BC0080918A0390918B03A0913B
:1026E0008C03B0918D030796A11DB11D23E0B69513
:1026F000A795979587952A95D1F72091BC0024FD41
:1027000003C01092D703089540918A0350918B0320
:1027100060918C0370918D03452B462B472B69F3F9
:102720000097A105B10541F02AE22A95F1F700C012
:102730000197A109B109E1CF809189030C946E083A
:10274000FC01A081B18150962C9182AD38E0839F2D
:10275000C0011124289FA001299F500D112470E071
:1027600060E080AD91AD0C94051A6F927F928F92CC
:102770009F92AF92BF92CF92DF92EF92FF920F9310
:102780001F93CF93DF936C0188E198E00E94A01320
:102790006091050170E08091040123E030E043E0A6
:1027A00050E090E00E94F70C0E94070F2091030177
:1027B00080910401820F80930401C09102019091E5
:1027C00005019C0F9093050181508E3718F02195DB
:1027D00020930301911164C0C195C09302018091BF
:1027E0000501E82EF12C570193E0A90EB11C909140
:1027F0000401092F10E0833378F0809101019817CC
:1028000058F090E080589F4F801791072CF08091EE
:102810000201819580930201E60180E4C80ED11C7B
:10282000480193E0890E911C8CE9782E662463940C
:10283000888190E0881699060CF4E6C02A81820F00
:10284000911D801791070CF4DFC0898190E0A816D4
:10285000B9060CF4D9C02B81820F911D8E159F05EE
:102860000CF4D2C0788279828091020181958093A4
:102870000201E0910001EA3008F0E6C0E150E930E1
:1028800008F0B8C0F0E0E95BFB4E0C94FF19261588
:1028900076149014A214B414C214D81418151E156A
:1028A0009F3308F49CCF809146028150809346026A
:1028B000823059F460E08DE00E94720780E48093DA
:1028C000040180E38093050187CF813019F460E033
:1028D0008CE0F2CF811183CF60E08BE00E94720721
:1028E00088EC809304018093050179CF61E082E058
:1028F0000E94720761E083E00E94720760E084E05A
:102900000E94720761E085E00E94720761E086E044
:102910000E94720760E087E00E94720761E061C078
:1029200061E082E00E94720761E083E00E9472072A
:1029300061E084E00E94720761E085E00E94720716
:1029400060E0E5CF60E082E00E94720761E083E032
:102950000E94720761E084E00E94720760E085E0F7
:102960000E94720760E01FC061E082E00E9472076F
:1029700060E083E00E94720761E084E00E947207D9
:1029800061E0EDCF61E082E00E94720760E083E0E9
:102990000E94720761E084E00E94720761E085E0B6
:1029A0000E94720761E086E00E94720761E0B3CF87
:1029B00061E082E00E94720761E083E00E9472079A
:1029C00061E084E00E94720760E085E00E94720787
:1029D00060E086E00E94720760E087E00E94720774
:1029E00060E088E00E94720768EE73E080E090E0AB
:1029F0000E94F607809100018F5F80930001809113
:102A0000FD038F5F8093FD032496CC15DD0509F04F
:102A10000FCFDF91CF911F910F91FF90EF90DF903B
:102A2000CF90BF90AF909F908F907F906F900895C0
:102A300061E082E00E94720761E0A9CF61E082E07C
:102A40000E94720761E095CF609200010E94BB1066
:102A5000D1CF0F931F93CF938C01C62F88E198E0BD
:102A60000E94A01388E690E00E94F40D1092A7083F
:102A70001092A6086C2F70E0665F7F4F7093A908D4
:102A80006093A808C8010E945B13CF911F910F911A
:102A90000C94070F80E480937C0080917A0080641E
:102AA00080937A0080917A0086FDFCCF8091780037
:102AB0009091790088E198E00E94A01323E030E033
:102AC00040E850E066E370E090E080E00E94F70CA0
:102AD0000E94070F1092010108950F931F93CF9347
:102AE000DF938C0188E198E00E94A013E801005C6C
:102AF0001F4F2B8130E04A8150E0698170E088816E
:102B000090E00E94F70C24960C171D0791F7DF91B7
:102B1000CF911F910F910C94070F1F920F920FB638
:102B20000F9211242F933F938F939F93AF93BF9353
:102B30008091000490910104A0910204B0910304DB
:102B40003091FF0323E0230F2D3758F50196A11D87
:102B5000B11D2093FF038093000490930104A09380
:102B60000204B09303048091040490910504A091A1
:102B70000604B09107040196A11DB11D80930404C1
:102B800090930504A0930604B0930704BF91AF91FE
:102B90009F918F913F912F910F900FBE0F901F909B
:102BA000189526E8230F0296A11DB11DD2CF1F92C2
:102BB0000F920FB60F9211242F933F934F935F9371
:102BC0006F937F938F939F93AF93BF93EF93FF93F5
:102BD0008091B900887F803609F44AC0F0F58832C8
:102BE00009F4A7C018F5803109F49BC0B8F4882314
:102BF00009F4F9C0883009F494C0FF91EF91BF91B6
:102C0000AF919F918F917F916F915F914F913F9184
:102C10002F910F900FBE0F901F901895883109F4D7
:102C200088C0803251F78093D60314C0803409F4F1
:102C30009DC040F48033B9F38833F9F68093D6030E
:102C400085ECB0C0803509F485C0883509F496C09C
:102C5000883499F60E946813D0CF883909F48CC063
:102C600038F5883729F050F4883611F0803729F686
:102C700083E08093D7031092D50357C0883809F4B6
:102C80007BC0803919F0803809F0B7CF8091D50327
:102C9000803208F071C0E091D50381E08E0F8093FF
:102CA000D5038091BB00F0E0EB54FC4F80833DC026
:102CB000803B39F0E0F4803A09F479C0883A09F0B1
:102CC0009CCF84E08093D7031092B2031092B1039B
:102CD000E091AF03F091B00309958091B1038111A8
:102CE0000FC081E08093B10310928F0309C0803C34
:102CF00009F4A6CF883C09F4A3CF883B09F07DCF27
:102D0000E091B20381E08E0F8093B203F0E0E157CF
:102D1000FC4F80818093BB009091B2038091B103FE
:102D200029C08091FC038093BB0085EC8093BC009C
:102D300064CF9091FB038091FA03981758F5E091C6
:102D4000FB0381E08E0F8093FB03F0E0E652FC4F23
:102D50008081E9CFE091FB0381E08E0F8093FB033C
:102D60008091BB00F0E0E652FC4F80839091FB0322
:102D70008091FA039817C8F285E8D8CFE091FB0359
:102D800081E08E0F8093FB038091BB00F0E0E65260
:102D9000FC4F80838091D90381115CCF81E08093C7
:102DA000D80384EA8093BC001092D70326CF85EC29
:102DB0008093BC001092D7038091D503803230F409
:102DC000E091D503F0E0EB54FC4F10826091D50305
:102DD00070E0E091B303F091B40385EB93E00995C3
:102DE0001092D5030ACF1092D60334CFCF9310920E
:102DF0000B0410920A0488EE93E0A0E0B0E0809308
:102E00000C0490930D04A0930E04B0930F0480EB78
:102E100092E090930904809308041092170810928E
:102E2000160885E896E09093A5088093A408109270
:102E3000A7081092A6081092A9081092A80810924C
:102E4000300882EC92E09093150880931408109259
:102E500019081092180810922D0810922408109248
:102E6000250810922608109227088FEF80932E08CD
:102E700080933208E6E3F8E08CE498E0CFEFC1936A
:102E80008E179F07E1F78EE999E090931D088093D4
:102E90001C0883E99AE090931F0880931E088FE036
:102EA0009FE0909321088093200880E590E1909323
:102EB00023088093220830E020E040E069E088E1C8
:102EC00098E00E949E0910927308109272088FE891
:102ED00096E090934D0880934C0884E194E09093A1
:102EE00051088093500888E080935208109253084C
:102EF000109281081092A10810929D0881E08093A1
:102F0000A2088093A3088AEC92E090934F088093E4
:102F10004E0888E198E00E940D0B10926B08109209
:102F20006A0810926F0810926E088FEF9FEF9093CF
:102F30006D0880936C089093710880937008E091FD
:102F40004E08F0914F080280F381E02D88E198E06F
:102F500009958EEF96E0909375088093740810920F
:102F60008408C0934108C0934208C0934308CF919E
:102F70000895789484B5826084BD84B5816084BDF1
:102F800085B5826085BD85B5816085BD80916E0007
:102F9000816080936E001092810080918100826038
:102FA0008093810080918100816080938100809175
:102FB00080008160809380008091B1008460809364
:102FC000B1008091B00081608093B00080917A0060
:102FD000846080937A0080917A00826080937A0086
:102FE00080917A00816080937A0080917A00806875
:102FF00080937A001092C100E0911C08F0911D08A6
:1030000030E020E040E06AE088E198E009958091B6
:10301000A308882321F088E198E00E94A01380E0B3
:103020000E94010788E198E00E94AB0EC09153080E
:1030300080915208C80FE0911808F0911908818911
:10304000C81708F477C188E198E00E941E0980E063
:103050000E940107E0911C08F0911D0830E020E07B
:1030600040E06BE088E198E0099561E082E00E9431
:10307000A00761E083E00E94A00761E084E00E9475
:10308000A00761E085E00E94A00761E086E00E9461
:10309000A00761E087E00E94A00761E088E00E944D
:1030A000A00761E08BE00E94A00761E08CE00E9435
:1030B000A00761E08DE00E94A00762E089E00E9425
:1030C000A00762E08AE00E94A00762E080E00E9420
:1030D000A00761E08BE00E94720761E08CE00E9433
:1030E000720761E08DE00E94720761E082E00E9459
:1030F000720761E083E00E94720761E084E00E9451
:10310000720761E085E00E94720761E086E00E943C
:10311000720761E087E00E94720760E088E00E9429
:10312000720768EE73E080E090E00E94F607CAE064
:10313000D0E004E110E088E2E82EF12C90E0C92E06
:1031400090E0D92E88E198E00E94A01381E394E0FA
:103150000E94F40DD093A708C093A6081093A90865
:103160000093A80880ED92E00E945B13D093A7081B
:10317000C093A608F092A908E092A80886ED92E014
:103180000E945B138091FE03882309F4DDC088E26E
:1031900090E01092A7081092A6089093A908809337
:1031A000A8088BED92E00E945B130E94070F89E054
:1031B0000E944907892B69F481E09091FE039111E7
:1031C00080E08093FE0368EC70E080E090E00E9475
:1031D000F6078AE00E944907892B69F481E0909103
:1031E000FE03911180E08093FE0368EC70E080E0C4
:1031F00090E00E94F60780E00E944907892B09F0C1
:1032000092C08091FE038111A2C080914602882362
:1032100009F489C08091FD03813160F486E092E079
:103220000E94B51386E092E00E946D150E944A1537
:103230000E94070F8091FD038151803160F486EC7C
:1032400091E00E94B51386EC91E00E946D150E94FA
:103250004A150E94070F8091FD038152803160F46E
:1032600086E891E00E94B51386E891E00E946D1512
:103270000E944A150E94070F8091FD0381538031FF
:1032800060F486E491E00E94B51386E491E00E9428
:103290006D150E944A150E94070F8091FD0381540D
:1032A0008F3060F486E091E00E94B51386E091E0F3
:1032B0000E946D150E944A150E94070F8091FD0320
:1032C000982F9F7D903121F0803211F08034E1F40D
:1032D00088E198E00E94A01381E394E00E94F40D3D
:1032E000D093A708C093A6081093A9080093A80834
:1032F0008DED92E00E945B130E94070F68E873E176
:1033000080E090E00E94F6078091460281117DCF17
:103310006EE189EE92E00E94291560ED77E080E091
:1033200090E00E94F607C114D10409F40BCF0E946B
:10333000000008CF8091A308882321F088E198E05D
:103340000E94A0138C2F6CCE84E190E022CF65E028
:1033500083EF92E00E94291560ED77E080E090E035
:103360000E94F6076EE186E093E00E94291560ED69
:1033700077E080E090E00E94F60768E28BE193E05E
:103380000E942915FFCF0E94F019A59F900DB49FB0
:10339000900DA49F800D911D11240895A1E21A2E75
:1033A000AA1BBB1BFD010DC0AA1FBB1FEE1FFF1FE9
:1033B000A217B307E407F50720F0A21BB30BE40B39
:1033C000F50B661F771F881F991F1A9469F7609580
:1033D0007095809590959B01AC01BD01CF0108953A
:1033E000A29FB001B39FC001A39F700D811D112446
:1033F000911DB29F700D811D1124911D0895EE0F36
:10340000FF1F0590F491E02D0994DC0101C06D933C
:0C34100041505040E0F70895F894FFCFC1
:10341C00013BFF01403002021003380210036E0220
:10342C00100314071003260710034A0710035C0748
:10343C001003020C1003380C10036E0C1003141143
:10344C001003261110034A1110035C11100302160D
:10345C0010036E1610031D0210032F0210034102FD
:10346C001003530210030B071003650710030B0C1A
:10347C0010032F0C1003410C1003650C10030B11DF
:10348C001003651110031D1610032F16100341169F
:10349C001003531610031D0210032F0210034102D8
:1034AC001003530210031D071003530710031D0CC8
:1034BC001003530C10031D1110032F111003411195
:1034CC001003531110032F161003411610031D1B6C
:1034DC001003531B10033802100326071003380780
:1034EC0010034A071003140C1003260C1003380C9D
:1034FC0010034A0C10035C0C10030211100314117E
:10350C00100326111003381110034A1110035C111B
:10351C0010036E1110030202100314021003260292
:10352C001003380210034A0210035C0210036E02EF
:10353C0010031407100326071003380710034A075B
:10354C0010035C071003260C1003380C10034A0CF4
:10355C00100338111003031815A015C019FF181506
:10356C00A115C819FF1815AE19FF1815AF19FF18BA
:10357C0015AE15D5168015A8163F15D31600154097
:10358C00158D16141520160015A115C815DA16126E
:10359C00158116CF15D916F115DB1640152E15A46D
:1035AC0015A619FF0001140A6464323200127A0065
:1035BC000004289610080000800040000000000065
:1035CC00E808BB0858139108B408A1089208000039
:1035DC0000000511DD10581357130D0B980BFD0A45
:1035EC0053746172740045786974003E00427265D0
:1035FC00616B2054696D65210047616D65204F76C4
:10360C006572005468616E6B20796F7520666F72FD
:10361C0020796F757200696E7465726573742069B8
:0E362C006E206F75722067616D65004242006E
:00000001FF
