:020000040000FA
:100000000C9458000C9480000C9480000C94800098
:100010000C9480000C9480000C9480000C94800060
:100020000C9480000C9480000C9480000C94800050
:100030000C9480000C9480000C9480000C94800040
:100040000C9488030C9480000C94F8030C94D20355
:100050000C9480000C9480000C9480000C94800020
:100060000C942A040C948000000000002500280055
:100070002B00040404040404040402020202020229
:10008000030303030303010204081020408001025C
:1000900004081020010204081020000000080002DB
:1000A00001000003040700000000000000004905F3
:1000B00011241FBECFEFD8E0DEBFCDBF11E0A0E01E
:1000C000B1E0E2E2FFE002C005900D92A839B1076D
:1000D000D9F723E0A8E9B1E001C01D92A430B2072E
:1000E000E1F710E0C8E5D0E004C02197FE010E94CE
:1000F0008907C735D107C9F70E9482050C948F077D
:100100000C94000090E0FC01E656FF4F2491FC01A6
:10011000EA57FF4F3491FC01EE58FF4FE491EE2374
:10012000C9F0222339F0233001F1A8F4213019F16C
:10013000223029F1F0E0EE0FFF1FE859FF4FA591A3
:10014000B4918FB7F894EC91611126C030953E239D
:100150003C938FBF08952730A9F02830C9F0243090
:1001600049F7809180008F7D03C0809180008F7758
:1001700080938000DFCF84B58F7784BDDBCF84B5DB
:100180008F7DFBCF8091B0008F778093B000D2CF6E
:100190008091B0008F7DF9CF3E2BDACF3FB7F89436
:1001A0008091570290915802A0915902B0915A0241
:1001B00026B5A89B05C02F3F19F00196A11DB11DC2
:1001C0003FBFBA2FA92F982F8827BC01CD01620FFE
:1001D000711D811D911D42E0660F771F881F991FB9
:1001E0004A95D1F7089508950895AF92BF92CF929E
:1001F000DF92EF92FF920F931F93CF93DF936C01E7
:100200007B018B01040F151FEB015E01AE18BF08C7
:10021000C017D10759F06991D601ED91FC91019079
:10022000F081E02DC6010995892B79F7C501DF9191
:10023000CF911F910F91FF90EF90DF90CF90BF90E3
:10024000AF900895FC01538D448D252F30E0842F0D
:1002500090E0821B930B541710F0CF9608950197EE
:100260000895FC01918D828D981761F0A28DAE0FDB
:10027000BF2FB11D5D968C91928D9F5F9F73928F62
:1002800090E008958FEF9FEF0895FC01918D828D8E
:10029000981731F0828DE80FF11D858D90E008955B
:1002A0008FEF9FEF0895FC01918D228D892F90E0B3
:1002B000805C9F4F821B91098F73992708958BE56E
:1002C00092E00E94530121E0892B09F420E0822F63
:1002D000089580E090E0892B29F00E945F01811150
:1002E0000C9400000895FC01A48DA80FB92FB11D36
:1002F000A35ABF4F2C91848D90E001968F7399275C
:10030000848FA689B7892C93A089B1898C91837039
:1003100080648C93938D848D981306C00288F38932
:10032000E02D80818F7D80830895EF92FF920F935F
:100330001F93CF93DF93EC0181E0888F9B8D8C8D91
:1003400098131AC0E889F989808185FF15C09FB785
:10035000F894EE89FF896083E889F9898081837048
:10036000806480839FBF81E090E0DF91CF911F91F7
:100370000F91FF90EF900895F62E0B8D10E00F5F18
:100380001F4F0F731127E02E8C8D8E110CC00FB6EE
:1003900007FCFACFE889F989808185FFF5CFCE0186
:1003A0000E947301F1CFEB8DEC0FFD2FF11DE35A8D
:1003B000FF4FF0829FB7F8940B8FEA89FB89808109
:1003C0008062CFCFCF93DF93EC01888D8823B9F083
:1003D000AA89BB89E889F9898C9185FD03C0808150
:1003E00086FD0DC00FB607FCF7CF8C9185FFF2CFCD
:1003F000808185FFEDCFCE010E947301E9CFDF91AF
:10040000CF9108952091D901260F3327331F213230
:100410003105ECF420912802FC0190E080E02430CA
:1004200069F082E00895A091D9012191AC0147546F
:100430005E4FA40FB52FB11D2C930196861798F32C
:100440008091D901680F6093D90180E0089581E01F
:1004500008951092280281E08093270210920202F0
:1004600061E082E10E94820061E083E10E948200FB
:10047000E9EBF0E080818E7F808380818D7F8083B7
:1004800088E48093B80085E48093BC000895CF93FE
:10049000DF9391E09093B8018823B9F0C091B80040
:1004A000D091BA008091BC008A7B8093BC0060E050
:1004B00082E10E94820060E083E10E9482000E944B
:1004C0002902D093BA00C093B800DF91CF9108956C
:1004D0000895E091010280910002E81730F4F0E005
:1004E000E856FE4F808190E008958FEF9FEF0895CA
:1004F00090910102809100022FEF3FEF981748F48E
:10050000E92FF0E0E856FE4F208130E09F5F9093A6
:100510000102C90108958091000290910102891B96
:10052000990B0895CF92DF92EF92FF920F931F9352
:10053000CF93DF937C01CB018A0120912E022223ED
:1005400089F0EB016B01C40ED51ECC15DD0569F0F9
:100550006991D701ED91FC910190F081E02DC701E7
:100560000995F3CF642F0E940202C801DF91CF9159
:100570001F910F91FF90EF90DF90CF900895CF9350
:10058000DF931F92CDB7DEB7698320912E0222231D
:10059000F9F020915102203258F021E030E0FC01C6
:1005A0003383228390E080E00F90DF91CF91089514
:1005B00080912F02E82FF0E0E05DFD4F998190835C
:1005C0008F5F80932F028093510281E090E0ECCF07
:1005D00061E0CE0101960E940202F7CF90E080E038
:1005E0000895FC0101900020E9F73197AF01481B05
:1005F000590BBC018BE592E00C94F5008F929F9211
:10060000AF92BF920F931F93CF93DF93CDB7DEB717
:10061000A1970FB6F894DEBF0FBECDBF19A242302E
:1006200008F44AE08E010F5D1F4F842E912CB12CEF
:10063000A12CA50194010E946707E62FB901CA0108
:10064000EA30F4F4E05DD801EE938D01232B242BE6
:10065000252B79F790E080E0109719F0CD010E94EA
:10066000F102A1960FB6F894DEBF0FBECDBFDF91A9
:10067000CF911F910F91BF90AF909F908F90089551
:10068000E95CE1CFCF93DF930E94F102EC0184E2B9
:1006900091E00E94F1028C0F9D1FDF91CF91089590
:1006A00085ED8093BC0080912A0290912B02A0914D
:1006B0002C02B0912D020796A11DB11D23E0B69525
:1006C000A795979587952A95D1F72091BC0024FD91
:1006D00003C010922802089540912A0250912B02E3
:1006E00060912C0270912D02452B462B472B69F30C
:1006F0000097A105B10541F02AE22A95F1F700C063
:100700000197A109B109E1CF809129020C94470218
:100710001F920F920FB60F9211242F933F938F9336
:100720009F93AF93BF938091530290915402A091F5
:100730005502B09156023091520223E0230F2D371B
:1007400058F50196A11DB11D2093520280935302CA
:1007500090935402A0935502B09356028091570291
:1007600090915802A0915902B0915A020196A11D90
:10077000B11D8093570290935802A0935902B093F1
:100780005A02BF91AF919F918F913F912F910F90FE
:100790000FBE0F901F90189526E8230F0296A11DFB
:1007A000B11DD2CF1F920F920FB60F9211242F932B
:1007B0003F934F935F936F937F938F939F93AF93E9
:1007C000BF93EF93FF938BE592E00E947301FF913B
:1007D000EF91BF91AF919F918F917F916F915F91B9
:1007E0004F913F912F910F900FBE0F901F90189532
:1007F0001F920F920FB60F9211242F938F939F93F6
:10080000EF93FF93E0916B02F0916C028081E09195
:100810007102F091720282FD1BC09081809174027E
:100820008F5F8F7320917502821741F0E0917402FF
:10083000F0E0E55AFD4F958F80937402FF91EF91A0
:100840009F918F912F910F900FBE0F901F90189531
:100850008081F4CF1F920F920FB60F9211242F9325
:100860003F934F935F936F937F938F939F93AF9338
:10087000BF93EF93FF938091B900887F803609F48E
:100880004AC0F0F5883209F4A7C018F5803109F4A0
:100890009BC0B8F4882309F4F9C0883009F494C0E7
:1008A000FF91EF91BF91AF919F918F917F916F9148
:1008B0005F914F913F912F910F900FBE0F901F901E
:1008C0001895883109F488C0803251F78093260248
:1008D00014C0803409F49DC040F48033B9F38833E8
:1008E000F9F68093260285ECB0C0803509F485C006
:1008F000883509F496C0883499F60E945003D0CF09
:10090000883909F48CC038F5883729F050F48836D6
:1009100011F0803729F683E0809328021092FB01C2
:1009200057C0883809F47BC0803919F0803809F045
:10093000B7CF8091FB01803208F071C0E091FB01DC
:1009400081E08E0F8093FB018091BB00F0E0E552C7
:10095000FE4F80833DC0803B39F0E0F4803A09F4DB
:1009600079C0883A09F09CCF84E0809328021092E5
:10097000DA011092D901E091FE01F091FF01099591
:100980008091D90181110FC081E08093D90110922B
:10099000B90109C0803C09F4A6CF883C09F4A3CF73
:1009A000883B09F07DCFE091DA0181E08E0F8093E2
:1009B000DA01F0E0E754FE4F80818093BB00909114
:1009C000DA018091D90129C0809103028093BB0094
:1009D00085EC8093BC0064CF909125028091240225
:1009E000981758F5E091250281E08E0F809325023B
:1009F000F0E0EC5FFD4F8081E9CFE091250281E0DE
:100A00008E0F809325028091BB00F0E0EC5FFD4FDC
:100A1000808390912502809124029817C8F285E87E
:100A2000D8CFE091250281E08E0F8093250280913E
:100A3000BB00F0E0EC5FFD4F8083809127028111C5
:100A40005CCF81E08093020284EA8093BC00109224
:100A5000280226CF85EC8093BC001092280280915A
:100A6000FB01803230F4E091FB01F0E0E552FE4FF3
:100A700010826091FB0170E0E091FC01F091FD01BA
:100A80008BED91E009951092FB010ACF109226029E
:100A900034CFEBE5F2E01382128288EE93E0A0E01F
:100AA000B0E084839583A683B78324E031E031836B
:100AB000208325EC30E03587248724EC30E037872D
:100AC000268720EC30E0318B208B21EC30E0338B1B
:100AD000228B22EC30E0358B248B26EC30E0378BF8
:100AE000268B118E128E138E148EE8EFF2E0138295
:100AF000128284839583A683B78386E191E09183F4
:100B000080830895789484B5826084BD84B58160C3
:100B100084BD85B5826085BD85B5816085BD8091C8
:100B20006E00816080936E00109281008091810040
:100B30008260809381008091810081608093810038
:100B4000809180008160809380008091B1008460FA
:100B50008093B1008091B00081608093B00080915B
:100B60007A00846080937A0080917A00826080931A
:100B70007A0080917A00816080937A0080917A0077
:100B8000806880937A001092C10010920102109246
:100B9000000210922F02109251020E94290283EF4C
:100BA00090E09093FF018093FE0184EF90E090939A
:100BB000FD018093FC01E0916B02F0916C0282E0F8
:100BC0008083E0916702F09168021082E0916902EF
:100BD000F0916A0280E1808310927302E0916F02CB
:100BE000F091700286E08083E0916D02F0916E02D8
:100BF000808180618083E0916D02F0916E0280813E
:100C000088608083E0916D02F0916E02808180683F
:100C10008083E0916D02F0916E0280818F7D8083F0
:100C200087E291E00E94420325EE222E35EC332E1E
:100C300040E0A42E40E0B42E52E0852E99249A94F0
:100C400084E391E00E944203C12CD12C7601C3942D
:100C5000D0E0C0E001E01C2D00932E02C0925002B3
:100C600010922F02109251020E94CE002B013C01E3
:100C700080912802811162C080922802009327028D
:100C800090922602109225021092240210920302E2
:100C900090910302812F880F892B8093030280910A
:100CA0000202813009F0D1C0109202020E94CE00EF
:100CB0002B013C01809103028093BB0080912A02AA
:100CC00090912B02A0912C02B0912D02892B8A2B9E
:100CD0008B2BA1F00E94CE0020912A0230912B0292
:100CE00040912C0250912D026419750986099709CB
:100CF000261737074807590708F441C08091BC0000
:100D000083FDD8CF3092BC000E94CE002B013C0165
:100D100080912802823009F49BC0809126028F3F87
:100D200009F4B8C080912602803209F4B5C08091E0
:100D30002602803309F4B2C084E026C080912A02E2
:100D400090912B02A0912C02B0912D02892B8A2B1D
:100D50008B2B09F48DCF0E94CE0020912A02309176
:100D60002B0240912C0250912D02641975098609BD
:100D70009709261737074807590708F079CF809158
:100D800029020E94470285E010922F021092510220
:100D900010922E02811184C080E491E00E94F10241
:100DA000103120F48FE591E00E94F10240E1C7018B
:100DB000B6010E94FE0284E291E00E94F1022196B7
:100DC0002FEFC21AD20AE20AF20A8FE7C816D1043C
:100DD000E104F10409F03FCF8CE791E0CD2B11F055
:100DE00082E991E00E9442030E94CE002B013C0167
:100DF00088E8C82E83E1D82EE12CF12C0E94CE0089
:100E00006419750986099709683E73408105910543
:100E1000A8F321E0C21AD108E108F10888EE480ED3
:100E200083E0581E611C711CC114D104E104F1045B
:100E300029F7A114B10409F403CF0E945F018823AC
:100E400009F4FECE0E940000FBCE2092BC005CCFD5
:100E500080912A0290912B02A0912C02B0912D0238
:100E6000892B8A2B8B2B09F453CF0E94CE00209123
:100E70002A0230912B0240912C0250912D026419CC
:100E8000750986099709261737074807590708F093
:100E90003FCF75CF80E078CF82E076CF83E074CF0C
:100EA000843009F08DCF81E691E00E94F10210318B
:100EB00020F48FE591E00E94F10240E1C701B60104
:100EC0000E94FE0284E291E00E94F10279CFA1E249
:100ED0001A2EAA1BBB1BFD010DC0AA1FBB1FEE1FB4
:100EE000FF1FA217B307E407F50720F0A21BB30BFF
:100EF000E40BF50B661F771F881F991F1A9469F77B
:100F000060957095809590959B01AC01BD01CF01D6
:100F10000895EE0FFF1F0590F491E02D0994F894C9
:100F2000FFCF000000009501F5002201E20153010E
:100F30003101450100000000BF029202EE0268028A
:100F40008B02780269020D0A000A4932432053637A
:100F5000616E6E6572005363616E6E696E672E2EF0
:100F60002E004932432064657669636520666F759B
:100F70006E642061742061646472657373203078DC
:100F8000003000556E6B6E6F77206572726F722045
:100F900061742061646472657373203078004E6FF1
:100FA00020493243206465766963657320666F75F6
:0A0FB0006E640A00646F6E650A00AB
:107E0000112484B714BE81FFF0D085E080938100F7
:107E100082E08093C00088E18093C10086E0809377
:107E2000C20080E18093C4008EE0C9D0259A86E02C
:107E300020E33CEF91E0309385002093840096BBD3
:107E4000B09BFECF1D9AA8958150A9F7CC24DD24C4
:107E500088248394B5E0AB2EA1E19A2EF3E0BF2EE7
:107E6000A2D0813461F49FD0082FAFD0023811F036
:107E7000013811F484E001C083E08DD089C08234E0
:107E800011F484E103C0853419F485E0A6D080C0E4
:107E9000853579F488D0E82EFF2485D0082F10E0AE
:107EA000102F00270E291F29000F111F8ED06801E7
:107EB0006FC0863521F484E090D080E0DECF843638
:107EC00009F040C070D06FD0082F6DD080E0C81688
:107ED00080E7D80618F4F601B7BEE895C0E0D1E017
:107EE00062D089930C17E1F7F0E0CF16F0E7DF06D8
:107EF00018F0F601B7BEE89568D007B600FCFDCFD4
:107F0000A601A0E0B1E02C9130E011968C91119780
:107F100090E0982F8827822B932B1296FA010C0160
:107F200087BEE89511244E5F5F4FF1E0A038BF0790
:107F300051F7F601A7BEE89507B600FCFDCF97BE46
:107F4000E89526C08437B1F42ED02DD0F82E2BD052
:107F50003CD0F601EF2C8F010F5F1F4F84911BD097
:107F6000EA94F801C1F70894C11CD11CFA94CF0C13
:107F7000D11C0EC0853739F428D08EE10CD085E9AC
:107F80000AD08FE07ACF813511F488E018D01DD067
:107F900080E101D065CF982F8091C00085FFFCCF94
:107FA0009093C60008958091C00087FFFCCF809118
:107FB000C00084FD01C0A8958091C6000895E0E648
:107FC000F0E098E1908380830895EDDF803219F02E
:107FD00088E0F5DFFFCF84E1DECF1F93182FE3DFCA
:107FE0001150E9F7F2DF1F91089580E0E8DFEE27F6
:047FF000FF270994CA
:027FFE00040479
:00000001FF
