:100000000C94A9020C94D1020C94D1020C94D1024C
:100010000C94D1020C94D1020C94D1020C94D10214
:100020000C94D1020C94D1020C94D1020C94D10204
:100030000C94D1020C94D1020C94D1020C94D102F4
:100040000C94F40E0C94D1020C94D1020C94D102B5
:100050000C94D1020C94D1020C94D1020C94D102D4
:100060000C943E0F0C94D1020000000023002600E7
:10007000290000000000240027002A0000000000E2
:10008000250028002B0004040404040404040202D4
:100090000202020203030303030301020408102007
:1000A0004080010204081020010204081020000012
:1000B0000008000201000003040700000000000027
:1000C00000005F00020204040304050C0BFFFE089D
:1000D000FE08FE016A032C0471200500CC092108EA
:1000E00082C4C991F2082207336D4BB202231087F4
:1000F000447CCAA81C3365548E9932AA012410A5E9
:100100003C6B1E2AA938E28849A5A1230025158A3F
:10011000C49DD44A655523554995544649E5A8726E
:100120005600261188C4AC862A2395A186494B73B4
:10013000A4A5002706316DCA00280BA4B47A8C4A06
:10014000BA754601290AA4B44A46D974C91A2A09BB
:10015000555C6B55AD66042B0B554C6B4671C88CCA
:1001600022002C0742B4C9480A2D06135CCA002E8F
:100170000622C4C9082F0A84C47A99638E390330D1
:100180000E8544DB52238D34D24823A905310984DE
:10019000459B9ABE4600320C8544DB52236929F305
:1001A0003802330E8544DB5223498D461A492D000F
:1001B000340B8544EB95549A636439350D8544CBF3
:1001C0002BA391D14823A905360E8544DB52238FFA
:1001D000A4461A492D00370A8444CBA1638E2E0011
:1001E000380E8544DB5223A9A5461A492D00390E45
:1001F0008544DB52238DA4461E492D003A0752C484
:10020000C988233B0972B4C9882329003C0956CC0C
:100210003B9236D6583D083554CBD070083E0A562E
:10022000CC8BC61A4B1B013F0A8544DBB2A5CCB46C
:10023000094012A93CFD465A6698E248FE543293A2
:100240009A1E11411289433CCAD4C61B468DA21E78
:100250002366A4E608420E8744CC694935A4259557
:100260001C430143108744ECAA47461B6AA8518DE2
:10027000E24800440F88C4CCADA3565A69A5954EF8
:100280006302450E86C4CB25938A23AA28931C2398
:10029000460E86C4CB25934C2A8EA8A21E11470E6B
:1002A0008744ECAA47461BCAA155962B481289449D
:1002B000CD482369A9E518514B2DB51A69044909A0
:1002C00084C4CA48D2D7084A0C86C4EBC81A69E469
:1002D0002BCA094B1189C4CC88769619A90C87467C
:1002E000525B230E4C0F86C4CBC81A69A4914632C8
:1002F000C931024D158B44CEC823ED99549249253E
:10030000995492D18CD652234E1188C48C5E3ACE29
:1003100038524C23C699D54E004F0E8744ECAEF4AC
:10032000C8238FAC729E00500F8744CC694925D5F5
:10033000901A6A3432005113983CEC46396AA595FC
:10034000562349A5D148192A00520D88C4CC2D3D09
:10035000F3D0D235D200530D86C4DB39F2D068E831
:1003600011D702540E86C4CB915C51238D34D22315
:1003700001551088C4CC484B471D75D451479D4743
:1003800004561188C4CC484B479D55462A2395A155
:10039000C61A57158B44CE486A4919CDA8928A2AA5
:1003A000A9BC36D21A6909581088C4CC484BC795E5
:1003B000D1C61BA599D511591188C4CC484B679556
:1003C00091CA50638D351C115A0B86C4CB91F57CB4
:1003D000EB31025B08A334CA50FE1A5C0C84C44A99
:1003E000CE28679433CA015D08A334CAF2D7105EE1
:1003F0000A65546B4679A65A075F061634CB01602E
:100400000623748A14610954C4CA56238D01620EEE
:1004100086C48B461A69641D71C4B50063095544CE
:10042000DB925BA605640E86C4FB461AA931E288FE
:10043000232D0365095544DB52E34623660C85C42E
:10044000EA52498EA8CD9100670D86343B8A533914
:10045000F7D8632400680E86C48B461A69641D7140
:10046000C41105690A84C49AD470BA46006A09A303
:10047000B49ABDBC46026B0E86448B461A69648DE5
:1004800038A2B2066C0884C4CAF46B046D0D5AC459
:100490008D92EA11E5887244036E0B56C48B524765
:1004A0001C7144016F0C56C4DB4872C411D548005E
:1004B000700D76B48B52471C718CA4D106710E77E7
:1004C000B4DB505249A5A6D250A311720954C48A74
:1004D0001A239A00730954C4DA90230E0574097321
:1004E000445A52439902750B56C48B1C71C49196A1
:1004F00001760B56C4CBB2A2CA1A4900770C5944F4
:10050000CDF28A4A65A59109780A56C4CBB2B24E9B
:10051000D600790D76B4CBB2A2CA1AC9AD11007A51
:10052000085544CB25CD317B0AA4B4AA9296966E89
:10053000017C068146CB217D0AA4B48A96B6922E10
:10054000097E0726DCDB520B00000004FFFF0000E1
:100550005D1011241FBECFEFD8E0DEBFCDBF11E08C
:10056000A0E0B1E0E4ECF5E202C005900D92A839FC
:10057000B107D9F727E0A8E9B1E001C01D92A23286
:10058000B207E1F712E0C9EAD2E004C02197FE0108
:100590000E94C412C83AD107C9F70E9420110C94D6
:1005A000E0120C940000662329F06A3019F0862FBF
:1005B00090E008958FEF9FEF0895AF92BF92CF9292
:1005C000DF92EF92FF920F93CF93DF93EC01DA016A
:1005D0007901942F9770E1E0F0E09F01092E01C0AE
:1005E000220F0A94EAF7522F6E018AE8C80ED11C36
:1005F000F601808140E0823018F4422F813049F1C9
:100600005D01F8EFAF22E8ADF9AD28813981D9015C
:1006100050968C918A9D90018B9D300D1124620F14
:10062000731FDF01A60FB71F01111AC0EA0EFB1ED0
:100630008C91842B85278D93AE15BF05C9F7DF916B
:10064000CF910F91FF90EF90DF90CF90BF90AF9040
:10065000089550E0D5CF440F550FE114F10479F31C
:100660003C91342B35273C939F5F9770E1E0EE1A65
:10067000F1089111F0CF2CAD3DADA20FB31FF601E3
:100680008081823028F4813009F051E041E0E5CFEB
:1006900051E0E3CF80E0089590E080E00895CF93AB
:1006A000DF93CCE8D6E08FAFEAADFBAD0190F081EF
:1006B000E02D80E996E00995EAADFBAD0280F3817B
:1006C000E02D80E996E0DF91CF9109949B01DC0158
:1006D0001896ED91FC9141E067E10994833081F037
:1006E00028F4813099F08230A9F008958730A9F07C
:1006F0008830C9F08430B1F4809180008F7D03C0D0
:10070000809180008F7780938000089584B58F77E3
:1007100084BD089584B58F7DFBCF8091B0008F7725
:100720008093B00008958091B0008F7DF9CF1F9322
:10073000CF93DF93282F30E0F901E255FF4F8491EA
:10074000F901E656FF4FD491F901EA57FF4FC491E2
:10075000CC23A9F0162F81110E946E03EC2FF0E03C
:10076000EE0FFF1FE458FF4FA591B4918FB7F89497
:10077000EC91111108C0D095DE23DC938FBFDF917F
:10078000CF911F910895DE2BF8CFCF93DF9390E0A8
:10079000FC01E656FF4F24918A579F4FFC0184913C
:1007A0008823D1F090E0880F991FFC01EE58FF4F8D
:1007B000A591B491FC01E458FF4FC591D4916230EA
:1007C00071F49FB7F8943C91822F809583238C938A
:1007D000E8812E2B28839FBFDF91CF9108958FB79B
:1007E000F894EC912E2B2C938FBFF6CF3FB7F89453
:1007F00080917C0290917D02A0917E02B0917F0257
:1008000026B5A89B05C02F3F19F00196A11DB11D6B
:100810003FBFBA2FA92F982F8827BC01CD01620FA7
:10082000711D811D911D42E0660F771F881F991F62
:100830004A95D1F708958F929F92AF92BF92CF922F
:10084000DF92EF92FF926B017C010E94F6034B0155
:100850005C01C114D104E104F104B9F00E94F60373
:10086000681979098A099B09683E734081059105D9
:1008700080F321E0C21AD108E108F10888EE880E61
:1008800083E0981EA11CB11CE4CFFF90EF90DF9095
:10089000CF90BF90AF909F908F90089520912B02A2
:1008A000260F3327331F21323105ECF420915102FA
:1008B000FC0190E080E0243069F082E00895A0918E
:1008C0002B022191AC01475F5D4FA40FB52FB11DE5
:1008D0002C930196861798F380912B02680F6093F2
:1008E0002B0280E0089581E008951092510281E08A
:1008F000809353021092520261E082E10E949703BA
:1009000061E083E10E949703E9EBF0E080818E7F54
:10091000808380818D7F808388E48093B80085E424
:100920008093BC000895CF93DF9391E090930802E9
:100930008823B9F0C091B800D091BA008091BC0072
:100940008A7B8093BC0060E082E10E94970360E0B4
:1009500083E10E9497030E947504D093BA00C0936C
:10096000B800DF91CF910895089508950895E0911A
:1009700000028091FF01E81730F4F0E0E152FE4FF1
:10098000808190E008958FEF9FEF0895909100028D
:100990008091FF012FEF3FEF981748F4E92FF0E027
:1009A000E152FE4F208130E09F5F90930002C90129
:1009B00008958091FF0190910002891B990B089581
:1009C000CF92DF92EF92FF920F931F93CF93DF931B
:1009D0007C01CB018A012091DE01222389F0EB0109
:1009E0006B01C40ED51ECC15DD0569F06991D701E8
:1009F000ED91FC910190F081E02DC7010995F3CFB5
:100A0000642F0E944E04C801DF91CF911F910F9176
:100A1000FF90EF90DF90CF900895CF93DF931F92D8
:100A2000CDB7DEB769832091DE012223F9F0209152
:100A30000102203258F021E030E0FC0133832283B0
:100A400090E080E00F90DF91CF91089580910202B5
:100A5000E82FF0E0E254FE4F998190838F5F8093FE
:100A600002028093010281E090E0ECCF61E0CE01D0
:100A700001960E944E04F7CFDC011A96ED91FC918D
:100A800030E020E00994DC011496ED91FC9130E017
:100A900020E040E060E10994DC011696ED91FC91C4
:100AA00030E020E040E069E10994DC011696ED9128
:100AB000FC9130E020E040E068E109949A01DC011B
:100AC0001696ED91FC91462F67E10994EF92FF9203
:100AD0000F931F93CF93DF931F92CDB7DEB77C01A7
:100AE0008B01D8016C91673129F150F46531A0F484
:100AF0000F90DF91CF911F910F91FF90EF9008958C
:100B00006A3118F16E3FA1F7F8014181498369E22A
:100B1000C7010E943C050BC0F80141814983D70100
:100B20001696ED91FC9130E020E0C70109950E5F2B
:100B30001F4FD7CFF80181818983AE014F5F5F4F8F
:100B400061E0C7010E945E05F2CF0F5F1F4FD70122
:100B50001696ED91FC9130E020E040E0C701099548
:100B6000C0CF462FDC011696ED91FC9130E020E0DD
:100B700066E10994462FDC011696ED91FC9130E078
:100B800020E065E10994EF92FF920F931F93CF93BA
:100B9000DF93EC01042F79016D3009F446C050F465
:100BA0006B30C9F1693009F49FC06A3009F465C03F
:100BB00080E046C06E3009F452C06F3099F70E9451
:100BC0005505F7011381110F110F110F6C89160FC5
:100BD00060E4CE010E94BA05612F62956F7060617A
:100BE000CE010E94BA05612F6F70CE010E94B1053F
:100BF000F7016481606BCE010E94B105F70140816D
:100C000051816281660F660F660FCE010E945E05FC
:100C10000150A1F72EC063E171E0442311F06EE0B2
:100C200071E0CE010E9466050AC0411110C067E064
:100C300071E00E946605E881F98182898C8B81E0F0
:100C4000DF91CF911F910F91FF90EF90089560E099
:100C500071E00E946605E881F9818389EFCF0E94E7
:100C6000550561E8CE010E94BA05602FCE010E94B1
:100C7000B105CE010E944C05E2CFEA85FB8530E04C
:100C800020E040E068E2CE010995EE81FF8130E08E
:100C900020E040E064E1CE01099541E06BE4CE0143
:100CA0000E943C05E881F981448169E2CE010E94FD
:100CB0003C0540E06BE4CE010E943C05E881F981EF
:100CC000448169E2CE010E943C0541E06BE4CE0123
:100CD0000E943C05E881F981458169E2CE010E94CC
:100CE0003C0568E171E09DCF8DE491E099838883B4
:100CF0001C8AA5CFDC011896ED91FC9130E020E034
:100D000040E069E10994DC011896ED91FC9130E036
:100D100020E040E068E10994CF93DF931F92CDB7C4
:100D2000DEB76983BE016F5F7F4F0E9466030F903D
:100D3000DF91CF910895EF92FF921F93CF93DF93AE
:100D4000EC01162F7A010E94830660E4CE010E9416
:100D50008C06E885F9859701412F67E1CE01099559
:100D6000CE01DF91CF911F91FF90EF900C947A0606
:100D7000EF92FF921F93CF93DF93EC01142F790131
:100D8000663181F138F4643109F44BC0653179F092
:100D900080E022C06831C9F150F16931C9F7809112
:100DA000BD01882391F1CE010E947A062EC0809168
:100DB000BD01882319F0CE010E947A06CE010E945F
:100DC000830660E0CE010E948C06612FCE010E9456
:100DD0008C0681E08093BD01DF91CF911F91FF9040
:100DE000EF900895642F0E948C0681E0F5CF8091EA
:100DF000BD01882319F0CE010E947A06A70119319E
:100E000038F4612FCE010E949B061092BD01EDCFF8
:100E100068E1CE010E949B06185188E1E80EF11CA2
:100E2000EDCF8E898F3F11F488E78E8BE885F985A9
:100E30009701412F64E1CE01DF91CF911F91FF9087
:100E4000EF9009940F93FC01E05CFF4F0190F0815B
:100E5000E02D4E1B5F0BDC01D496ED91FC910995C2
:100E60000F910895CF93DF93FC01A081B18182ADF2
:100E700090E09C0143E0220F331F4A95E1F737AF22
:100E800026AF50962C91509748E0249F9001112452
:100E900035AF24AF23AD30E0B90153E0660F771FC3
:100EA0005A95E1F7EF01C05CDF4F79836883519673
:100EB0004C915197E901C80FD91F50E04C175D07BD
:100EC00018F4CA01821B930BEF01CE5BDF4F7983CD
:100ED0006883229623E0880F991F2A95E1F7860FF1
:100EE000971F99838883229654968D919C9155974C
:100EF00099838883E85BFF4F56968D919C919183EF
:100F00008083DF91CF9108950F931F93FC01E25BE3
:100F1000FF4F0190F081E02DDC01A05BBF4F0D90F1
:100F2000BC91A02D4A175B0740F4E017F10748F089
:100F30000417150730F080E019C0E017F107C0F37F
:100F4000FACFFC01E65BFF4F40815181845B9F4FEC
:100F5000FC01808191816817790758F481E042177C
:100F6000530720F081E02617370728F71F910F91CC
:100F7000089542175307B0F3DECF2F923F924F925E
:100F80005F926F927F928F929F92AF92BF92CF9219
:100F9000DF92EF92FF920F931F93CF93DF93CDB722
:100FA000DEB72A970FB6F894DEBF0FBECDBF9A8783
:100FB0008987865B9F4F9A838983FC011182108207
:100FC000E985FA85EA5BFF4F4080518029853A85A3
:100FD000245B3F4F3C832B83F90151824082E9859A
:100FE000FA85EE5BFF4F2080318029853A85225BB0
:100FF0003F4F3E832D83F90131822082E985FA85B6
:10100000EC5BFF4F6080718029853A85205B3F4F04
:1010100038872F83F90171826082E985FA85E85A61
:10102000FF4FE080F180E985FA85EC5AFF4FA08000
:10103000B180E985FA85EA5AFF4FC080D180E98501
:10104000FA85EE5AFF4F8080918087019501A601B5
:10105000B40189859A850E94840729853A852C5791
:101060003F4F3A87298781111BC0F90110822A96C8
:101070000FB6F894DEBF0FBECDBFDF91CF911F91A9
:101080000F91FF90EF90DF90CF90BF90AF909F9027
:101090008F907F906F905F904F903F902F9008952A
:1010A00081E0E985FA8580838114910421F0E9814A
:1010B000FA8191828082A414B50420F4EB81FC8132
:1010C000B182A0822C143D0420F4ED81FE81D182F6
:1010D000C082E614F70458F6EF81F885F182E082C9
:1010E000C6CF0F93CF93DF93E02FDC01AC57BF4FF8
:1010F000FC91FF2309F460C02115310509F45CC09F
:101100002230310538F0023009F04AC06F5F7F4F5E
:10111000621B730B0E2F0170E0FD52C0FC01E25BFD
:10112000FF4F0190F081E02D4E175F0708F444C097
:10113000FC01E05BFF4F0190F081E02D4E175F074F
:10114000D8F5FC01E45BFF4F0190F081E02DDC015C
:10115000A65BBF4F0D90BC91A02D260F371F261701
:10116000370738F56E177F0718F59F0121503109B1
:10117000A217B30708F56A177B0708F4BD012E17FD
:101180003F0708F4F901E61BF70BEC01AEA9BFA974
:1011900014960D90BC91A02D9F01FD0109950CC0E6
:1011A000033009F0B7CF4F5F5F4F421B530BB2CFF5
:1011B000BD016E177F07E0F2DF91CF910F91089587
:1011C000FC01E65BFF4F0190F081E02D6E177F0779
:1011D00098F3FC01E45BFF4F0190F081E02D6E1766
:1011E0007F0750F7FC01E05BFF4F0190F081E02D9D
:1011F000DC01A25BBF4F0D90BC91A02D240F351FC9
:1012000024173507A8F44E175F0788F49F01215073
:101210003109A217B30780F64A175B0708F4AD013E
:101220002E173F0708F4F901E41BF50BAECFAD0113
:101230004E175F0708F6EDCF213069F038F0223005
:1012400079F0840F911D47FD9A950895860F911DA1
:1012500067FD9A950895841B910947FD939508951C
:10126000861B910967FD93950895213069F038F048
:10127000223079F0861B910967FD93950895840FBC
:10128000911D47FD9A950895860F911D67FD9A95CA
:101290000895841B910947FD939508953F924F92BD
:1012A0005F926F927F928F929F92AF92BF92CF92F6
:1012B000DF92EF92FF920F931F93CF93DF937C0106
:1012C000162F442EEC01C25ADF4F5E806F806C01F6
:1012D0008AE8C80ED11C78847518312E711608F46E
:1012E000372C8C809D800E85202F462D652D8A8180
:1012F0009B810E941C095C01202F462D652DC40195
:101300000E943509AC01442079F08C85F601808378
:10131000232D30E0B501C7010E947108171548F070
:1013200017196394512CD7CF8B858111F7CF8D85F9
:10133000EDCF150D1E836F82DF91CF911F910F911D
:10134000FF90EF90DF90CF90BF90AF909F908F90E5
:101350007F906F905F904F903F900895DC011A96B8
:101360004C911A97ED91FC911197249130E0042E45
:1013700002C0359527950A94E2F7842F860F8830AE
:1013800068F031961196FC93EE93E49198E0941BEB
:1013900001C0EE0F9A95EAF72E2B88501A968C937F
:1013A0008FEF9FEF01C0880F6A95EAF7809582233F
:1013B0000895FC01E60FF11D849190E0982F882795
:1013C0003196E4918E0F911D08954F925F926F9226
:1013D0007F928F929F92AF92BF92CF92DF92EF92C5
:1013E000FF920F931F93CF93DF93EC016B018A0160
:1013F0007901FC01E459FF4F8081813009F44BC031
:1014000008F43EC0823009F451C0833009F459C059
:10141000FE01E05AFF4FD182C082329611830083D1
:1014200038978081918147962FEFE216F10411F0F1
:1014300008F0F2C0E1E6EE16F10408F44DC0FE013A
:10144000E058FF4F20813181820F931F9C012F5F55
:101450003F4FF9014491411148C090E080E0DF9195
:10146000CF911F910F91FF90EF90DF90CF90BF90A1
:10147000AF909F908F907F906F905F904F90089566
:10148000FE01E45AFF4F0190F081E02DCE01099555
:10149000080F191FBDCFFE01E45AFF4F0190F081E4
:1014A000E02DCE010995C81AD90AB2CFFE01E45A3F
:1014B000FF4F0190F081E02DCE010995081B190B1B
:1014C000A7CFFE01E45AFF4F0190F081E02DCE013D
:1014D0000995C80ED91E9CCFF1E4EF16F10408F46B
:1014E000B5CFFE01E258FF4FADCFFC0144914E1540
:1014F0001F0409F08CC00296009709F4AECF7E015C
:10150000FEE5EF0EF11CF70191838083128673963E
:101510006081C7010E94AE09F701808774966081DF
:10152000C7010E94AE09982EF70181875E01FAE893
:10153000AF0EB11CF5019081F701948781E0911104
:1015400080E0F7018587FE01ED58FF4FC0806C2DCC
:10155000C7010E94AE09582EFE01EC58FF4FD08003
:101560006D2DC7010E94AE09482EFE01EB58FF4FBA
:101570001081612FC7010E94AE099FEF910F01E01A
:1015800010E0980101C0220F9A95EAF7882E821A7E
:10159000F701608416140CF0ADC0CA94C80101C0F4
:1015A000880FCA94EAF7581A7684490CDA94A8018D
:1015B00001C0440FDA94EAF7F42FF4194F2E272DC7
:1015C0004F2F652DF701828193810E941C096C01C8
:1015D000F70193838283272D442D652D8481958186
:1015E0000E943509F70195838483F1E07F1609F4A1
:1015F00085C07F1608F43FC022E0721609F48DC042
:10160000E3E07E1609F49DC0BC0196013EC0F901DD
:101610002491820F911D1ACFFE01EE57FF4F0081DA
:101620001181080F191F680160E0C6010E94D909E5
:10163000080F191F62E0C6010E94D909F4E0CF0E1D
:10164000D11C8E159F0580F3F801849190E0982FAE
:1016500088273196E4918E2B009709F4FECEE81688
:10166000F90619F4C801039647CFF8013296E491C0
:101670000E0F111DE9CF9601260D311D67FC3A951D
:10168000BC01690D711D97FC7A958B01AC01B60107
:10169000CE010E948407882369F1F7011682178220
:1016A0008E0101591F4F6E01F0E7CF0ED11CF801DA
:1016B0006081C7010E94AE09682EF6016081C701F2
:1016C0000E94AE09782E40E0662DCE010E944E09A0
:1016D00041E0672DCE010E944E0961E0C7010E94E2
:1016E000AE098111F0CFF7018781891504F3848554
:1016F000F5018083882D880C990BB1CE0919110949
:1017000097FC139596012F5F3F4FBC01660D711D2D
:1017100067FC7A95C00ED11EB8CFA80146195109B1
:1017200067FC539596012F5F3F4F0919110997FCEC
:101730001395BC016F5F7F4F800F911FC40ED51EA4
:10174000A4CF9601290D311D97FC3A950619110970
:1017500067FC1395BC016F5F7F4F800F911F95CF82
:10176000CF92DF92EF92FF920F931F93CF93DF936D
:101770001092A80689E8C82E81E0D82EF12CE12C21
:101780000AE010E0D0E0C0E0F60161916F01E09165
:101790009206F091930680E996E009958F3F9807AD
:1017A00019F18E3F2FEF920779F39C01A801BE013A
:1017B00080E996E00E94E5092091FC06213059F06D
:1017C00038F0223059F0233061F0E80EF91EDCCFFA
:1017D000C80FD91FFACF080F191FF7CFC81BD90B95
:1017E000F4CF081B190BF1CFC701DF91CF911F91E7
:1017F0000F91FF90EF90DF90CF900895AF92BF923E
:10180000CF92DF92EF92FF920F931F93CF93DF93CC
:1018100000D000D01F92CDB7DEB78C01DC01DA9684
:10182000AC90DA97DB96EC90DB97ED91FC91B18868
:10183000FE2CD12CC12CD801ED91FC9111978089FF
:10184000D8962D913C911C82FD828B83B8E08B9FB2
:10185000C00111248C9DA0018D9D500D9C9D500DAB
:101860001124240F351F3A832983D8011496ED9152
:10187000FC919E012F5F3F4F41E06FE0C801099549
:10188000F3948F2D8E198A1528F4BFEFCB1ADB0A3B
:10189000FB1488F20F900F900F900F900F90DF9134
:1018A000CF911F910F91FF90EF90DF90CF90BF905D
:1018B000AF900895CF92DF92EF92FF920F931F9314
:1018C000CF93DF93EC01962F683109F44BC0B90137
:1018D000993130F49431C9F0973189F080E006C035
:1018E000993109F461C09032C9F781E0DF91CF915D
:1018F0001F910F91FF90EF90DF90CF90089550E0EF
:1019000080E892E00E94E004F0CF8C859D85AE8552
:10191000BF85892B8A2B8B2B71F4E881F981A585F2
:10192000B0E020EA36E841E050E00E94B9126C874E
:101930007D878E879F87109200021092FF01109280
:101940000202109201020E94750484EB94E09093CD
:101950002A028093290285EB94E090932E028093D3
:101960002D02C3CF2C853D854E855F8560E074E2F6
:1019700084EF90E00E9497122051310941095109EA
:1019800056954795379527952093B8008E8990E016
:101990009595879591E09093DE018093BC0110921C
:1019A000020210920102A1CFD0910102D13208F0BF
:1019B00093C0C091BC010E94F6036B017C01809131
:1019C0005102811164C082E08093510281E08093D2
:1019D00053028FEF8093500210927502D0937402DD
:1019E000AEEBB1E0E4E5F2E080E0D8137CC0109209
:1019F000760280917602CC0FC82BC093760280913C
:101A00005202813009F073C0109252020E94F60314
:101A10006B017C01809176028093BB00809104026F
:101A200090910502A0910602B0910702892B8A2BA2
:101A30008B2B99F00E94F60300910402109105028D
:101A400020910602309107026C197D098E099F09C9
:101A50000617170728073907D8F18091BC0083FDC6
:101A6000D9CF85EC8093BC000E94F6036B017C010A
:101A7000809151028230E9F1809150028F3F61F1F3
:101A800080915002803241F18091500225C08091B6
:101A9000040290910502A0910602B0910702892BE1
:101AA0008A2B8B2B09F48BCF0E94F6030091040242
:101AB0001091050220910602309107026C197D09F0
:101AC0008E099F09061717072807390708F077CFEF
:101AD000809103020E94930410920202109201026C
:101AE0001092DE0102CF9D9191938F5F7ECF85EEA4
:101AF000B9CF8091040290910502A0910602B091A5
:101B00000702892B8A2B8B2B09F4B2CF0E94F60394
:101B10000091040210910502209106023091070203
:101B20006C197D098E099F090617170728073907C1
:101B300008F09ECFCDCF0F931F93CF93DF93EC018F
:101B4000862F642F8C3208F03AC08A3208F060C0C9
:101B5000883209F44BC0893209F460C0803408F43B
:101B600075C0982F9F73FE01E90FF11D868D8F3F81
:101B700009F44EC0903108F436C0282F30E0F90146
:101B8000E255FF4F8491F901E656FF4F0491F901A8
:101B9000EA57FF4F1491112379F081110E946E03CF
:101BA000E12FF0E0EE0FFF1FE859FF4FA591B49130
:101BB000EC910E2381E009F480E0898F29C08D32F9
:101BC00099F108F4CBCF94EB980F923008F0C6CF80
:101BD0008F73C80FD11D8E8D411134C061E00E94FA
:101BE000C50360E08E8D0E94970312C08E01025ED5
:101BF0001F4FD0E0F80181918F018F3F31F061E0FC
:101C0000D03108F062E00E94C503DF5FD63191F762
:101C100081E0DF91CF911F910F91089570E090E0E6
:101C200080E00E941B04F4CF85E090E0433010F088
:101C300082E090E0880F991F880F991F0597019700
:101C4000F1F7E6CF62E00E94C503E2CF80E0E1CF8A
:101C5000CF92DF92EF92FF920F931F93CF93DF9378
:101C60006C01EB017B01E40EF51E10E000E0CE15E7
:101C7000DF0561F06991D601ED91FC910190F08151
:101C8000E02DC6010995080F191FF1CFC801DF919A
:101C9000CF911F910F91FF90EF90DF90CF9008951B
:101CA000CF92DF92EF92FF920F931F93CF93DF9328
:101CB000EC016C0124E0C20ED11CFC01E057FF4F87
:101CC0000190F081E02DC60109958E3FEFEF9E0750
:101CD000D8F48E010C561F4FF801408151817E01CE
:101CE000F2E9EF0EF11CF701608171819C01C601E0
:101CF0000E94E509C059DF4F28812130C1F078F0FA
:101D00002230B9F02330E9F081E090E0DF91CF910B
:101D10001F910F91FF90EF90DF90CF900895F70102
:101D200020813181820F931F91838083EDCFF80151
:101D3000F7CFF70120813181281B390B31832083B4
:101D4000E3CFF801F7CF089590E080E0089585EDA6
:101D50008093BC008091040290910502A09106023C
:101D6000B09107020796A11DB11D23E0B695A79576
:101D7000979587952A95D1F72091BC0024FD03C043
:101D80001092510208954091040250910502609111
:101D9000060270910702452B462B472B69F30097EB
:101DA000A105B10541F02AE22A95F1F700C001979B
:101DB000A109B109E1CF809103020C949304FC01C5
:101DC000A081B18150962C9182AD38E0839FC001F3
:101DD0001124289FA001299F500D112470E060E07C
:101DE00080AD91AD0C94D9121F920F920FB60F9245
:101DF00011242F933F938F939F93AF93BF93809121
:101E0000780290917902A0917A02B0917B02309190
:101E1000770223E0230F2D3758F50196A11DB11D40
:101E2000209377028093780290937902A0937A02AC
:101E3000B0937B0280917C0290917D02A0917E0202
:101E4000B0917F020196A11DB11D80937C029093F9
:101E50007D02A0937E02B0937F02BF91AF919F91CC
:101E60008F913F912F910F900FBE0F901F9018955B
:101E700026E8230F0296A11DB11DD2CF1F920F920B
:101E80000FB60F9211242F933F934F935F936F934D
:101E90007F938F939F93AF93BF93EF93FF93809123
:101EA000B900887F803609F44AC0F0F5883209F419
:101EB000A7C018F5803109F49BC0B8F4882309F451
:101EC000F9C0883009F494C0FF91EF91BF91AF91B0
:101ED0009F918F917F916F915F914F913F912F9142
:101EE0000F900FBE0F901F901895883109F488C08D
:101EF000803251F78093500214C0803409F49DC0A1
:101F000040F48033B9F38833F9F68093500285ECBE
:101F1000B0C0803509F485C0883509F496C088348E
:101F200099F60E94A70ED0CF883909F48CC038F5F5
:101F3000883729F050F4883611F0803729F683E08D
:101F40008093510210924F0257C0883809F47BC029
:101F5000803919F0803809F0B7CF80914F02803274
:101F600008F071C0E0914F0281E08E0F80934F0224
:101F70008091BB00F0E0E15DFD4F80833DC0803B80
:101F800039F0E0F4803A09F479C0883A09F09CCF3E
:101F900084E08093510210922C0210922B02E09167
:101FA0002902F0912A02099580912B0281110FC01C
:101FB00081E080932B021092090209C0803C09F451
:101FC000A6CF883C09F4A3CF883B09F07DCFE091F0
:101FD0002C0281E08E0F80932C02F0E0E75FFD4F32
:101FE00080818093BB0090912C0280912B0229C0AC
:101FF000809176028093BB0085EC8093BC0064CF17
:102000009091750280917402981758F5E0917502CD
:1020100081E08E0F80937502F0E0EC5AFD4F8081D5
:10202000E9CFE091750281E08E0F80937502809177
:10203000BB00F0E0EC5AFD4F8083909175028091D7
:1020400074029817C8F285E8D8CFE091750281E054
:102050008E0F809375028091BB00F0E0EC5AFD4F2B
:1020600080838091530281115CCF81E08093520282
:1020700084EA8093BC001092510226CF85EC8093B5
:10208000BC001092510280914F02803230F4E091F6
:102090004F02F0E0E15DFD4F108260914F0270E071
:1020A000E0912D02F0912E028FE292E009951092BC
:1020B0004F020ACF1092500234CFCF931092830276
:1020C0001092820288EE93E0A0E0B0E08093840258
:1020D00090938502A0938602B093870289E691E0EF
:1020E000909381028093800210928F0610928E0648
:1020F00083ED92E090931D0780931C0710921F07B9
:1021000010921E0710922107109220071092A80625
:102110008BE791E090938D0680938C061092910648
:10212000109290061092A50610929C0610929D06A1
:1021300010929E0610929F068FEF8093A6068093C2
:10214000AA06EEEAF6E084EC96E0CFEFC1938E1794
:102150009F07E1F783EC95E09093950680939406B2
:1021600088EB96E090939706809396068AE59CE02C
:1021700090939906809398068BE99DE090939B0637
:1021800080939A0630E020E040E069E080E996E044
:102190000E94C3051092EB061092EA068DED92E0C4
:1021A0009093C5068093C4068CE892E09093C9068C
:1021B0008093C80688E08093CA061092CB061092DE
:1021C000F906109219071092150781E080931A07FB
:1021D00080931B0783E891E09093C7068093C6061F
:1021E00080E996E00E9432071092E3061092E20620
:1021F0001092E7061092E6068FEF9FEF9093E506A8
:102200008093E4069093E9068093E806E091C60681
:10221000F091C7060280F381E02D80E996E00995F0
:102220008CE493E09093ED068093EC061092FC060C
:10223000C093B906C093BA06C093BB06CF91089568
:10224000789484B5826084BD84B5816084BD85B591
:10225000826085BD85B5816085BD80916E0081609D
:1022600080936E0010928100809181008260809343
:102270008100809181008160809381008091800045
:102280008160809380008091B10084608093B10070
:102290008091B00081608093B00080917A0084606A
:1022A00080937A0080917A00826080937A00809196
:1022B0007A00816080937A0080917A0080688093B0
:1022C0007A001092C100E0919406F091950630E0FA
:1022D00020E040E06AE080E996E0099580911B07E4
:1022E000882321F080E996E00E94DF0E80E00E94C2
:1022F0004F0380E996E00E94FE0BC091CB068091CF
:10230000CA06C80FE0919006F09191068189C8171E
:1023100008F4E8C080E996E00E94430580E00E944E
:102320004F03E0919406F091950630E020E040E004
:102330006BE080E996E0099557EC252E50E0352EAC
:1023400068EC462E60E0562EC2ECD0E089EC682E98
:1023500080E0782E0AEC10E09BECE92E90E0F92E5C
:102360002CECC22E20E0D22E3DECA32E30E0B32E7A
:102370004EEC842E40E0942E80E996E00E94DF0E21
:102380008091EA069091EB06825C904009F48CC043
:10239000D093EB06C093EA06E2ECF0E084918093E0
:1023A000FD06E3ECF0E084918093FE06E4ECF0E0BF
:1023B00084918093FF06E5ECF0E084918093000720
:1023C000E6ECF0E0849180930107F1018491809321
:1023D0000207F201849180930307F30184918093B3
:1023E0000407F801849180930507F7018491809395
:1023F0000607F601849180930707F5018491809385
:102400000807F401849180930907EFECF0E0E49170
:10241000E0930A07E0EDF0E0E491E0930B07E1EDD3
:10242000F0E0E491E0930C07E2EDF0E0E491E0935A
:102430000D0761E182EC90E00E94D90990930F07AB
:1024400080930E0763E182EC90E00E94D90990939B
:1024500011078093100765E182EC90E00E94D90992
:1024600090931307809312078091EA069091EB06F0
:10247000892BD1F080910A078093160740910B07B2
:102480004093170790911507992371F09130A1F5AA
:1024900090910C07891714F49093160780910D07FB
:1024A000841714F48093170783ED92E090939306BA
:1024B000809392060E94B00B80E996E00E94FE0B8A
:1024C00080E996E00E94430568EE73E080E090E0CA
:1024D0000E941B0480E090E0892B09F44DCF0E94FC
:1024E000000034CF80911B07882321F080E996E01B
:1024F0000E94DF0E8C2FFBCE309107072091090739
:10250000082E000C990B622F022E000C770B630F24
:10251000711D37FD7A95861797071CF4320F30939B
:10252000160724170CF0C0CF20931707BDCFA1E2E8
:102530001A2EAA1BBB1BFD010DC0AA1FBB1FEE1F3D
:10254000FF1FA217B307E407F50720F0A21BB30B88
:10255000E40BF50B661F771F881F991F1A9469F704
:1025600060957095809590959B01AC01BD01CF0160
:1025700008950E94CA12A59F900DB49F900DA49F2C
:10258000800D911D11240895EE0FFF1F0590F49109
:10259000E02D0994A29FB001B39FC001A39F700DCD
:1025A000811D1124911DB29F700D811D1124911D5B
:1025B0000895DC0101C06D9341505040E0F708954B
:0425C000F894FFCFBD
:1025C4001815A015C019FF1815A115C819FF18155D
:1025D400AE19FF1815AF19FF1815AE15D5168015CD
:1025E400A8163F15D316001540158D161415201680
:1025F4000015A115C815DA1612158116CF15D916AE
:10260400F115DB1640152E15A415A619FF000114AB
:102614000A6464323200127A00000428961008001A
:102624000080004000000000000D05E004A40EB688
:1026340004D904C604B70400000000500E280EA4F8
:102644000EA30E3207BD07220748656C6C6F2C2061
:08265400776F726C6421000035
:00000001FF
