:020000040000FA
:100000000C946C070C949D070C949D070C949D0711
:100010000C949D070C949D070C949D070C949D07D0
:100020000C949D070C949D070C949D070C949D07C0
:100030000C949D070C949D070C949D070C949D07B0
:100040000C949D070C949D070C949D070C949D07A0
:100050000C949D070C949D070C949D070C94B81864
:100060000C949D070C942C190C9402190C949D0768
:100070000C949D070C949D070C949D070C949D0770
:100080000C949D070C949D070C949D070C949D0760
:100090000C949D070C949D070C949D070C94621979
:1000A0000C949D070C949D070C949D070C949D0740
:1000B0000C949D070C949D070C949D070C949D0730
:1000C0000C949D070C949D070C949D070C949D0720
:1000D0000C949D070C949D070C949D070C949D0710
:1000E0000C949D070C946D080C94240E0C94740BC6
:1000F0000C94BD090C9409150C942D0B0C94D01480
:100100000C94B5170C941D0B0C941F0D0C946208E5
:100110000C9499110C949A140C9498080C94DF097F
:100120000C943D150C941E0B0C94BA140C94660898
:100130000C94640A0C94AE090C94470B0C941B0BA2
:100140000C9458080C9481080C9403150C948B089B
:100150000C94B6170C94890D0C94990D0C94990875
:100160000C9418080C946E140C949F070C949D0822
:100170000C94A9070C9485080C9481090C94121511
:100180000C9473080C9493080C94400B0C94170A6D
:100190000C947D080C94D1090C941C0B0C946A08E7
:1001A0000C94AC140C945E080C942A0C0C948F08DC
:1001B0000C94861A0C9477080C9488140C9465158A
:1001C0000C94DA125F00030305050405061614FDFE
:1001D000FC0EFC0EFE026D05BA080B200600602C1A
:1001E00001210FC4253423391C2C2265C921220189
:1001F0002209A5644621E14500231B8B6164291176
:100200004BC412D961729849C412D961729849C419
:1002100012B14408242149A65B1987846B924829AE
:10022000520A5582B643E81033464AA14AA81291B1
:1002300095E39020002529EEE17B35938A264159EC
:1002400048280B456511A9287D2487C6C62251344C
:10025000240B8A64C1982CA6148C4EE3300026240B
:10026000D0258C4B078AE420991C2493832672584E
:100270001D3AABD984135270561D52A7B4DA2174BB
:100280001B012707A2642E7118281105A23327121B
:100290008D442399DE66B2995000291005A23321BE
:1002A00094CD64337D1A89466A002A10E7E045350B
:1002B0004A9A44442349649434022B154A215C2908
:1002C00087C8217288F07030CA2172881C22042CE1
:1002D0000BE4602B23394446D9002D0765E034F147
:1002E000102E0A84202C23394424002F0FC6213CD1
:1002F000A918540C2A0615838A003013C9255C37C7
:100300009C8C6492997F9BC84493E10C00310BC78D
:10031000295C271C15F79F0E3215C9255C47134D24
:1003200066B6896C3C1D4FA762D5C3A1003317C9BF
:10033000255C47134D66B6896C2C9C83E41399DBCE
:1003400044342B013416C9255C1F174F1923B3D031
:1003500028368A4D829383743C2D3518C9255C73E9
:10036000889CE29038240EB1C5E6E389CC6D229AD0
:1003700095003616C9255C575A91D924E3C988B22D
:10038000E66D229B8C8433003711C9255CF1509EA9
:100390008AE562B97875BC11003815C9255C3794B7
:1003A00049A4D4E2456434858E556A4D4603391715
:1003B000C9255C37144D669299B7C98434194F64C6
:1003C00036C96854033A0D242534233944C4924372
:1003D00044023B0F846533233944C4924364940D33
:1003E000003C114A215C0F111339D32174081D42BE
:1003F00087083D0BC9A45CF140473C1C083E124AEB
:10040000215C2187D02174081D4226729643003F4B
:1004100012C921545712DD6C13D958772431952C09
:10042000044027CF21847B1ECBE4A090AC2411296B
:10043000916422924C449189246A2289D244249A5C
:1004400010E5A0D8587C08024120CE1D741F07CBB0
:100450008173201D1499834272486C1E1B47A707A5
:100460006178181FC927D402421ECC21747198CD1F
:1004700048C3D170341CCD6687E0D274329D4C27BE
:10048000D3C970729001431DCC2174590AB18C25D7
:10049000E33A840EA183E6A039680E89CC23E318E1
:1004A0004D5A03441FCE218471980E69E3D17834EC
:1004B0009FCC27F3C97C329FCC27E3D17834241D0D
:1004C0008600451FCB216C71A00C2753C92C1499B1
:1004D000852223E171249C0567A1C83832950C0F51
:1004E00007461ECB216C71A00C2753C92C1499858B
:1004F0002223E171249C0567C139640E995B014791
:1005000021CD217C598A914863D158328744E690A5
:10051000C81C36874D0FE1D174349D91A8A5080001
:10052000481ECE218451AC8C47E3D178341E8D47D0
:1005300087D278341E8D47E3D178349E140B490A54
:10054000C5254C5119ED7F294A13CA1D645B9EEFE6
:10055000936C429A9026C2916848044B1ECE218427
:10056000512B4D8543E94C3C924FE4103BE43E2136
:100570008FA833E29036A5D40C4C10CA2164519E4A
:10058000EFAF91696428991D0C4D2DD1219C612EEE
:100590009169555A641899856691596816998546E6
:1005A000A1596C129AC526A1598C360BCE66C1D9B9
:1005B00068189CD462054E21CE218441AD5067D489
:1005C0002035584CA10543A4608C120C16A3C428F6
:1005D000313C1B8BCA21004F1DCE21846926D1C618
:1005E000A3F1640EB143EC103BC40EB1439647E354
:1005F00019896C04501ECC21747110CE4843CA90E6
:1006000032A40C2933D2213807CD4173D01C348752
:10061000D40151284E22836926D1C6A3F1640EB1BC
:1006200043EC103BC40EB1D026A39168269951CA61
:1006300076A81C3A8983EAB01100521FCD2184713B
:10064000A00D49D3D174341D0D6787E86C381BCEDB
:1006500068C3D970369C1827005316CA216447090D
:10066000AD0C25D308D97A355BCBD5D324540254AD
:100670001CCB216C7130ADCD6433D92C3887CC21A3
:1006800073C81C3287CC2173C8BC06551ECE21848A
:1006900051AC8C47F3D83C368FCD63F3D83C368FC2
:1006A000CD63F3D83C38941B015622CF1D7461AC46
:1006B0009067F320353C0D4FE3B3386416074DE2E5
:1006C000B0491C3887CEC171781C005730D41D9CAE
:1006D00061315568C4D9701AA4D1C2335A78460B17
:1006E0005322943864129AC42193D0240EA1D1616C
:1006F000C3396C380786E3D0701800581FCF218C9F
:1007000063AA11A734F9480EB1C3E8503AAC0EB34E
:10071000434464E174481B538A06591FCD217C6110
:10072000A35065D3204D3A0B53E2903A680E9BC319
:10073000E6B0396C0E9B436E005A19CC216CF11057
:100740002E4FC294289D0E9943E8AC1172645C3E12
:100750001C025B0A04A63361D2FF13015C12C8219C
:100760004C21968BE562B9582E968BE562015D0AA5
:1007700004A23341D2FF93015E0E08A14D279612C9
:1007800069222D42A2005F0749604BF14060088555
:10079000A43E215B1461122A215C739A4D8463DAB2
:1007A000646D329B8C9806621FCC1D644107CD415D
:1007B00073D01C34074D88B4D174329D4C27D3C9F3
:1007C00074421B496A00630F292154571A19CB5BE5
:1007D0002333190900641DCC216C4F07CD4173D020
:1007E0001C34A48C6694E9643A994EA693E9684651
:1007F000A41065122A215C471C4D86C6C3413E8E5B
:100800000C652500660EC8213C4793EC3AB44DF7C1
:10081000B106671EEB215B0F924346C6D14C2813ED
:10082000CA4643A31C74081E22D289583294DD00A4
:10083000681ECC216C4107CD4173D01C34074D6A32
:1008400024D270341C0D47C3D170349C940A690CB7
:10085000C52134335A0792F64B016A0F471633B954
:100860001D8DB83F5A2C2212006B1DCC216C410704
:10087000CD4173D01C34078D4A33E1283C115F27EA
:10088000C4116D46A9186C0AC5213441DAFFA500D0
:100890006D183321A441A9D84825D27069B8345CB9
:1008A0001A2E0D97862BA5066E152C216C41A99149
:1008B00048C3D170341C0D47C3D170522A6F0F2B1F
:1008C0002164579C4DA6BE4E66C31A00701CAC1D19
:1008D000633122D246D3C974329D4C27D3096D347B
:1008E00021CE4173D01C5207711CAC21634712CD3D
:1008F00028D3C974329D4C27D3D18C489983E6A064
:1009000039680E29720F28214C4111512423C974D2
:10091000C71A0073122921544509C924C388F16AF2
:100920002D4A2225007411A72144178E0A67A6E1DB
:100930009E22A310050075152C216C51220D47C372
:10094000D170341C0D47C3115B850076142A1D4CF1
:10095000519A0C43C3D828388A92E97288100077DC
:100960001B301D7C51294D66C3D06C181B9182230E
:1009700052944426D1857288500878122B216461E4
:10098000619351A4F579554293512806791BAB2107
:1009900063519B4C43D3D82C388B4EC293F81C32F6
:1009A000074565D1497C0E7A0E29215471A0D5885E
:1009B000DC8AC403017B0E05A2332712EDA4281B99
:1009C000ED26147C07C2315CF1037D0F05A23321B3
:1009D000948DB60945A23DA9017E0B6A2465B572C6
:1009E000888C460000000004FFFF00005F00020248
:1009F0000304030504050C00FE07FE08FF0139028D
:100A00008503AC2005006A072107394367A8002247
:100A1000079B56275901230B3542AF1AAA4C69A8E8
:100A20000A240D4D3E37AF4AE59D54B523002509F4
:100A30003D4247CEDC3905260C3D422FA7987295E2
:100A40006454012705195767280ACB3E37C514EBB4
:100A50009803290BCB3E27C71CAB9822002A0A3DDE
:100A600042B7AA765ECD082B0A2D4637A3386446D6
:100A7000112C071B3E4F8D042D060D4E67082E06C8
:100A8000924267042F0C3D421FE58C728D72460026
:100A90003009BC424F45CFA4003108BB422FC9AE3C
:100AA00001320A3D426FE58C727B08330C3D426790
:100AB0006894B3863A2D00340C3D423FCB54A6A136
:100AC000334A00350C3D42E74623C38C745A003646
:100AD0000C3D4257E68C46CA3A2D00370D3D426721
:100AE000689433CA19651401380B3D426F659D56F1
:100AF000D66901390C3D426F659D4646394A003A38
:100B000007AA4267C4113B09333ECF466A24003C22
:100B100007AB4637D5053D081D4A676838043E08CF
:100B2000AB46275725003F0A3D426FE536CA74049D
:100B3000400C3D426F6535525223C305410A3D4288
:100B40006F653D46B603420C3D4267C42AA659C5AF
:100B5000A100430C3D426F658D32CA28A705440DA4
:100B60003D4267C42AA698628A4301450C3D42E78C
:100B700046198D94514643460D3D42E746198D94E2
:100B800051461901470C3D426F658D328A3B2D005D
:100B900048093D4227DB63643B4908BB4267C5AE59
:100BA000014A0C3D4277679451466594004B0B3DDA
:100BB0004227CB54EA14AB1C4C0E3D4227A38C3287
:100BC000CA28A38C86004D093D4227AF95B43B4E01
:100BD0000A3D4227EBA992DC3A4F093D426F65EF8F
:100BE000B400500D3D4267A4AC87CA28A38C0051C5
:100BF0000A3D426F6557925105520B3D4267A4ACC6
:100C0000872AAB1C530B3D426F650D37D4690154E5
:100C10000E3D4267C88C32CA28A38C220055083D7D
:100C20004227FB4E0B560A3D4227BB53997204578D
:100C3000093D42277B25D505580A3D4227EB5457ED
:100C4000B50E590C3D4227EB5467945146115A0A90
:100C50003D42676894BBD1105B08CB3E67C43E073A
:100C60005C0D3D4227C38C32CC30A30C035D08CB16
:100C70003E67F639025E071D5637A73A5F060D3A02
:100C8000670860069B562717610A2D426FC33474AC
:100C90001A01620C3D4227A38C46CAF65000630A33
:100CA0002D426F658D725A00640B3D421F6594861C
:100CB000B6D308650A2D426FE5A1325C00660B3D94
:100CC0004257567967945106670B3D3A6F653B8DE5
:100CD0008CD202680B3D4227A38C46CAEE006908FD
:100CE000BB422F23D91A6A0ACC3A3F63DD964901E9
:100CF0006B0C3D4227A38CB24CB3CA016C07BB42BC
:100D000047F61A6D0A2D4247B5545249156E082D03
:100D1000422799DA0E6F092D426F653B2D00700C4A
:100D20003D3A67A46C0F95514600710B3D3A6F68D0
:100D30003B8D8C320A720B2D4227991A6594110053
:100D4000730A2D426F68B8E15000740C3D4237A31E
:100D500038644619652875082D42273B950A76099F
:100D60002D4227DBA98E0077092D42275B497501AB
:100D700078092D4227A7BAAA03790A3D3A27DBA9A9
:100D80006E23007A082D4267E8F6107B09CB3E37C8
:100D9000C52AC73A7C06493FE7017D0ACB3E27C7F3
:100DA0003AC52A027E091D4A2FAA2413000000001A
:100DB00004FFFF000000002100240027002A002D6E
:100DC000003000330001010000040107010A0100A6
:100DD000002200250028002B002E003100340002E4
:100DE000010000050108010B01000020002300267E
:100DF0000029002C002F0032000001000003010632
:100E00000109010505050507050808080802020291
:100E1000020A0A0808040404040101010101010195
:100E2000010303030303030303040707070C0C0C6C
:100E30000C0C0C0C0C020202020606060606060644
:100E4000060B0B0B0B0B0B0B0B01021020200808E1
:100E5000102040102040800201020108040201011C
:100E60000204081020408080402010080402018005
:100E7000040201804020100804020108040201015C
:100E80000204081020408001020408102040800065
:100E9000000A0B02090C0D0E0807030401000000F4
:100EA0000000000000000000000000000000000042
:100EB00000000000000000000000001211100000FF
:100EC0000000000000000000000000000000000022
:100ED000000000000000861A11241FBECFEFD1E2EF
:100EE000DEBFCDBF00E00CBF15E0A0E0B2E0E0E95E
:100EF000FEE300E00BBF02C007900D92A63AB107D7
:100F0000D9F72BE0A6EAB5E001C01D92A03DB207DB
:100F1000E1F717E0CCE6D7E000E006C02197010931
:100F2000802FFE010E94301FCB36D10780E00807DA
:100F3000A9F70E94871B0C94461F0C94000066239F
:100F400029F06A3019F0862F90E008958FEF9FEF17
:100F50000895AF92BF92CF92DF92EF92FF920F93DC
:100F6000CF93DF93EC01DA017901942F9770E1E0E0
:100F7000F0E09F01092E01C0220F0A94EAF7522FD8
:100F80006E018AE8C80ED11CF601808140E08230F3
:100F900018F4422F813049F15D01F8EFAF22E8AD3E
:100FA000F9AD28813981D90150968C918A9D9001A3
:100FB0008B9D300D1124620F731FDF01A60FB71F29
:100FC00001111AC0EA0EFB1E8C91842B85278D938C
:100FD000AE15BF05C9F7DF91CF910F91FF90EF904C
:100FE000DF90CF90BF90AF90089550E0D5CF440FE1
:100FF000550FE114F10479F33C91342B35273C93E0
:101000009F5F9770E1E0EE1AF1089111F0CF2CADDF
:101010003DADA20FB31FF6018081823028F48130EC
:1010200009F051E041E0E5CF51E0E3CF80E00895E1
:1010300090E080E00895CF93DF93CAE3DBE08FAFC9
:10104000EAADFBAD0190F081E02D8EE39BE01995B8
:10105000EAADFBAD0280F381E02D8EE39BE0DF91F2
:10106000CF9119949B01DC011896ED91FC9141E020
:1010700067E119948150823108F05AC0E82FF0E0FE
:101080008827EA5BF74F8F4F0C94301F66086A0879
:1010900058085E08620898086D08730877087D088C
:1010A000810885088B088F089808930899089D087F
:1010B000809180008F7780938000089580918000D8
:1010C0008F7DF9CF80918000877FF5CF84B58F77B2
:1010D00084BD089584B58F7DFBCF8091B0008F775C
:1010E0008093B00008958091B0008F7DF9CF8091FA
:1010F00090008F77809390000895809190008F7D6D
:10110000F9CF80919000877FF5CF8091A0008F77F5
:101110008093A00008958091A0008F7DF9CF8091E9
:10112000A000877FF5CF809120018F7780932001E9
:101130000895809120018F7DF9CF80912001877FD4
:10114000F5CFCF93DF93282F30E0F901E157F14F2E
:101150008491F901E75BF14FD491F901ED5FF14F13
:10116000C491CC23A1F081110E943A08EC2FF0E049
:10117000EE0FFF1FE751F24FA591B491EC91ED23D3
:1011800081E090E009F480E0DF91CF91089580E064
:1011900090E0FACF1F93CF93DF93282F30E0F9012F
:1011A000E157F14F8491F901E75BF14FD491F901D7
:1011B000ED5FF14FC491CC23A9F0162F81110E944D
:1011C0003A08EC2FF0E0EE0FFF1FE153F24FA5912C
:1011D000B4918FB7F894EC91111108C0D095DE232B
:1011E000DC938FBFDF91CF911F910895DE2BF8CF55
:1011F000CF93DF9390E0FC01E75BF14F24918D5F8B
:10120000914FFC0184918823D1F090E0880F991FC1
:10121000FC01EB54F24FA591B491FC01E153F24F64
:10122000C591D491623071F49FB7F8943C91822FAC
:10123000809583238C93E8812E2B28839FBFDF9199
:10124000CF9108958FB7F894EC912E2B2C938FBFEC
:10125000F6CF3FB7F89480918D0690918E06A091BD
:101260008F06B091900626B5A89B05C02F3F19F0B8
:101270000196A11DB11D3FBFBA2FA92F982F882716
:10128000BC01CD01620F711D811D911D42E0660FF1
:10129000771F881F991F4A95D1F708958F929F92C3
:1012A000AF92BF92CF92DF92EF92FF926B017C01DF
:1012B0000E9429094B015C01C114D104E104F1042D
:1012C000B9F00E942909681979098A099B09683EC1
:1012D00073408105910580F321E0C21AD108E1082D
:1012E000F10888EE880E83E0981EA11CB11CE4CFA3
:1012F000FF90EF90DF90CF90BF90AF909F908F9036
:101300000895AF92BF92CF92DF92EF92FF920F9328
:101310001F93CF93DF936C017B018B01040F151F8B
:10132000EB015E01AE18BF08C017D10759F06991F3
:10133000D601ED91FC910190F081E02DC601199547
:10134000892B79F7C501DF91CF911F910F91FF9004
:10135000EF90DF90CF90BF90AF900895FC01538D38
:10136000448D252F30E0842F90E0821B930B54177F
:1013700010F0CF96089501970895FC01918D828D0C
:10138000981761F0A28DAE0FBF2FB11D5D968C91A5
:10139000928D9F5F9F73928F90E008958FEF9FEFE4
:1013A0000895FC01918D828D981731F0828DE80FA0
:1013B000F11D858D90E008958FEF9FEF0895FC015A
:1013C000918D228D892F90E0805C9F4F821B910927
:1013D0008F739927089581E996E00E94DF0921E043
:1013E000892B09F420E0822F0895FC01A48DA80F19
:1013F000B92FB11DA35ABF4F2C91848D90E0019657
:101400008F739927848FA689B7892C93A089B18976
:101410008C91837080648C93938D848D981306C017
:101420000288F389E02D80818F7D80830895EF927B
:10143000FF920F931F93CF93DF93EC0181E0888F8E
:101440009B8D8C8D98131AC0E889F989808185FF5E
:1014500015C09FB7F894EE89FF896083E889F98900
:1014600080818370806480839FBF81E090E0DF9102
:10147000CF911F910F91FF90EF900895F62E0B8D55
:1014800010E00F5F1F4F0F731127E02E8C8D8E1110
:101490000CC00FB607FCFACFE889F989808185FF77
:1014A000F5CFCE010E94F509F1CFEB8DEC0FFD2FAA
:1014B000F11DE35AFF4FF0829FB7F8940B8FEA8932
:1014C000FB8980818062CFCFCF93DF93EC01888D41
:1014D0008823B9F0AA89BB89E889F9898C9185FDAF
:1014E00003C0808186FD0DC00FB607FCF7CF8C913D
:1014F00085FFF2CF808185FFEDCFCE010E94F509F7
:10150000E9CFDF91CF91089580E090E0892B29F019
:101510000E94EB0981110E94000080E090E0892B7D
:1015200049F080E090E0892B29F00E9400008111B1
:101530000E94000080E090E0892B49F080E090E07C
:10154000892B29F00E94000081110E94000080E098
:1015500090E0892B49F080E090E0892B29F00E94EF
:10156000000081110C940000089520913B06260F85
:101570003327331F21323105ECF420916106FC0141
:1015800090E080E0243069F082E00895A0913B066D
:101590002191AC01475E594FA40FB52FB11D2C937B
:1015A0000196861798F380913B06680F60933B067F
:1015B00080E0089581E008951092610681E08093B3
:1015C00063061092620661E084E10E94CA0861E04D
:1015D00085E10E94CA08E9EBF0E080818E7F80837C
:1015E00080818D7F808388E48093B80085E4809338
:1015F000BC000895CF93DF9391E090931806882361
:10160000B9F0C091B800D091BA008091BC008A7B3B
:101610008093BC0060E084E10E94CA0860E085E13C
:101620000E94CA080E94DC0AD093BA00C093B80096
:10163000DF91CF910895089508950895E0911006DF
:1016400080910F06E81730F4F0E0E151FA4F808105
:1016500090E008958FEF9FEF08959091100680918C
:101660000F062FEF3FEF981748F4E92FF0E0E15114
:10167000FA4F208130E09F5F90931006C9010895D2
:1016800080910F0690911006891B990B0895CF92B7
:10169000DF92EF92FF920F931F93CF93DF937C0122
:1016A000CB018A012091EE05222389F0EB016B0129
:1016B000C40ED51ECC15DD0569F06991D701ED91F9
:1016C000FC910190F081E02DC7011995F3CF642FB3
:1016D0000E94B50AC801DF91CF911F910F91FF9031
:1016E000EF90DF90CF900895CF93DF931F92CDB707
:1016F000DEB769832091EE052223F9F020911106CF
:10170000203258F021E030E0FC013383228390E066
:1017100080E00F90DF91CF91089580911206E82F1D
:10172000F0E0E253FA4F998190838F5F8093120625
:101730008093110681E090E0ECCF61E0CE0101964C
:101740000E94B50AF7CFDC011A96ED91FC9130E0CA
:1017500020E01994DC011496ED91FC9130E020E03A
:1017600040E060E11994DC011696ED91FC9130E0C7
:1017700020E040E069E11994DC011696ED91FC91BE
:1017800030E020E040E068E119949A01DC0116960F
:10179000ED91FC91462F67E11994EF92FF920F9320
:1017A0001F93CF93DF931F92CDB7DEB77C018B01E0
:1017B000D8016C91673129F150F46531A0F40F9094
:1017C000DF91CF911F910F91FF90EF9008956A31B3
:1017D00018F16E3FA1F7F8014181498369E2C70121
:1017E0000E94A30B0BC0F80141814983D7011696D3
:1017F000ED91FC9130E020E0C70119950E5F1F4F7D
:10180000D7CFF80181818983AE014F5F5F4F61E0DF
:10181000C7010E94C50BF2CF0F5F1F4FD70116966D
:10182000ED91FC9130E020E040E0C7011995C0CF78
:10183000462FDC011696ED91FC9130E020E066E148
:101840001994462FDC011696ED91FC9130E020E0D2
:1018500065E11994EF92FF920F931F93CF93DF935B
:10186000EC01042F79016D3009F446C050F46B305F
:10187000C9F1693009F49FC06A3009F465C080E09D
:1018800046C06E3009F452C06F3099F70E94BC0B0D
:10189000F7011381110F110F110F6C89160F60E4FE
:1018A000CE010E94210C612F62956F706061CE01A4
:1018B0000E94210C612F6F70CE010E94180CF7015D
:1018C0006481606BCE010E94180CF7014081518148
:1018D0006281660F660F660FCE010E94C50B015034
:1018E000A1F72EC06BE973E0442311F066E973E0C1
:1018F000CE010E94CD0B0AC0411110C06FE873E009
:101900000E94CD0BE881F98182898C8B81E0DF9187
:10191000CF911F910F91FF90EF90089568E873E0C9
:101920000E94CD0BE881F9818389EFCF0E94BC0B27
:1019300061E8CE010E94210C602FCE010E94180C9C
:10194000CE010E94B30BE2CFEA85FB8530E020E0B8
:1019500040E068E2CE011995EE81FF8130E020E0A1
:1019600040E064E1CE01199541E06BE4CE010E94B4
:10197000A30BE881F981448169E2CE010E94A30BA7
:1019800040E06BE4CE010E94A30BE881F981448121
:1019900069E2CE010E94A30B41E06BE4CE010E94FC
:1019A000A30BE881F981458169E2CE010E94A30B76
:1019B00060EA73E09DCF85ED93E0998388831C8A6C
:1019C000A5CFDC011896ED91FC9130E020E040E0DD
:1019D00069E11994DC011896ED91FC9130E020E06A
:1019E00040E068E11994CF93DF931F92CDB7DEB743
:1019F0006983BE016F5F7F4F0E9432080F90DF91B5
:101A0000CF910895EF92FF921F93CF93DF93EC0154
:101A1000162F7A010E94EA0C60E4CE010E94F30CBA
:101A2000E885F9859701412F67E1CE011995CE012F
:101A3000DF91CF911F91FF90EF900C94E10CEF920A
:101A4000FF921F93CF93DF93EC01142F790166313E
:101A500081F138F4643109F44BC0653179F080E0EC
:101A600022C06831C9F150F16931C9F78091CD05C3
:101A7000882391F1CE010E94E10C2EC08091CD050A
:101A8000882319F0CE010E94E10CCE010E94EA0CDD
:101A900060E0CE010E94F30C612FCE010E94F30C96
:101AA00081E08093CD05DF91CF911F91FF90EF9062
:101AB0000895642F0E94F30C81E0F5CF8091CD054D
:101AC000882319F0CE010E94E10CA701193138F4E6
:101AD000612FCE010E94020D1092CD05EDCF68E17D
:101AE000CE010E94020D185188E1E80EF11CEDCFE5
:101AF0008E898F3F11F488E78E8BE885F9859701F1
:101B0000412F64E1CE01DF91CF911F91FF90EF90C3
:101B100019940F93FC01E05CFF4F0190F081E02DE0
:101B20004E1B5F0BDC01D496ED91FC9119950F9142
:101B30000895CF93DF93FC01A081B18182AD90E045
:101B40009C0143E0220F331F4A95E1F737AF26AFE0
:101B500050962C91509748E0249F9001112435AF66
:101B600024AF23AD30E0B90153E0660F771F5A95DB
:101B7000E1F7EF01C05CDF4F7983688351964C91A8
:101B80005197E901C80FD91F50E04C175D0718F4B1
:101B9000CA01821B930BEF01CE5BDF4F7983688311
:101BA000229623E0880F991F2A95E1F7860F971F49
:101BB00099838883229654968D919C915597998309
:101BC0008883E85BFF4F56968D919C91918380832B
:101BD000DF91CF9108950F931F93FC01E25BFF4FBC
:101BE0000190F081E02DDC01A05BBF4F0D90BC9116
:101BF000A02D4A175B0740F4E017F10748F00417DF
:101C0000150730F080E019C0E017F107C0F3FACFF4
:101C1000FC01E65BFF4F40815181845B9F4FFC01DB
:101C2000808191816817790758F481E04217530742
:101C300020F081E02617370728F71F910F910895AC
:101C400042175307B0F3DECF2F923F924F925F922D
:101C50006F927F928F929F92AF92BF92CF92DF92BC
:101C6000EF92FF920F931F93CF93DF9300D000D09A
:101C700000D01F92CDB7DEB79A878987865B9F4FCA
:101C80009A838983FC0111821082E985FA85EA5BD7
:101C9000FF4F4080518029853A85245B3F4F3C832C
:101CA0002B83F90151824082E985FA85EE5BFF4F73
:101CB0002080318029853A85225B3F4F3E832D83EA
:101CC000F90131822082E985FA85EC5BFF4F608063
:101CD000718029853A85205B3F4F38872F83F90132
:101CE00071826082E985FA85E85AFF4FE080F180D1
:101CF000E985FA85EC5AFF4FA080B180E985FA8525
:101D0000EA5AFF4FC080D180E985FA85EE5AFF4F2D
:101D10008080918087019501A601B40189859A850B
:101D20000E94EB0D29853A852C573F4F3A8729872A
:101D300081111BC0F90110822A960FB6F894DEBFFC
:101D40000FBECDBFDF91CF911F910F91FF90EF900C
:101D5000DF90CF90BF90AF909F908F907F906F90CB
:101D60005F904F903F902F90089581E0E985FA852C
:101D700080838114910421F0E981FA81918280822B
:101D8000A414B50420F4EB81FC81B182A0822C1450
:101D90003D0420F4ED81FE81D182C082E614F70477
:101DA00058F6EF81F885F182E082C6CF0F93CF938A
:101DB000DF93E02FDC01AC57BF4FFC91FF2309F408
:101DC00060C02115310509F45CC02230310538F0BE
:101DD000023009F04AC06F5F7F4F621B730B0E2FFA
:101DE0000170E0FD52C0FC01E25BFF4F0190F08109
:101DF000E02D4E175F0708F444C0FC01E05BFF4F85
:101E00000190F081E02D4E175F07D8F5FC01E45BEF
:101E1000FF4F0190F081E02DDC01A65BBF4F0D90DC
:101E2000BC91A02D260F371F2617370738F56E17E0
:101E30007F0718F59F0121503109A217B30708F554
:101E40006A177B0708F4BD012E173F0708F4F90154
:101E5000E61BF70BEC01AEA9BFA914960D90BC913F
:101E6000A02D9F01FD0119950CC0033009F0B7CFDB
:101E70004F5F5F4F421B530BB2CFBD016E177F0701
:101E8000E0F2DF91CF910F910895FC01E65BFF4FE7
:101E90000190F081E02D6E177F0798F3FC01E45B61
:101EA000FF4F0190F081E02D6E177F0750F7FC0186
:101EB000E05BFF4F0190F081E02DDC01A25BBF4FA2
:101EC0000D90BC91A02D240F351F24173507A8F4C1
:101ED0004E175F0788F49F0121503109A217B307FD
:101EE00080F64A175B0708F4AD012E173F0708F488
:101EF000F901E41BF50BAECFAD014E175F0708F6F5
:101F0000EDCFAF92BF92CF92DF92EF92FF920F93FD
:101F10001F93CF93DF936C01EB015A017B01E20E1B
:101F2000F31E9C01240F351F8701AB01BC018EE31A
:101F30009BE00E94EB0D811114C0DF91CF911F91A6
:101F40000F91FF90EF90DF90CF90BF90AF900895EA
:101F500000E09501AE01B6018EE39BE00E94D60E33
:101F60002196EC16FD06A1F7E8CF213069F038F094
:101F7000223079F0840F911D47FD9A950895860FC0
:101F8000911D67FD9A950895841B910947FD9395CE
:101F90000895861B910967FD93950895213069F096
:101FA00038F0223079F0861B910967FD93950895EA
:101FB000840F911D47FD9A950895860F911D67FD29
:101FC0009A950895841B910947FD939508953F9232
:101FD0004F925F926F927F928F929F92AF92BF9239
:101FE000CF92DF92EF92FF920F931F93CF93DF93E5
:101FF0007C01162F442EEC01C25ADF4F5E806F80A9
:102000006C018AE8C80ED11C78847518312E7116BF
:1020100008F4372C8C809D800E85202F462D652D51
:102020008A819B810E94B50F5C01202F462D652D72
:10203000C4010E94CE0FAC01442079F08C85F601DA
:102040008083232D30E0B501C7010E94D60E1715FD
:1020500048F017196394512CD7CF8B858111F7CF96
:102060008D85EDCF150D1E836F82DF91CF911F916E
:102070000F91FF90EF90DF90CF90BF90AF909F9027
:102080008F907F906F905F904F903F900895DC010C
:102090001A964C911A97ED91FC911197249130E08A
:1020A000042E02C0359527950A94E2F7842F860FF7
:1020B000883068F031961196FC93EE93E49198E0A5
:1020C000941B01C0EE0F9A95EAF72E2B88501A96B2
:1020D0008C938FEF9FEF01C0880F6A95EAF7809588
:1020E00082230895FC01E60FF11D849190E0982F62
:1020F00088273196E4918E0F911D0895CF93DF9339
:102100002091980B3091990B2817390709F490C04A
:10211000EC019093990B8093980BFC018491809330
:10212000AB0B3196E491E093AC0BFE013296E49157
:10213000E093AD0BFE013396E491E093AE0BFE010C
:102140003496E491E093AF0BFE013596E491E09371
:10215000B00BFE013696E491E093B10BFE01379689
:10216000E491E093B20BFE013896E491E093B30B57
:10217000FE013996E491E093B40BFE013A96E491A6
:10218000E093B50BFE013B96E491E093B60BFE01A4
:102190003C96E491E093B70BFE013D96E491E09309
:1021A000B80BFE013E96E491E093B90BFE013F9619
:1021B000E491E093BA0BFE017096E491E093BB0BBF
:1021C00061E1CE010E9472109093BD0B8093BC0B15
:1021D00063E1CE010E9472109093BF0B8093BE0BFF
:1021E00065E1CE010E9472109093C10B8093C00BE9
:1021F0008091980B9091990B892BD1F08091B80B1D
:102200008093C40B4091B90B4093C50B9091C30BC5
:10221000992371F0913079F49091BA0B891714F4E5
:102220009093C40B8091BB0B841714F48093C50B5F
:10223000DF91CF9108953091B50B2091B70B082E07
:10224000000C990B622F022E000C770B630F711D8F
:1022500037FD7A95861797071CF4320F3093C40B1D
:10226000241734F72093C50BE3CFAF92BF92CF92E0
:10227000DF92EF92FF920F931F93CF93DF9300D0E3
:102280001F921F92CDB7DEB78C01DC01DA96AC90BD
:10229000DA97DB96EC90DB97ED91FC91B188FE2C00
:1022A000D12CC12CD801ED91FC9111978089D89641
:1022B0002D913C911C82FD828B83B8E08B9FC001E5
:1022C00011248C9DA0018D9D500D9C9D500D1124BD
:1022D000240F351F3A832983D8011496ED91FC9180
:1022E0009E012F5F3F4F41E06FE0C8011995F394C5
:1022F0008F2D8E198A1528F4BFEFCB1ADB0AFB1439
:1023000088F20F900F900F900F900F90DF91CF9168
:102310001F910F91FF90EF90DF90CF90BF90AF9003
:1023200008958EE39BE00E9435118EE39BE00C94B0
:10233000AA0BCF92DF92EF92FF920F931F93CF934E
:10234000DF93EC01962F683109F44BC0B901993144
:1023500030F49431C9F0973189F080E006C09931AA
:1023600009F461C09032C9F781E0DF91CF911F91EC
:102370000F91FF90EF90DF90CF90089550E08EE2A4
:1023800097E00E94470BF0CF8C859D85AE85BF8579
:10239000892B8A2B8B2B71F4E881F981A585B0E01C
:1023A00020EA36E841E050E00E94F41E6C877D8709
:1023B0008E879F871092100610920F0610921206B9
:1023C000109211060E94DC0A8BE19BE090933A0682
:1023D000809339068CE19BE090933E0680933D0606
:1023E000C3CF2C853D854E855F8560E074E284EF28
:1023F00090E00E94FF1E2051310941095109569574
:102400004795379527952093B8008E8990E095954C
:10241000879591E09093EE058093CC05109212067B
:1024200010921106A1CFD0911106D13208F093C0BD
:10243000C091CC050E9429096B017C018091610645
:10244000811164C082E08093610681E0809363061D
:102450008FEF8093600610928506D0938406AEECD1
:10246000B5E0E4E6F6E080E0D8137CC01092860682
:1024700080918606CC0FC82BC09386068091620699
:10248000813009F073C0109262060E9429096B0125
:102490007C01809186068093BB0080911406909108
:1024A0001506A0911606B0911706892B8A2B8B2B47
:1024B00099F00E94290900911406109115062091A7
:1024C0001606309117066C197D098E099F090617AB
:1024D000170728073907D8F18091BC0083FDD9CFB1
:1024E00085EC8093BC000E9429096B017C018091DE
:1024F00061068230E9F1809160068F3F61F1809141
:102500006006803241F18091600625C080911406FA
:1025100090911506A0911606B0911706892B8A2B6B
:102520008B2B09F48BCF0E9429090091140610917E
:10253000150620911606309117066C197D098E0933
:102540009F09061717072807390708F077CF8091EA
:1025500013060E94FA0A10921206109211061092A7
:10256000EE0502CF9D9191938F5F7ECF85EEB9CF1F
:102570008091140690911506A0911606B091170649
:10258000892B8A2B8B2B09F4B2CF0E942909009149
:1025900014061091150620911606309117066C1935
:1025A0007D098E099F09061717072807390708F0C4
:1025B0009ECFCDCF0F931F93CF93DF938C01C62F68
:1025C000642FCC32E8F4CA3208F041C0C83271F14D
:1025D000C93209F442C080E0C034D0F1CF73F801B1
:1025E000EC0FF11D868D8F3F91F1C031E0F00E941C
:1025F000A10821E0892B09F420E0F801218F27C0F0
:10260000CD3289F140F384EB8C0F823020F7CF7309
:10261000C00FD12FD11D8E8D411133C061E00E94BA
:10262000F80860E08E8D0E94CA0811C0025E1F4F3C
:10263000D0E0F80181918F018F3F31F061E0D0311E
:1026400008F062E00E94F808DF5FD63191F781E080
:10265000DF91CF911F910F91089570E090E080E09D
:102660000E944E09F4CF85E090E0433010F082E004
:1026700090E0880F991F880F991F05970197F1F730
:10268000E6CF62E00E94F808E2CF8091870361E024
:10269000833019F0823061F460E088E20E94CA0859
:1026A00061E089E20E94CA0861E08AE20C94CA08EB
:1026B000813031F460E088E20E94CA0860E0F1CF26
:1026C00081110AC060E088E20E94CA0860E089E2E5
:1026D0000E94CA0860E0E9CF08950F931F93CF933B
:1026E000DF93EC018C01005C1F4F2B8130E04A81AD
:1026F00050E0698170E0888190E00E94810F24960B
:102700000C171D0791F7DF91CF911F910F910C943A
:10271000911160E08EE10E94CA0861E08FE10E94A1
:10272000CA0861E080E20E94CA0860E081E20E947B
:10273000CA0860E082E20E94CA0860E083E20E9468
:10274000CA0860E084E20E94CA0868EE73E080E094
:1027500090E00C944E09EF92FF920F931F93CF934A
:10276000DF93182FD92F6091440270E080914502C9
:1027700023E030E043E050E090E00E94810F0E94AF
:1027800091112091000280914502820F80934502B1
:10279000C0914302909144029C0F90934402815057
:1027A0008E3718F0219520930002911178C0C195C1
:1027B000C09343024091440250E0DA011396909195
:1027C0004502692F70E0A633B10574F080910102D3
:1027D000981750F090E08896861797072CF0809114
:1027E00043028195809343027B0183E0E80EF11C54
:1027F000E12FFD2F8F01005C1F4F208130E0E2169A
:10280000F3060CF412C18281820F932F911D86175B
:1028100097070CF40AC1818190E0A817B9070CF45E
:1028200004C1C381C80FD92FD11DC417D5070CF41B
:10283000FCC048EC40834183409143024195409362
:1028400043024091CA055091CB05FA01EE0FFF1FDC
:10285000EE0FFF1FED5FFD4F318320839383828353
:102860004F5F5F4F5093CB054093CA05E091020242
:10287000EA3008F0D4C0E150E93008F0B3C0F0E02D
:102880008827EA5BFB4E8F4F0C94301F12156E1495
:1028900088149A14AC14BA14D014031509159F3374
:1028A00008F488CF8091870381508093870382301A
:1028B00049F40E94451380E48093450280E38093AD
:1028C000440275CF8130A9F3811174CF0E94451362
:1028D00088EC80934502809344026CCF61E08EE1E6
:1028E0000E94CA0861E08FE10E94CA0860E080E2AD
:1028F0000E94CA0861E081E20E94CA0861E082E2A7
:102900000E94CA0860E083E20E94CA0861E061C0D8
:1029100061E08EE10E94CA0861E08FE10E94CA086E
:1029200061E080E20E94CA0861E081E20E94CA0878
:1029300060E0E5CF60E08EE10E94CA0861E08FE1CF
:102940000E94CA0861E080E20E94CA0860E081E259
:102950000E94CA0860E01FC061E08EE10E94CA08C0
:1029600060E08FE10E94CA0861E080E20E94CA082C
:1029700061E0EDCF61E08EE10E94CA0860E08FE186
:102980000E94CA0861E080E20E94CA0861E081E218
:102990000E94CA0861E082E20E94CA0861E0B3CFE7
:1029A00061E08EE10E94CA0861E08FE10E94CA08DE
:1029B00061E080E20E94CA0860E081E20E94CA08E9
:1029C00060E082E20E94CA0860E083E20E94CA08D6
:1029D00060E084E20E94CA0868EE73E080E090E064
:1029E0000E944E09809102028F5F809302028091C3
:1029F00086038F5F80938603DF91CF911F910F91A4
:102A0000FF90EF90089561E08EE10E94CA0861E0B6
:102A1000B6CF61E08EE10E94CA0861E0A2CF81E0FA
:102A2000809302020E948913DDCF3496E017F107EC
:102A300009F0E3CEE1CF61E08EE10E94CA0861E0D7
:102A40008FE10E94CA0861E080E20E94CA0861E04A
:102A500081E20E94CA0861E082E20E94CA0861E045
:102A600083E20E94CA0860E084E20E94CA0868EE1D
:102A700073E080E090E00C944E09CF92DF92EF92E9
:102A8000FF920F931F93CF93DF936C01EB017B01B8
:102A9000E40EF51E10E000E0CE15DF0561F069914F
:102AA000D601ED91FC910190F081E02DC6011995C0
:102AB000080F191FF1CFC801DF91CF911F910F911E
:102AC000FF90EF90DF90CF9008952F923F924F921A
:102AD0005F926F927F928F929F92AF92BF92CF92AE
:102AE000DF92EF92FF920F931F93CF93DF9300D06B
:102AF00000D01F921F92CDB7DEB77C016C0124E09D
:102B0000C20ED11CFC01E057FF4F0190F081E02D77
:102B1000C60119958C018E3F9F4F08F061C03701A7
:102B200084E9680E711CF3010190F081E02DFD83B2
:102B3000EC835701F2E9AF0EB11CF5018080918062
:102B4000970120593F4F3B832A83F90180818130CF
:102B500009F470C008F45FC0823009F476C0833095
:102B600009F482C0F701EC59FF4F918280823296BE
:102B70002C813D81318320833897808191814796D4
:102B80009D838C830F3F110511F008F020C1B6968C
:102B90000136110530F40134110558F0F701EE57F4
:102BA000FF4F808191812C813D81280F391F3D830A
:102BB0002C838C819D810196FC01249121115FC0A1
:102BC00090E080E0EA81FB812081213009F4C1C1DD
:102BD00008F4B7C1223009F4BEC1233009F4C3C1DF
:102BE00081E090E028960FB6F894DEBF0FBECDBF0F
:102BF000DF91CF911F910F91FF90EF90DF90CF90D9
:102C0000BF90AF909F908F907F906F905F904F900C
:102C10003F902F900895F701E05AFF4F0190F08107
:102C2000E02DC60119952C813D81280F391F3D8368
:102C30002C8398CFF701E05AFF4F0190F081E02DEF
:102C4000C6011995881A990A8DCFF701E05AFF4FEE
:102C50000190F081E02DC6011995EC81FD81E81B02
:102C6000F90BFD83EC837ECFF701E05AFF4F019013
:102C7000F081E02DC6011995880E991E73CFEC8165
:102C8000FD8124912017110609F09AC0CF01029608
:102C9000009709F495CFF701EE59FF4FF887EF83BE
:102CA000918380831286739660818F8198850E94BC
:102CB0004710EF81F8858087F701EA58FF4F608160
:102CC0008F8198850E944710582EEF81F885818763
:102CD000970122573F4F3D832C83F9019081EF816B
:102CE000F885948781E0911180E0EF81F8858587F0
:102CF000F701E958FF4F8080682D8F8198850E94E9
:102D00004710382EF701E858FF4F2080622D8F8141
:102D100098850E944710982EF701E758FF4F1081C1
:102D2000612F8F8198850E9447109FEF910F01E0DE
:102D300010E0980101C0220F9A95EAF7821B8E835A
:102D4000EF81F885408414140CF0C4C08A94C80143
:102D500001C0880F8A94EAF7381AF685F983950C32
:102D60002A94C80101C0880F2A94EAF7282E29184E
:102D70002F2F422D632DEF81F885828193810E9450
:102D8000B50F4C01EF81F885938382832981422D11
:102D9000632D848195810E94CE0FEF81F885958304
:102DA0008483F981F13009F49AC008F44EC0F230FE
:102DB00009F4A4C0F33009F4B5C0BC0194014FC0BC
:102DC000FC0184912C813D81280F311DF0CEF7014B
:102DD000EA57FF4F80819181EC81FD81E80FF91F57
:102DE000FD83EC834F0160E0C4010E9472102C81CE
:102DF0003D81280F391F3D832C8362E0C4010E946E
:102E0000721034E0830E911C8017910760F3EC81FF
:102E1000FD81849190E0982F88273196E4918E2B44
:102E2000009709F4CDCE0817190721F48C819D81F4
:102E300003962ECFEC81FD813296E4912C813D8169
:102E40002E0F311D3D832C83E2CF9401240D311DC3
:102E500047FC3A95BC01650D711D57FC7A958B01B5
:102E6000AC01B401C6010E94EB0D882399F1EF81FA
:102E7000F885168217824701F3E78F0E911C24E72D
:102E8000E20EF11CF40160818F8198850E94471049
:102E9000082FF70160818F8198850E944710182FB5
:102EA00040E0602FC6010E94E70F41E0612FC6019C
:102EB0000E94E70F61E08F8198850E944710811181
:102EC000EFCFEF81F88587818515E4F28485EC8169
:102ED000FD818083FE818F2FFF0F990B73CE051923
:102EE000110957FC139594012F5F3F4FBC01640DEE
:102EF000711D47FC7A95800E911EB1CFA80144192F
:102F0000510947FC539594012F5F3F4F0519110953
:102F100057FC1395BC016F5F7F4F800F911F840E8C
:102F2000951E9DCF9401250D311D57FC3A9504192E
:102F3000110947FC1395BC016F5F7F4F800F911FF4
:102F40008ECFF50120813181820F931F9183808381
:102F500047CEF301F7CFF50120813181281B390BD2
:102F6000318320833DCEF301F7CF089590E080E0D8
:102F700008958F929F92AF92BF920F931F93CF931A
:102F8000DF93CDB7DEB7A1970FB6F894DEBF0FBEC3
:102F9000CDBF19A2423008F44AE08E010F5D1F4FE9
:102FA000842E912CB12CA12CA50194010E94FF1E0E
:102FB000E62FB901CA01EA3044F5E05DD801EE938D
:102FC0008D01232B242B252B79F790E080E010979F
:102FD00069F0FD0101900020E9F73197AF014A1B2C
:102FE0005B0BBD018AE39BE00E943D15A1960FB6E5
:102FF000F894DEBF0FBECDBFDF91CF911F910F912F
:10300000BF90AF909F908F900895E95CD7CFFC015F
:1030100001900020E9F73197AF01481B590BBC0123
:103020008AE39BE00C943D1585ED8093BC00809174
:10303000140690911506A0911606B09117060796F2
:10304000A11DB11D23E0B695A795979587952A9563
:10305000D1F72091BC0024FD03C0109261060895B1
:10306000409114065091150660911606709117064E
:10307000452B462B472B69F30097A105B10541F07D
:103080002AE22A95F1F700C00197A109B109E1CF21
:10309000809113060C94FA0AFC01A081B18150962C
:1030A0002C9182AD38E0839FC0011124289FA0019C
:1030B000299F500D112470E060E080AD91AD0C941B
:1030C0003F1F0F931F93CF938C01C62F8EE39BE07E
:1030D0000E944C188CEE99E00E947E101092CD0B4D
:1030E0001092CC0B6C2F70E0665F7F4F7093CF0B0C
:1030F0006093CE0BC8010E940718CF911F910F91CA
:103100000C949111CF93DF9380917B00877F809304
:103110007B0080E480937C0080917A0080648093BF
:103120007A0080917A0086FDFCCFA0917800B09162
:10313000790028E530E00E94381F2FEF33E040E0AF
:1031400050E00E94D51EE9018EE39BE00E944C18DE
:1031500023E030E048E250E066E370E0CE010E94F8
:10316000810F0E949111C0930102DF91CF910895C8
:103170001F920F920FB60F9211242F933F938F93AC
:103180009F93AF93BF938091890690918A06A091F7
:103190008B06B0918C063091880623E0230F2D37E3
:1031A00058F50196A11DB11D2093880680938906CC
:1031B00090938A06A0938B06B0938C0680918D061F
:1031C00090918E06A0918F06B09190060196A11D58
:1031D000B11D80938D0690938E06A0938F06B093B9
:1031E0009006BF91AF919F918F913F912F910F903A
:1031F0000FBE0F901F90189526E8230F0296A11D71
:10320000B11DD2CF1F920F920FB60F9211240BB6A1
:103210000F922F933F934F935F936F937F938F936F
:103220009F93AF93BF93EF93FF9381E996E00E9442
:10323000F509FF91EF91BF91AF919F918F917F9190
:103240006F915F914F913F912F910F900BBE0F9017
:103250000FBE0F901F9018951F920F920FB60F92EE
:1032600011240BB60F922F938F939F93EF93FF939D
:10327000E091A106F091A2068081E091A706F0916D
:10328000A80682FD1DC090818091AA068F5F8F7372
:103290002091AB06821741F0E091AA06F0E0EF56CC
:1032A000F94F958F8093AA06FF91EF919F918F918F
:1032B0002F910F900BBE0F900FBE0F901F9018957F
:1032C0008081F2CF1F920F920FB60F9211240BB68E
:1032D0000F922F933F934F935F936F937F938F93AF
:1032E0009F93AF93BF93EF93FF938091B900887F33
:1032F000803609F44DC008F040C0883209F4A9C0F6
:1033000028F5803109F49DC0C8F4882309F4FBC076
:10331000883009F496C0FF91EF91BF91AF919F91D2
:103320008F917F916F915F914F913F912F910F906E
:103330000BBE0F900FBE0F901F901895883109F4A7
:1033400088C0803241F78093600614C0803409F44D
:103350009DC040F48033B9F38833E9F6809360066A
:1033600085ECB0C0803509F485C0883509F496C075
:10337000883489F60E941418CECF883909F48CC09D
:1033800038F5883729F050F4883611F0803719F66F
:1033900083E08093610610925F0657C0883809F475
:1033A0007BC0803919F0803809F0B5CF80915F0675
:1033B000803208F071C0E0915F0681E08E0F80934B
:1033C0005F068091BB00F0E0E15CF94F80833DC077
:1033D000803B39F0E0F4803A09F479C0883A09F08A
:1033E0009ACF84E08093610610923C0610923B06CF
:1033F000E0913906F0913A06199580913B068111CA
:103400000FC081E080933B061092190609C0803CF2
:1034100009F4A6CF883C09F4A3CF883B09F07BCF01
:10342000E0913C0681E08E0F80933C06F0E0E75E81
:10343000F94F80818093BB0090913C0680913B06C0
:1034400029C0809186068093BB0085EC8093BC00E8
:1034500062CF9091850680918406981758F5E09187
:10346000850681E08E0F80938506F0E0EC59F94FD8
:103470008081E9CFE091850681E08E0F80938506FB
:103480008091BB00F0E0EC59F94F80839091850664
:10349000809184069817C8F285E8D8CFE091850618
:1034A00081E08E0F809385068091BB00F0E0EC599F
:1034B000F94F80838091630681115CCF81E0809316
:1034C000620684EA8093BC001092610624CF85ECEA
:1034D0008093BC001092610680915F06803230F4C8
:1034E000E0915F06F0E0E15CF94F108260915F06C9
:1034F00070E0E0913D06F0913E068FE396E019956D
:1035000010925F0608CF1092600634CFCF931092CE
:1035100094061092930688EE93E0A0E0B0E08093CA
:10352000950690939606A0939706B093980621E38C
:1035300035E0309392062093910625EC30E03093ED
:103540009E0620939D0624EC30E03093A006209345
:103550009F0620EC30E03093A2062093A10621ECD8
:1035600030E03093A4062093A30622EC30E03093A1
:10357000A6062093A50626EC30E03093A8062093FB
:10358000A7061092AA061092AB061092AC061092F3
:10359000AD06109231071092300780933207909356
:1035A0003307A0933407B093350783E495E09093F5
:1035B0002F0780932E0710923D0B10923C0B8FE942
:1035C00097E09093CB0B8093CA0B1092CD0B109287
:1035D000CC0B1092CF0B1092CE0B1092560B85E5B0
:1035E00095E090933B0B80933A0B10923F0B109217
:1035F0003E0B1092530B10924A0B10924B0B1092F1
:103600004C0B10924D0B8FEF8093540B8093580B03
:10361000ECE5FBE082E79BE0CFEFC1938E179F07BD
:10362000E1F78AE29CE09093430B8093420B8FE199
:103630009DE09093450B8093440B89E991E1909331
:10364000470B8093460B8AED92E19093490B809350
:10365000480B30E020E040E069E08EE39BE00E9410
:103660002A0C1092990B1092980B89EA97E090938C
:10367000730B8093720B8AE397E09093770B8093A0
:10368000760B88E08093780B1092790B1092A70B41
:103690001092C70B1092C30B81E08093C80B8093EC
:1036A000C90B8DE595E09093750B8093740B8EE3B9
:1036B0009BE00E94990D1092910B1092900B10922A
:1036C000950B1092940B8FEF9FEF9093930B809339
:1036D000920B9093970B8093960BE091740BF09163
:1036E000750B0280F381E02D8EE39BE0199588E154
:1036F00098E090939B0B80939A0B1092AA0BC09327
:10370000670BC093680BC093690BCF910895CF935B
:10371000DF931F921F92CDB7DEB7789484B5826095
:1037200084BD84B5816084BD85B5826085BD85B565
:10373000816085BD80916E00816080936E001092E3
:10374000810080918100826080938100809181005E
:1037500081608093810080918000816080938000EF
:103760008091B10084608093B1008091B00081604D
:103770008093B0008091910082608093910080914D
:10378000910081608093910080919000816080938E
:1037900090008091A10082608093A1008091A1009F
:1037A00081608093A1008091A00081608093A0003F
:1037B00080912101826080932101809121018160AB
:1037C000809321018091200181608093200180916C
:1037D0007A00846080937A0080917A00826080937E
:1037E0007A0080917A00816080937A0080917A00DB
:1037F000806880937A001092C100E091A106F09158
:10380000A20682E08083E0919D06F0919E061082E0
:10381000E0919F06F091A0068FEC80831092A9069C
:10382000E091A506F091A60686E08083E091A306CC
:10383000F091A406808180618083E091A306F091DD
:10384000A406808188608083E091A306F091A4069D
:10385000808180688083E091A306F091A406808136
:103860008F7D8083E091420BF091430B30E020E0AC
:1038700040E06AE08EE39BE019958091C90B8823B4
:1038800021F08EE39BE00E944C1880E00E941B0810
:103890008EE39BE00E9435118091790B89838091A2
:1038A000780B9981980F9983E0913E0BF0913F0B33
:1038B0008189981708F44AC28EE39BE00E94AA0B04
:1038C00080E00E941B08E091420BF091430B30E036
:1038D00020E040E06BE08EE39BE0199561E08EE133
:1038E0000E94F80861E08FE10E94F80861E080E240
:1038F0000E94F80861E081E20E94F80861E082E23B
:103900000E94F80861E083E20E94F80861E084E226
:103910000E94F80861E088E20E94F80861E089E20C
:103920000E94F80861E08AE20E94F80862E087E1FC
:103930000E94F80862E088E10E94F80862E086E1EF
:103940000E94F80861E088E20E94CA0861E089E20A
:103950000E94CA0861E08AE20E94CA080E941B1500
:103960005AE0252E312C11E063E4462E62E0562EFB
:1039700000E470E3F72E0E9445138EE39BE00E9463
:103980004C1884EC91E00E947E103092CD0B209276
:10399000CC0BA4E1B0E0B093CF0BA093CE0B83E6A9
:1039A00095E00E9407183092CD0B2092CC0BE8E2F4
:1039B000F0E0F093CF0BE093CE0B89E695E00E9408
:1039C0000718809187068111CBC184E190E01092A5
:1039D000CD0B1092CC0B9093CF0B8093CE0B8EE639
:1039E00095E00E9407180E94911187E10E94A108AA
:1039F000892B69F481E090918706911180E0809392
:103A0000870668EC70E080E090E00E944E0988E153
:103A10000E94A108892B69F481E090918706911199
:103A200080E08093870668EC70E080E090E00E9480
:103A30004E0986E10E94A108892B09F084C180917A
:103A40008706811196C180918703882309F4C2C03B
:103A500043E0C42E42E0D42ED60112968D919C9163
:103A6000139781349105CCF5C597F4F02D913C91D5
:103A700011978091010290E028173907ACF08896E1
:103A8000821793078CF0E8ECF0E01396FC93EE932A
:103A90001297ED93FC9380918703833028F48F5F16
:103AA000809387030E9445138EE39BE00E944C188D
:103AB000D60112966D917C91139722E030E042E09E
:103AC00050E08D919C910E94810FF601828193813B
:103AD0000196938382830E949111F4E0CF0ED11C52
:103AE0004C145D0409F0B8CF809186038150833077
:103AF00050F486E493E00E946D1386E493E00E9404
:103B0000AB130E948218809186038550833050F455
:103B100086E093E00E94AB1386E093E00E946D1371
:103B20000E948218809186038950833050F486EC7D
:103B300092E00E94AB1386EC92E00E946D130E940B
:103B40008218809186038D50833050F486E892E08D
:103B50000E94AB1386E892E00E946D130E948218C7
:103B6000809186038151833050F486E492E00E9474
:103B7000AB1386E492E00E946D130E94821880913C
:103B80008603982F977F943021F0883011F0803190
:103B900091F400934502F092440290914302919572
:103BA000909343028F5F8093860368E873E180E01F
:103BB00090E00E944E0980918703811144CF6EE10D
:103BC00080E795E00E94611860ED77E080E090E08A
:103BD0000E944E098EE39BE00E944C188CEE99E007
:103BE0000E947E101092CD0B1092CC0B8EE190E0D3
:103BF0009093CF0B8093CE0B609186036150770B2F
:103C00006F3F760709F0AFC06DE28AE39BE00E9448
:103C100065154AE061E070E080E090E00E94B9172D
:103C20000E94911168EB7BE080E090E00E944E09D9
:103C30008EE39BE00E944C18EDEEF4E086E4682EE3
:103C400083E0782E9DEA892E94E0992E26E0A22E1C
:103C500023E0B22E3DE6C32E34E0D32E66EC72E0B4
:103C60004DE254E026E832E08DEE93E0A6E4B2E0C7
:103C7000BA83A983E080D301EC92E1801196EC92A3
:103C8000D401EC90D501EC92D4011196EC90D501C1
:103C90001196EC92D601EC90DB01EC92D6011196D4
:103CA000EC90DB011196EC92DA01EC90D901EC92E8
:103CB000DA011196EC90D9011196EC92DC01EC90AE
:103CC000A981BA81EC92DC011196EC90A981BA81AC
:103CD0001196EC923496B4E06B0E711CA4E08A0E3F
:103CE000911CB4E0AB0EB11CA4E0CA0ED11C6C5FF9
:103CF0007F4F4C5F5F4F2C5F3F4F0496A981BA8185
:103D00001496BA83A983B5E0ED32FB0709F0B2CF70
:103D1000E3E0F2E088EC90E09183808393838283F8
:103D200034964E165F06B1F70E9491110E941B1542
:103D300083E080938703109302021093860300931D
:103D40004502F09244020E94840A15CE8091C90B6C
:103D5000882321F08EE39BE00E944C18898196CD48
:103D600088E290E034CE072E000C880B990B4AE0D5
:103D700055CF65E08AE795E00E94611860ED77E035
:103D800080E090E00E944E096EE18DE895E00E948F
:103D9000611860ED77E080E090E00E944E0968E2F3
:103DA00082EA95E00E946118FFCF052E97FB1EF472
:103DB00000940E94EC1E57FD07D00E94FF1E07FCD6
:103DC00003D04EF40C94EC1E5095409530952195FF
:103DD0003F4F4F4F5F4F0895909580957095619537
:103DE0007F4F8F4F9F4F08950E94211FA59F900DD9
:103DF000B49F900DA49F800D911D11240895A1E200
:103E00001A2EAA1BBB1BFD010DC0AA1FBB1FEE1F54
:103E1000FF1FA217B307E407F50720F0A21BB30B9F
:103E2000E40BF50B661F771F881F991F1A9469F71B
:103E300060957095809590959B01AC01BD01CF0177
:103E40000895A29FB001B39FC001A39F700D811D73
:103E50001124911DB29F700D811D1124911D089593
:103E6000EE0FFF1F881F8BBF0790F691E02D19946E
:103E70000E94211FB7FF0895821B930B0895DC0158
:103E800001C06D9341505040E0F70895F894FFCF82
:103E9000013B01C800C800C800C800C800C800C86D
:103EA00000C800C800C800C800C800C800C800C8D2
:103EB00000C800C800C800C800C800C800C800C8C2
:103EC00000C800C800C800C800C800C800C800C8B2
:103ED00000C800FF304002021003380210036E02D7
:103EE000100314071003260710034A0710035C078A
:103EF0001003020C1003380C10036E0C1003141185
:103F00001003261110034A1110035C11100302164E
:103F100010036E1610031D0210032F02100341023E
:103F20001003530210030B071003650710030B0C5B
:103F300010032F0C1003410C1003650C10030B1120
:103F40001003651110031D1610032F1610034116E0
:103F50001003531610031D0210032F021003410219
:103F60001003530210031D071003530710031D0C09
:103F70001003530C10031D1110032F1110034111D6
:103F80001003531110032F161003411610031D1BAD
:103F90001003531B100338021003260710033807C1
:103FA00010034A071003140C1003260C1003380CDE
:103FB00010034A0C10035C0C1003021110031411BF
:103FC000100326111003381110034A1110035C115D
:103FD00010036E11100302021003140210032602D4
:103FE0001003380210034A0210035C0210036E0231
:103FF00010031407100326071003380710034A079D
:1040000010035C071003260C1003380C10034A0C35
:1040100010033811100301031815A015C019FF185B
:1040200015A115C819FF1815AE19FF1815AF19FFFE
:104030001815AE15D5168015A8163F15D316001500
:1040400040158D16141520160015A115C815DA1681
:1040500012158116CF15D916F115DB1640152E1540
:10406000A415A619FF0001140A6464323200127A02
:104070000000042896100800008000400002021092
:1040800003380210036E02100314071003260710F2
:10409000034A0710035C071003020C1003380C10CE
:1040A000036E0C100314111003261110034A111093
:1040B000035C111003021610036E1610031D02108C
:1040C000032F02100341021003530210030B0710C9
:1040D00003650710030B0C10032F0C1003410C1089
:1040E00003650C10030B111003651110031D16104E
:1040F000032F16100341161003531610031D021050
:10410000032F02100341021003530210031D071076
:1041100003530710031D0C1003530C10031D111043
:10412000032F11100341111003531110032F161008
:1041300003411610031D1B1003531B1003380210FC
:104140000326071003380710034A071003140C1046
:1041500003260C1003380C10034A0C10035C0C10DF
:10416000030211100314111003261110033811104B
:10417000034A1110035C1110036E111003020210A8
:10418000031402100326021003380210034A02101F
:10419000035C0210036E02100314071003260710BD
:1041A00003380710034A0710035C071003260C109E
:1041B00003380C10034A0C100338111003000000E0
:1041C00000170A8109AE09640ADF09BD09D1090097
:1041D000000000740B470BB6171D0B400B2D0B1E78
:1041E0000B0000000065153D15B617B517990D2495
:1041F0000E890D53746172740045786974003E0035
:1042000047616D65204F766572005468616E6B2062
:10421000796F7520666F7220796F757200696E74A0
:10422000657265737420696E206F75722067616DA9
:064230006500424200009F
:020000040003F7
:10E000000D9489F10D94B2F10D94B2F10D94B2F129
:10E010000D94B2F10D94B2F10D94B2F10D94B2F1F0
:10E020000D94B2F10D94B2F10D94B2F10D94B2F1E0
:10E030000D94B2F10D94B2F10D94B2F10D94B2F1D0
:10E040000D94B2F10D94B2F10D94B2F10D94B2F1C0
:10E050000D94B2F10D94B2F10D94B2F10D94B2F1B0
:10E060000D94B2F10D94B2F10D94B2F10D94B2F1A0
:10E070000D94B2F10D94B2F10D94B2F10D94B2F190
:10E080000D94B2F10D94B2F10D94B2F10D94B2F180
:10E090000D94B2F10D94B2F10D94B2F10D94B2F170
:10E0A0000D94B2F10D94B2F10D94B2F10D94B2F160
:10E0B0000D94B2F10D94B2F10D94B2F10D94B2F150
:10E0C0000D94B2F10D94B2F10D94B2F10D94B2F140
:10E0D0000D94B2F10D94B2F10D94B2F10D94B2F130
:10E0E0000D94B2F141546D656761323536300041AF
:10E0F000726475696E6F206578706C6F72657220DE
:10E1000073746B3530305632206279204D4C530099
:10E11000426F6F746C6F616465723E004875683F52
:10E1200000436F6D70696C6564206F6E203D200048
:10E130004350552054797065202020203D20005FF9
:10E140005F4156525F415243485F5F3D2000415658
:10E1500052204C696243205665723D20004743437C
:10E160002056657273696F6E203D20004350552024
:10E1700049442020202020203D20004C6F7720663D
:10E18000757365202020203D20004869676820665F
:10E190007573652020203D200045787420667573D6
:10E1A00065202020203D20004C6F636B2066757336
:10E1B000652020203D20004D617220203720323024
:10E1C000313300312E362E3800342E332E350056A2
:10E1D00023202020414444522020206F7020636F70
:10E1E00064652020202020696E73747275637469E1
:10E1F0006F6E2061646472202020496E74657272B3
:10E20000757074006E6F20766563746F7200726A49
:10E210006D702020006A6D70200057686174207056
:10E220006F72743A00506F7274206E6F7420737541
:10E2300070706F72746564004D7573742062652030
:10E2400061206C6574746572002000577269747483
:10E25000696E672045450052656164696E672045B7
:10E26000450045452065727220636E743D00504F35
:10E27000525400303D5A65726F2061646472003FF1
:10E280003D43505520737461747300403D454550C3
:10E29000524F4D207465737400423D426C696E6B41
:10E2A000204C454400453D44756D70204545505215
:10E2B0004F4D00463D44756D7020464C415348001B
:10E2C000483D48656C70004C3D4C69737420492F83
:10E2D0004F20506F72747300513D51756974005234
:10E2E0003D44756D702052414D00563D73686F7707
:10E2F00020696E7465727275707420566563746FF0
:10E30000727300593D506F727420626C696E6B00BD
:10E310002A0011241FBECFEFD1E2DEBFCDBF01E046
:10E320000CBF12E0A0E0B2E0EEE1FDEF03E00BBFB6
:10E3300002C007900D92A030B107D9F712E0A0E01B
:10E34000B2E001C01D92AE30B107E1F70F9460F367
:10E350000D948DFE01E20EBF0FEF0DBF11241FBE05
:10E360000D9460F30D9400F020E030E040ED57E0B4
:10E3700005C0FA013197F1F72F5F3F4F2817390792
:10E38000C0F308959C01260F311DC901A0E0B0E043
:10E390002F5F3F4FABBFFC018791882361F08093D3
:10E3A000C6008091C00086FFFCCF8091C0008064D1
:10E3B0008093C000EACF08958DE08093C6008091DD
:10E3C000C00086FFFCCF8091C00080648093C000B5
:10E3D0008AE08093C6008091C00086FFFCCF8091C8
:10E3E000C00080648093C00008950F94C2F10F9420
:10E3F000DCF10895FC019081992359F09093C600B7
:10E400008091C00086FFFCCF8091C0008064809323
:10E41000C0003196992379F70895282F982F929567
:10E420009F70892F805D8A3308F0895F8093C600D2
:10E430008091C00086FFFCCF8091C00080648093F3
:10E44000C000822F8F70982F905D9A3308F0995FEB
:10E450009093C6008091C00086FFFCCF8091C000E1
:10E4600080648093C00008959C01FB01853691056E
:10E470001CF46330710594F0C90164E670E00F94F8
:10E480002EFE605D7F4F6093C6008091C00086FFC6
:10E49000FCCF8091C00080648093C0002B30310598
:10E4A00014F43297B4F0C90164E670E00F942EFEC4
:10E4B0006AE070E00F942EFE605D7F4F6093C600AF
:10E4C0008091C00086FFFCCF8091C0008064809363
:10E4D000C000C9016AE070E00F942EFEC0968093E0
:10E4E000C6008091C00086FFFCCF8091C000806490
:10E4F0008093C00008951F93182F8EE692EE60E07F
:10E500000F94C2F11093C6008091C00086FFFCCF2B
:10E510008091C00080648093C0000F94DCF11F9153
:10E5200008952F923F924F925F926F927F928F92B7
:10E530009F92AF92BF92CF92DF92EF92FF920F9392
:10E540001F93DF93CF93CDB7DEB762970FB6F894E2
:10E55000DEBF0FBECDBF382E622ECA01DB015C01CB
:10E560006D01772420E2222E2E010894411C511CBB
:10E570008BC081E0A81680E0B80681E0C80680E084
:10E58000D80628F0C601AA27BB270F940DF2BB2797
:10E59000AD2D9C2D8B2D0F940DF28A2D0F940DF225
:10E5A0002092C6008091C00086FFFCCF8091C00001
:10E5B00080648093C0009DE29093C6008091C0006B
:10E5C00086FFFCCF8091C00080648093C0002092C1
:10E5D000C6008091C00086FFFCCF8091C00080649F
:10E5E0008093C00019828601750188249924A1E0D6
:10E5F0003A1651F03A1620F0B2E03B1661F409C029
:10E600000BBFF701779007C0C7010F9477FE782EF4
:10E6100002C0F7017080872D0F940DF22092C60082
:10E620008091C00086FFFCCF8091C0008064809301
:10E63000C000872D8052F401EF70F0708F3520F408
:10E64000E40DF51D708204C0E40DF51D8EE280839B
:10E650000894E11CF11C011D111D0894811C911CE2
:10E6600090E18916910409F0C2CF80E190E0A0E02A
:10E67000B0E0A80EB91ECA1EDB1E198AC2010F9493
:10E68000FAF10F94DCF16A94662009F072CF629679
:10E690000FB6F894DEBF0FBECDBFCF91DF911F91B3
:10E6A0000F91FF90EF90DF90CF90BF90AF909F9031
:10E6B0008F907F906F905F904F903F902F90089534
:10E6C0002F923F924F925F926F927F928F929F9282
:10E6D000AF92BF92CF92DF92EF92FF920F931F9370
:10E6E000DF93CF93CDB7DEB7CD53D1400FB6F894BB
:10E6F000DEBF0FBECDBF01E20EBF0FEF0DBF94B75F
:10E70000F894A89514BE80916000886180936000A1
:10E7100010926000789493FF05C0E0910002F091A0
:10E7200001021995279A2F9A8091C00082608093E8
:10E73000C00080E18093C40088E18093C1000000A4
:10E74000EE24FF24870144E0A42EB12CCC24DD2448
:10E7500024C0C5010197F1F70894E11CF11C011DCB
:10E76000111D21E2E2162EE4F20620E0020720E06D
:10E77000120718F031E0C32ED12CC801B70127ECE5
:10E780003BE140E050E00F9441FE611571058105C9
:10E79000910519F485B1805885B98091C00087FD35
:10E7A00003C0C114D104A9F2A6014F5F5F4FC25E3E
:10E7B000DE4F59834883CE51D140C25EDE4F8881FF
:10E7C0009981CE51D140019711F00D9410FEC05D9A
:10E7D000DE4F19821882C053D14060E0C15DDE4F28
:10E7E0001882CF52D14088249924C35DDE4F19820C
:10E7F0001882CD52D140C05EDE4F188219821A8233
:10E800001B82C052D140CE5CDE4F188219821A8220
:10E810001B82C253D140EE24FF2487010BBFF701B6
:10E8200007911691C45CDE4F19830883CC53D14005
:10E830000D940BFEC25EDE4F28813981CE51D1404E
:10E840002130310509F52091C600C25EDE4F1982E4
:10E850001882CE51D14022C02F5F3F4F4F4F5F4FA4
:10E86000213082E138078AE7480780E0580780F0C6
:10E87000C45CDE4FE881F981CC53D140EF5FFF4F9C
:10E8800019F0EE27FF27099420E030E040E050E047
:10E890008091C00087FFE0CF2091C600C35DDE4FAE
:10E8A00048815981CD52D1404F5F5F4FC35DDE4FEC
:10E8B00059834883CD52D140213209F063C64A3092
:10E8C000510508F05FC60894811C911C53E0851621
:10E8D000910409F059C600E010E018C081E280936D
:10E8E000C6008091C00086FFFCCF8091C00080648C
:10E8F0008093C0002F5F3F4F2931310579F70F9486
:10E90000DCF10F5F1F4F0530110519F020E030E0FA
:10E91000E5CF10920A0210920B0210920C02109294
:10E920000D02109206021092070210920802109235
:10E930000902109202021092030210920402109235
:10E9400005028FEE90EE60E00F94F5F180E191EE1C
:10E9500060E00F94C2F18091C00087FFFCCF9091DE
:10E96000C600903608F09F759032B8F09093C600BC
:10E970008091C00086FFFCCF8091C00080648093AE
:10E98000C000A0E2A093C6008091C00086FFFCCF2B
:10E990008091C00080648093C000983409F4D7C18E
:10E9A0009934B8F4923409F459C1933458F490333B
:10E9B00019F1903308F4E3C59F33A1F1903409F0C5
:10E9C000DEC5BDC0953409F470C1963409F0D7C5D1
:10E9D00098C1923509F42BC2933538F49C3409F46C
:10E9E000F5C1913509F0CBC518C2963509F445C279
:10E9F000993509F0C4C567C483E792EE62E00F94CD
:10EA0000F5F110920602109207021092080210927D
:10EA1000090210920A0210920B0210920C0210923C
:10EA20000D0213C18FE792EE62E00F94F5F18FEEC5
:10EA300090EE60E00F94F5F181E291EE60E00F94CA
:10EA4000C2F187EB91EE60E00F94F5F180E391EE77
:10EA500060E00F94C2F184EE90EE60E00F94F5F167
:10EA60008FE391EE60E00F94C2F186E090E061E008
:10EA700070E00F9434F20F94DCF18DE591EE60E0DC
:10EA80000F94C2F189EC91EE60E00F94F5F18EE401
:10EA900091EE60E00F94C2F183EC91EE60E00F9490
:10EAA000F5F18CE691EE60E00F94C2F18EE10F94E7
:10EAB0000DF288E90F940DF281E00F940DF20F949E
:10EAC000DCF18BE791EE60E00F94C2F119E0E0E039
:10EAD000F0E010935700E4918E2F0F940DF20F94F5
:10EAE000DCF18AE891EE60E00F94C2F1E3E0F0E03F
:10EAF00010935700E4918E2F0F940DF20F94DCF1D8
:10EB000089E991EE60E00F94C2F1E2E0F0E0109349
:10EB10005700E4918E2F0F940DF20F94DCF188EAE8
:10EB200091EE60E00F94C2F1E1E0F0E01093570045
:10EB30001491812F0F940DF20F94DCF107CF8BE825
:10EB400092EE62E00F94F5F18BE492EE60E00F94A8
:10EB5000F5F10F94DCF100E010E019C0C8016F2D51
:10EB60000F947FFEFF2031F489E492EE60E00F9471
:10EB7000C2F10BC0F092C6008091C00086FFFCCFAE
:10EB80008091C00080648093C0000F5F1F4FC80158
:10EB900081519F41A0E0B0E0ABBFFC01F790BAE229
:10EBA000FB1621F0E2E000301E07C1F60F94DCF105
:10EBB0000F94DCF187E592EE60E00F94F5F10F948D
:10EBC000DCF1CC24DD2400E010E01EC0C8010F946D
:10EBD00077FEF82E882331F489E492EE60E00F94FA
:10EBE000C2F10BC08093C6008091C00086FFFCCFAD
:10EBF0008091C00080648093C000FE1419F00894D6
:10EC0000C11CD11C0F5F1F4FC80181519F41A0E063
:10EC1000B0E0ABBFFC01E790FAE2EF1621F022E092
:10EC20000030120799F60F94DCF10F94DCF182E6C4
:10EC300092EE60E00F94C2F1C60161E070E00F94C3
:10EC400034F20F94DCF10F94DCF110920202109276
:10EC50000302109204021092050278CE89E992EE26
:10EC600062E00F94F5F1279A2F9A16C02F9880E052
:10EC700090E0E0EDF7E03197F1F7019684369105E9
:10EC8000C1F72F9A80E090E0E0EDF7E03197F1F7DF
:10EC9000019684369105C1F78091C00087FFE6CFC9
:10ECA0008091C00087FFFCCF64C485EA92EE62E0E9
:10ECB0000F94F5F140910202509103026091040219
:10ECC0007091050281E020E10F9491F2809102029F
:10ECD00090910302A0910402B091050280509F4FD1
:10ECE000AF4FBF4F8093020290930302A0930402A0
:10ECF000B093050280509041A040B04008F426CE69
:10ED0000A4CF83EB92EE62E00F94F5F140910602FE
:10ED100050910702609108027091090280E020E1A1
:10ED20000F9491F28091060290910702A09108023F
:10ED3000B091090280509F4FAF4FBF4F80930602A2
:10ED400090930702A0930802B0930902FFCD80ECD4
:10ED500092EE62E00F94F5F183E792EE60E00F949B
:10ED6000F5F18FE792EE60E00F94F5F18BE892EE0B
:10ED700060E00F94F5F189E992EE60E00F94F5F10F
:10ED800085EA92EE60E00F94F5F183EB92EE60E09D
:10ED90000F94F5F180EC92EE60E00F94F5F187ECC2
:10EDA00092EE60E00F94F5F188ED92EE60E00F9442
:10EDB000F5F18FED92EE60E00F94F5F18AEE92EEB0
:10EDC00060E00F94F5F183E093EEBDCD87EC92EE19
:10EDD00062E00F94F5F181E40F947BF282E40F94EA
:10EDE0007BF283E40F947BF284E40F947BF285E45E
:10EDF0000F947BF286E40F947BF287E40F947BF20E
:10EE000088E40F947BF28AE40F947BF28BE40F94F6
:10EE10007BF28CE40F947BF299CD88ED92EE62E068
:10EE20000F94F5F1772473948824992409C48FED05
:10EE300092EE62E00F94F5F140910A0250910B02BC
:10EE400060910C0270910D0282E020E10F9491F22A
:10EE500080910A0290910B02A0910C02B0910D02D8
:10EE600080509F4FAF4FBF4F80930A0290930B0289
:10EE7000A0930C02B0930D0269CD8AEE92EE62E08F
:10EE80000F94F5F184EE90EE60E00F94F5F18FECC5
:10EE900091EE60E00F94F5F1662477244301CC5D98
:10EEA000DE4F19821882C452D140D401C301B695F5
:10EEB000A79597958795CA5DDE4F88839983AA8326
:10EEC000BB83C652D140CC5DDE4FA881B981C4520C
:10EED000D1401196CC5DDE4FB983A883C452D14096
:10EEE000CD0162E070E00F9434F2B0E2B093C6005E
:10EEF0008091C00086FFFCCF8091C0008064809329
:10EF0000C000EDE2E093C6008091C00086FFFCCF18
:10EF10008091C00080648093C000F0E2F093C6004E
:10EF20008091C00086FFFCCF8091C00080648093F8
:10EF3000C000CA5DDE4FE880F9800A811B81C6529D
:10EF4000D140BB27A12F902F8F2D0F940DF2CA5DBA
:10EF5000DE4F8881C652D1400F940DF2B0E2FB2EF5
:10EF6000F092C6008091C00086FFFCCF8091C00067
:10EF700080648093C0000DE30093C6008091C000C0
:10EF800086FFFCCF8091C00080648093C00010E2B7
:10EF90001093C6008091C00086FFFCCF8091C00016
:10EFA00080648093C0008BBEF3012791C65DDE4F65
:10EFB0002883CA52D140A22EBB24CC24DD2408943D
:10EFC000611C711C811C911C8BBEF3018791282E42
:10EFD0003324442455240894611C711C811C911C09
:10EFE0008BBEF3013791C55DDE4F3883CB52D140E4
:10EFF0000894611C711C811C911C8BBEF30147910C
:10F00000C45DDE4F4883CC52D140ADEFEA2EAFEF66
:10F01000FA2EAFEF0A2FAFEF1A2F6E0C7F1C801E57
:10F02000911E142D032DF22CEE24EA0CFB1C0C1D5A
:10F030001D1D0F940DF220E22093C6008091C000A8
:10F0400086FFFCCF8091C00080648093C000C65DC5
:10F05000DE4F8881CA52D1400F940DF230E23093D6
:10F06000C6008091C00086FFFCCF8091C000806404
:10F070008093C000C45DDE4F8881CC52D1400F9494
:10F080000DF240E24093C6008091C00086FFFCCFA5
:10F090008091C00080648093C000C55DDE4F888190
:10F0A000CB52D1400F940DF250E25093C6008091A4
:10F0B000C00086FFFCCF8091C00080648093C000B8
:10F0C0008FEFE8168FEFF80680E0080780E018075A
:10F0D00031F484E092EE60E00F94C2F1DFC0D80119
:10F0E000C7018070907CA070B0708050904CA040A0
:10F0F000B040D1F52FEF3FE340E050E0E222F322B1
:10F1000004231523CA5DDE4FA880B980CA80DB8046
:10F11000C652D140AE0CBF1CC01ED11EAA0CBB1CD7
:10F12000CC1CDD1C8EE092EE60E00F94C2F1BB2798
:10F13000A12F902F8F2D0F940DF28E2D0F940DF285
:10F1400030E23093C6008091C00086FFFCCF8091F2
:10F15000C00080648093C0004EE34093C60080915D
:10F16000C00086FFFCCF87C08EE09EEFA0E0B0E03D
:10F17000E822F9220A231B239CE0E91694E9F90608
:10F1800090E0090790E0190709F088C0C45DDE4FE0
:10F19000A881CC52D140EA2EFF2400E010E0102FCD
:10F1A0000F2DFE2CEE24C55DDE4FB881CB52D14031
:10F1B000EB0EF11C011D111DD601C501817090706F
:10F1C000A070B070DC0199278827E80EF91E0A1F8D
:10F1D0001B1F20EF30E040E050E0A222B322C42207
:10F1E000D52241E1AA0CBB1CCC1CDD1C4A95D1F7F1
:10F1F000EA0CFB1C0C1D1D1D81E090E0A0E0B0E0BE
:10F20000282239224A225B2235E1220C331C441C7D
:10F21000551C3A95D1F7E20CF31C041D151D57013E
:10F220006801AA0CBB1CCC1CDD1C85E192EE60E0E1
:10F230000F94C2F1C801AA27BB270F940DF2BB2778
:10F24000A12F902F8F2D0F940DF28E2D0F940DF274
:10F2500090E29093C6008091C00086FFFCCF809121
:10F26000C00080648093C000AEE3A093C60080918C
:10F27000C00086FFFCCF8091C00080648093C000F6
:10F28000C601AA27BB270F940DF2BB27AD2D9C2DDD
:10F290008B2D0F940DF28A2D0F940DF20F94DCF14B
:10F2A000CC5DDE4FE881F981C452D140F99709F471
:10F2B0004DCBF4E0EF2EF12C012D112D6E0C7F1CA7
:10F2C000801E911EF2CD83E093EE62E00F94F5F183
:10F2D0008AE192EE60E00F94C2F18091C00087FF56
:10F2E000FCCF1091C6001F751093C6008091C0001E
:10F2F00086FFFCCF8091C00080648093C0000F9493
:10F30000DCF1812F81548A3108F036C1163409F4BA
:10F3100095C0173490F4133409F44EC0143430F40B
:10F320001134F1F0123409F01DC130C0143409F465
:10F3300059C0153409F016C16BC01A3409F4C4C0A1
:10F340001B3438F4173409F48FC0183409F00AC19B
:10F35000A1C01B3409F4D2C01C3409F003C1E8C0B9
:10F360008FEF81B90DC082B1809582B980E090E0C5
:10F37000E0EDF7E03197F1F70196883C9105C1F790
:10F380008091C00087FFEFCF12B8EFC08FEF84B934
:10F390000DC085B1809585B980E090E0E0EDF7E0A3
:10F3A0003197F1F70196883C9105C1F78091C00033
:10F3B00087FFEFCF15B8D9C08FEF87B90DC088B1DF
:10F3C000809588B980E090E0E0EDF7E03197F1F7C3
:10F3D0000196883C9105C1F78091C00087FFEFCF6F
:10F3E00018B8C3C08FEF8AB90DC08BB180958BB9A7
:10F3F00080E090E0E0EDF7E03197F1F70196883C8E
:10F400009105C1F78091C00087FFEFCF1BB8ADC059
:10F410008FEF8DB90DC08EB180958EB980E090E0F0
:10F42000E0EDF7E03197F1F70196883C9105C1F7DF
:10F430008091C00087FFEFCF1EB897C08FEF80BBD1
:10F440000DC081B3809581BB80E090E0E0EDF7E0F6
:10F450003197F1F70196883C9105C1F78091C00082
:10F4600087FFEFCF11BA81C08FEF83BB0DC084B38C
:10F47000809584BB80E090E0E0EDF7E03197F1F714
:10F480000196883C9105C1F78091C00087FFEFCFBE
:10F4900014BA6BC08FEF809301010FC080910201FD
:10F4A00080958093020180E090E0E0EDF7E03197F5
:10F4B000F1F70196883C9105C1F78091C00087FF64
:10F4C000EDCF1092020151C08FEF809304010FC065
:10F4D0008091050180958093050180E090E0E0ED4A
:10F4E000F7E03197F1F70196883C9105C1F78091DB
:10F4F000C00087FFEDCF1092050137C08FEF8093DA
:10F5000007010FC08091080180958093080180E079
:10F5100090E0E0EDF7E03197F1F70196883C910536
:10F52000C1F78091C00087FFEDCF109208011DC088
:10F530008FEF80930A010FC080910B01809580931B
:10F540000B0180E090E0E0EDF7E03197F1F70196F4
:10F55000883C9105C1F78091C00087FFEDCF1092E4
:10F560000B0103C085E292EEEEC98091C00087FFD7
:10F57000FCCF8091C600EAC988E392EEE4C98CE131
:10F5800091EEE1C988249924933011F1943028F444
:10F59000913089F09230B8F408C0953061F195301F
:10F5A000F0F0963009F048C043C02B3109F042C951
:10F5B00091E06BE13FC96227C15DDE4F2883CF52E6
:10F5C000D14092E037C9B22FA0E0622793E032C960
:10F5D000822F90E0A82BB92B622794E02BC92E3004
:10F5E00009F039C3622795E0C05DDE4F19821882A9
:10F5F000C053D1401FC9E1E0F0E0EC0FFD1FC05D3A
:10F60000DE4F08811981C053D140E00FF11F2083E4
:10F610000F5F1F4FC05DDE4F19830883C053D14079
:10F6200062270A171B0709F005C9D80196E002C92D
:10F63000261709F010C303C0973009F0FBC87724E0
:10F640009981933109F412C19431C8F4963009F4C8
:10F65000D8C0973050F4923009F406C1933009F4C1
:10F660006DC0913009F059C253C0913109F477C08F
:10F67000923108F0BBC0903109F04FC2F5C098310B
:10F6800009F487C0993150F4953109F4EFC09531F0
:10F6900008F4C6C1963109F040C2C2C19A3109F4DA
:10F6A0006CC09A3108F491C09B3109F45BC09D3164
:10F6B00009F033C29D81903359F48F81882311F46E
:10F6C0009EE11CC0813011F091E018C098E916C08D
:10F6D000892F807591F0903539F4E0E0F0E089E011
:10F6E0008093570094910AC0983539F4E3E0F0E034
:10F6F00089E080935700949101C090E01A821B82A8
:10F700008D818C831D829E831F8227E030E009C299
:10F710001A8288E08B8381E48C8386E58D8382E581
:10F720008E8389E48F8383E5888780E589878FE5E9
:10F730008A8782E38B872BE030E0F3C18A818139AD
:10F7400041F0823941F0803911F48FE005C080E04A
:10F7500003C082E001C08AE01A828B8344C0772410
:10F76000739482C08D81882311F48EE12CC0813086
:10F7700011F081E028C088E926C01A82E1E0F0E0BB
:10F7800089E08093570084918B831C8224E030E0D1
:10F79000C8C18B81803589F48C81883039F4E2E0EE
:10F7A000F0E089E08093570084910DC0E0E0F0E044
:10F7B00089E080935700849106C0E3E0F0E089E09F
:10F7C0008093570084911A82DFCF8D81836C99E0FA
:10F7D000E1E0F0E0082E90935700E89507B600FCB2
:10F7E000FDCF1A821B8223E030E09BC180EC8A832C
:10F7F000CE5CDE4F188219821A821B82C253D1401E
:10F800008EC18A8190E0A0E0B0E0582F44273327D2
:10F8100022278B8190E0A0E0B0E0DC0199278827C7
:10F82000282B392B4A2B5B2B8D8190E0A0E0B0E098
:10F83000282B392B4A2B5B2B8C8190E0A0E0B0E089
:10F84000BA2FA92F982F8827282B392B4A2B5B2BCF
:10F85000220F331F441F551FC05EDE4F288339839C
:10F860004A835B83C052D1401A8259C13A81C95C34
:10F87000DE4F3883C753D140CA5CDE4F1882C6536F
:10F88000D1408B81C82EDD24CA5CDE4F488159816E
:10F89000C653D140C42AD52A933109F082C0CE5C28
